:020000040800F2
:10000000C8C4012029020008690200086B02000828
:100010008F02000893020008970200080000000009
:100020000000000000000000000000009B0200082B
:100030009D020008000000009F020008471D000804
:10004000430200084302000843020008430200087C
:10005000430200084302000843020008430200086C
:10006000430200084302000843020008430200085C
:10007000430200084302000843020008430200084C
:10008000430200084302000843020008430200083C
:10009000430200084302000843020008430200082C
:1000A000430200084302000843020008430200081C
:1000B000430200084302000843020008430200080C
:1000C00043020008430200084302000843020008FC
:1000D00043020008430200084302000843020008EC
:1000E00043020008430200084302000843020008DC
:1000F00043020008430200084302000843020008CC
:1001000043020008430200084302000843020008BB
:1001100043020008430200084302000843020008AB
:10012000430200084302000843020008430200089B
:10013000430200084302000843020008430200088B
:10014000430200084302000843020008430200087B
:10015000430200084302000843020008430200086B
:10016000430200084302000843020008430200085B
:10017000430200084302000843020008430200084B
:10018000430200084302000800F002F800F03CF8C7
:100190000AA090E8000C82448344AAF10107DA45E2
:1001A00001D100F031F8AFF2090EBAE80F0013F0F8
:1001B000010F18BFFB1A43F00103184714BE0000DB
:1001C00034BE0000103A24BF78C878C1FAD852076C
:1001D00024BF30C830C144BF04680C6070470000C1
:1001E0000023002400250026103A28BF78C1FBD840
:1001F000520728BF30C148BF0B6070471FB503F0DE
:100200007CFE1FBD10B510BD03F044FC1146FFF786
:10021000F5FF01F001FC03F062FC03B4FFF7F2FF0D
:1002200003BC03F063FC000009488047094800470D
:10023000FEE7FEE7FEE7FEE7FEE7FEE7FEE7FEE796
:10024000FEE7FEE704480549054A064B70470000F3
:10025000AB03000889010008C8BE0120C8C4012002
:10026000C8C00120C8C0012070470DA100200AE0CD
:100270000A5C164B9A8000BF144A128812F0400F95
:10028000FAD0421CD0B22A28F2D300BFFEE700BF4A
:10029000FEE700BFFEE700BFFEE77047704770470C
:1002A0000D0A456E74657220486172644661756C12
:1002B000745F48616E646C65722C20537973746549
:1002C0006D2048616C742E0D0A0000000010014082
:1002D0000CB50020019000907548006840F4803013
:1002E0007349086000BF7248006800F40030009055
:1002F0000198401C0190009818B90198B0F5A04FE2
:10030000F1D16B48006810F4003F02D0012000904A
:1003100001E0002000900098012845D16448403059
:10032000006840F0805062494031086061480068D0
:1003300040F440405F4908605D48083000685C490F
:10034000083108600846006840F40040086008462C
:10035000006840F4A05008605748091F0860081F53
:10036000006840F08070091F086000BF50480068B6
:1003700010F0007FFAD040F20570504908604C48F8
:100380000830006820F00300494908310860084639
:10039000006840F00200086000BF4548083000686F
:1003A00000F00C000828F8D10CBD10B544480068D6
:1003B00040F47000424908603D48006840F0010088
:1003C0003B49086000203A49083108603848006815
:1003D0003C490840364908603B48091D0860081F31
:1003E000006820F48020091F0860002030490C318B
:1003F0000860FFF76DFF4FF00060314980390860F9
:1004000010BD70B500200022022300240221284DD7
:1004100008352D6805F00C0020B1042806D0082806
:1004200034D107E0294D2A4E356033E0294D284E5E
:1004300035602FE01E4D2D1D2D68C5F380541C4DD9
:100440002D1D2D6805F03F0154B1224DB5FBF1F58E
:10045000174E361D3668C6F3881605FB06F209E00E
:100460001A4DB5FBF1F5124E361D3668C6F38816E7
:1004700005FB06F20E4D2D1D2D68C5F301456D1CC3
:100480006B00B2FBF3F5124E356003E00F4D104EDA
:10049000356000BF00BF064D08352D68C5F3031554
:1004A0000D4E705D0A4D2D68C540094E356070BD1A
:1004B000003802400070004008544007003C0240F1
:1004C00088ED00E0FFFFF6FE103000240024F40069
:1004D0000000002000127A000400002010B5012165
:1004E000080200F0D8FF00214FF4807000F0D3FF25
:1004F00010BD30B50246002000235068F84C204063
:100500000D790C6844EA0524204350609068F54C4E
:100510002040D1E903542C438D682C434D7944EAA3
:10052000450420439060D06A20F470000C7D641E66
:10053000E4B2234340EA0350D06230BD00210160A1
:10054000017141718160C1600161012101757047D4
:100550000021E54A1168E54A01EA0201D0E90023D9
:1005600042EA0302836842EA0302C36842EA0302E2
:1005700042EA0101DE4AC2F804137047002101601B
:1005800041608160C160704721B1826842F0010220
:10059000826003E0826822F00102826070470A46AE
:1005A00000214168D34B19401143416070474162BB
:1005B000826270470A460021416821F01F01114301
:1005C0004160704738B1C849096841F40001C84A20
:1005D000C2F8041306E0C449096821F40001C44AC2
:1005E000C2F80413704738B1BF49096841F480016B
:1005F000BF4AC2F8041306E0BB49096821F4800130
:10060000BB4AC2F804137047F0B504460D460020FB
:100610000021092D11DDE068A5F10A0606EB460769
:10062000072606FA07F18843A5F10A0606EB4606F7
:1006300003FA06F10843E0600CE0206905EB45078A
:10064000072606FA07F1884305EB450603FA06F18B
:1006500008432061072A0FDA606B561E06EB8607F7
:100660001F2606FA07F18843561E06EB860605FA92
:1006700006F10843606322E00D2A0FDA206BD61FD3
:1006800006EB86071F2606FA07F18843D61F06EBFE
:10069000860605FA06F10843206310E0E06AA2F13D
:1006A0000D0606EB86071F2606FA07F18843A2F11E
:1006B0000D0606EB860605FA06F10843E062F0BD7A
:1006C000816841F0804181607047014600208A685E
:1006D00012F0804F01D0012000E00020704721B1CE
:1006E000826842F48062826003E0826822F4806261
:1006F0008260704721B1826842F00202826003E0AA
:10070000826822F002028260704710B50A4600211A
:100710000023416821F46041531E41EA43314160A6
:1007200010BD21B1426842F40062426003E04268B9
:1007300022F40062426070470146C86C80B2704784
:100740006D480068704721B1826842F4807282600F
:1007500003E0826822F480728260704721B182686F
:1007600042F40072826003E0826822F400728260C8
:10077000704738B15C49096841F400515C4AC2F8DD
:10078000041306E05849096821F40051584AC2F898
:1007900004137047F0B504461546002000220026D9
:1007A000092911DDE068A1F10A0707EB470C0727CB
:1007B00007FA0CF29043A1F10A0707EB470703FA87
:1007C00007F21043E0600CE0206901EB410C0727C1
:1007D00007FA0CF2904301EB410703FA07F21043CA
:1007E0002061A06BC0F30156EF1C06F1010CA7EBD2
:1007F0000C0707EB870C1F2707FA0CF29043EF1C3E
:1008000006F1010CA7EB0C0707EB870701FA07F2CB
:100810001043A063F0BD10B50A4600210023816B90
:1008200021F44011531E41EA0351816310BD08B504
:10083000002300930090009B0B440093009B1A60E0
:1008400008BD0A460021816821F4702111438160AE
:1008500070470A460021816821F4401111438160EC
:100860007047816841F48001816070470146002033
:100870008A6812F4800F01D0012000E00020704748
:1008800021B1426842F48062426003E0426822F48F
:1008900080624260704721B1426842F480524260F7
:1008A00003E0426822F480524260704708B5024675
:1008B00000200090009201F12800009B1844009055
:1008C0000098006880B208BD10B50B460021D9B26F
:1008D000012404FA01F18AB144680C43446010E039
:1008E000FFFEFFFCFDF7FFC004230140E030FCFFEA
:1008F00000200140FFFD3FFF0823014044688C4376
:10090000446010BD0246002013680B4201D0012054
:1009100000E000207047CA430260704770B502468D
:100920000020002300240B12556801268E4005EAA2
:10093000060415681D4202D00CB1012000E0002021
:1009400070BD00220A12D34303607047016821F092
:10095000010101600021016041608160C1600161AD
:1009600021214161DA49884204D13D21D84A103A17
:1009700091608CE0D6491831884205D14FF47461FA
:10098000D34A103A916082E0D1493031884205D192
:100990004FF47411CE4A103A916078E0CC49483156
:1009A000884205D14FF07461C94A103A91606EE0F7
:1009B000C7496031884204D1C649C54A103AD1605E
:1009C00065E0C3497831884204D1C349C04A103A2E
:1009D000D1605CE0BE499031884204D1BF49BC4A35
:1009E000103AD16053E0BA49A831884205D14FF09E
:1009F0003D51B74A103AD16049E0B949884204D123
:100A00003D21B74A083A116041E0B54918318842A2
:100A100005D14FF47461B24A083A116037E0B04929
:100A20003031884205D14FF47411AD4A083A116053
:100A30002DE0AB494831884205D14FF07461A84A96
:100A4000083A116023E0A6496031884204D1A149E7
:100A5000A34A121F11601AE0A1497831884204D1DB
:100A60009D499F4A121F116011E09D4990318842B3
:100A700004D19A499A4A121F116008E09849A83196
:100A8000884204D14FF03D51954A121F11607047C2
:100A900010B500220268934B1A40CC680B682343C0
:100AA0004C6923438C692343CC6923430C6A234359
:100AB0004C6A23438C6A23434C6B23438C6B234344
:100AC0001A430260426922F00702D1E90B34234342
:100AD0001A4342610B6943604B6883608B68C36053
:100AE00010BD0021016041608160C1600161416110
:100AF0008161C161016241628162C16201634163DE
:100B00008163704721B1026842F00102026003E094
:100B1000026822F001020260704721B1026842F4CB
:100B20000042026003E0026822F400420260704763
:100B300021B1026842F02002026003E0026822F064
:100B4000200202607047416070470146486880B2E9
:100B5000704722B1036843F40023036003E0036895
:100B600023F4002303600161704721B1026842F45D
:100B70008022026003E0026822F480220260704753
:100B80000AB1016100E0C1607047014600200A68B7
:100B900012F4002F01D0012000E000207047014630
:100BA00000200A6812F0010F01D0012000E00020AF
:100BB0007047014600204A6902F03800704730B59E
:100BC00003460A4600200024454DAB4202D240496C
:100BD000103901E04249103912F0005F01D04C6831
:100BE00000E00C68404D2C40144201D0012000E090
:100BF000002030BD02463A4B9A4202D234481038A7
:100C000001E03748103811F0005F03D0364B0B403D
:100C1000C36002E0344B0B408360704710B511F0A5
:100C2000800F09D022B1436943F08003436103E0A0
:100C3000436923F08003436180290BD02AB1036804
:100C400001F01E042343036004E0036801F01E0466
:100C5000A343036010BD70B50246002000240025A8
:100C60001F4EB24202D21A4B103B01E01C4B103B0C
:100C70001E4E314206D01E2606EAD124166806EA28
:100C8000040502E0566906F0800511F0005F01D00E
:100C90005C6800E01C68144E34400C4202D00DB178
:100CA000012000E0002070BD02460D4B9A4202D2A6
:100CB0000748103801E00A48103811F0005F03D0EF
:100CC000094B0B40C36002E0074B0B408360704749
:100CD000106002403D000020400F002000003D2039
:100CE000106402403F801CF07D0F7D0F3C0F3C0FD5
:100CF00010B504469848844208D10121084600F006
:100D000086FB0021012000F082FB76E093488442BC
:100D100008D10121022000F07AFB0021022000F01E
:100D200076FB6AE08E48844208D10121042000F05D
:100D30006EFB0021042000F06AFB5EE089488442DB
:100D400008D10121082000F062FB0021082000F0FA
:100D50005EFB52E08448844208D10121102000F05B
:100D600056FB0021102000F052FB46E07F488442F1
:100D700008D10121202000F04AFB0021202000F0B2
:100D800046FB3AE07A48844208D10121402000F035
:100D90003EFB0021402000F03AFB2EE075488442E3
:100DA00008D10121802000F032FB0021802000F0DA
:100DB0002EFB22E07048844208D10121801500F00A
:100DC00026FB0021A01500F022FB16E06B488442B0
:100DD00008D10121401500F01AFB0021601500F038
:100DE00016FB0AE06648844207D10121001500F095
:100DF0000EFB0021201500F00AFB10BDF0B50A46DD
:100E000000210023002400BF3DE0012505FA01F385
:100E1000156805EA03049C4234D105684F00032697
:100E2000BE40B543056015794E00B54006683543B0
:100E300005601579012D02D01579022D16D185682E
:100E40004F000326BE40B543856055794E00B5403E
:100E5000866835438560456801268E40B543456008
:100E6000456896798E40B6B235434560C5684F00F7
:100E70000326BE40B543C560D5794E00B540C6686F
:100E80003543C560491C1029BFD3F0BD4FF6FF7133
:100E900001600021017141718171C171704708B514
:100EA0004FF480320092009A0A430092009AC26185
:100EB000C161009AC261C2690092C269009208BD14
:100EC0000246002013690B4201D0012000E00020FF
:100ED00070470146086980B2704702460020536996
:100EE0000B4201D0012000E0002070470146486914
:100EF00080B2704701837047418370470AB1018314
:100F000000E0418370474161704742694A40426155
:100F10007047F0B5002300244D07ED0E02FA05F3EB
:100F2000CE1000F1200555F826504E07F70E0F267B
:100F3000BE40B543CF1000F1200646F82750CE1032
:100F400000F1200555F8265045EA0304CE1000F1C3
:100F5000200545F82640F0BD000002400004024094
:100F600000080240000C0240001002400014024041
:100F700000180240001C02400020024000240240F1
:100F800000280240F948006840F00100F749086075
:100F90000020F64908310860F4480068F449084028
:100FA000F2490860F348091D0860F348EF498431AD
:100FB0000860F0481038091D0860EC48006820F40B
:100FC0008020EA4908600020E8490C310860E749C0
:100FD0008C31086070470021E44A921C1170114660
:100FE0000870704710B501460022002300204A1106
:100FF000012A02D1DD4C236808E0022A03D1DB4C30
:101000007034236802E0D94C7434236801F01F0265
:10101000012494401C4201D0012000E0002010BDBA
:1010200038B5002000900024002500BF3120FFF7D4
:10103000D9FF05460098401C00900098B0F5A04FDD
:1010400001D0002DF2D03120FFF7CCFF08B10124F0
:1010500000E00024204638BD01460020C34A106845
:1010600020F0F80040EAC10010607047C3490860F2
:1010700070470021BD4A703211701170012802D0F2
:1010800004280AD104E00121B84A7032117005E049
:101090000521B64A7032117000E000BF00BF7047F2
:1010A000B7490860704770B5049C41EA8215012673
:1010B000C6EB530645EA0645054345EA0465AB4ED3
:1010C000361D356070BDAD4908667047820142EA41
:1010D0000172A64B84331A607047A849886670472E
:1010E00010B5830143EA016343EA02739F4C8834DD
:1010F000236010BDA14908677047A049C8647047C4
:1011000002460020994B0833186820F0EC6042EA50
:1011100001031843954B08331860704702460020BE
:10112000924B0833186820F0784042EA01031843D4
:101130008E4B083318607047014600208B4A0832F6
:10114000106820F00300084310607047874808309B
:10115000006800F00C00704701460020834A083206
:10116000106820F0F000084310607047014600202E
:101170007E4A0832106820F4E0500843106070473F
:1011800001460020794A0832106820F4604040EAA5
:10119000C10010607047F0B5002100220024022534
:1011A00000260223714F08373F6807F00C0121B178
:1011B000042905D0082937D105E0724F076036E0D1
:1011C000714F076033E0694F3F1D3F68C7F380569A
:1011D000664F3F1D3F6807F03F036EB16A4FB7FB94
:1011E000F3F7DFF888C10CF1040CDCF800C0CCF395
:1011F000881C07FB0CF40CE0624FB7FBF3F7DFF839
:101200006CC10CF1040CDCF800C0CCF3881C07FBAB
:101210000CF4564F3F1D3F68C7F301477F1C7D000C
:10122000B4FBF5F7076002E0564F076000BF00BF50
:101230004E4F08373F6807F0F0010909534F7A5CB9
:101240000768D7404760494F08373F6807F4E051C7
:10125000890A4E4F7A5C4768D7408760434F08370A
:101260003F6807F46041490B484F7A5C4768D740B4
:10127000C760F0BD002100F44072B2F5407F0AD192
:101280003A4A0832116821F4F811414A02401143E8
:10129000364A08321160354A70321268C0F30B03C7
:1012A0001A43324B70331A6070473549443908602D
:1012B00070473349403908607047364908607047C5
:1012C00001460020294A8C32106820F01F004A1E77
:1012D0001043264A8C321060704701460020234A92
:1012E0008C32106820F4F8504A1E40EA02201F4A4F
:1012F0008C3210607047014600201C4A8C32106806
:1013000020F4401008431060704701460020174A3F
:101310008C32106820F4400008431060704701468A
:101320000020124A8C32106820F4403008431060CC
:10133000704719490860704739B10C4A3032126859
:1013400002430A4B30331A6006E0084A3032126812
:101350008243064B30331A607047F9B1034A343286
:1013600012680243014B34331A601CE0003802401B
:10137000FFFFF6EA10300024003000200000474252
:10138000800E47420024F40000127A00140000206E
:10139000FFFCFF0F5C014742E0114742854A12689B
:1013A0008243844B1A60704739B1824A121D126819
:1013B0000243804B1B1D1A6006E07E4A121D126814
:1013C00082437C4B1B1D1A60704739B1794A0C323D
:1013D00012680243774B0C331A6006E0754A0C32F0
:1013E00012688243734B0C331A60704739B1714AEB
:1013F0001032126802436F4B10331A6006E06D4AD8
:101400001032126882436B4B10331A60704739B147
:10141000684A243A12680243664B243B1A6006E08D
:10142000644A243A12688243624B243B1A60704734
:1014300039B1604A203A126802435E4B203B1A6081
:1014400006E05C4A203A126882435A4B203B1A60FD
:10145000704739B1574A1C3A12680243554B1C3B3E
:101460001A6006E0534A1C3A12688243514B1C3BF7
:101470001A60704739B14F4A143A126802434D4B13
:10148000143B1A6006E04B4A143A12688243494BF7
:10149000143B1A60704739B1464A103A1268024349
:1014A000444B103B1A6006E0424A103A12688243ED
:1014B000404B103B1A60704739B13E4A1C321268EB
:1014C00002433C4B1C331A6006E03A4A1C32126855
:1014D0008243384B1C331A60704739B1354A203289
:1014E00012680243334B20331A6006E0314A20323F
:1014F000126882432F4B20331A60704739B12D4A4E
:101500002432126802432B4B24331A6006E0294A26
:10151000243212688243274B24331A60704739B152
:10152000244A2C3212680243224B2C331A6006E004
:10153000204A2C32126882431E4B2C331A607047AB
:1015400039B11C4A3032126802431A4B30331A60E8
:1015500006E0184A303212688243164B30331A6064
:10156000704739B1134A273A12780243114B273B8F
:101570001A7006E00F4A273A127882430D4B273B38
:101580001A7070470B484030006840F0807009497D
:1015900040310860704701460020064A283A126828
:1015A0000A4201D0012000E000207047014926399D
:1015B000087070473438024010B50446FA48844237
:1015C00008D101211020FFF766FF00211020FFF74E
:1015D00062FF57E0F548844209D101214804FFF732
:1015E00049FF00214FF40030FFF744FF4AE0F04884
:1015F000844209D101218804FFF73CFF00214FF408
:101600008020FFF737FF3DE0EA48844209D10121FD
:10161000C804FFF72FFF00214FF40020FFF72AFF37
:1016200030E0E548844209D101210805FFF722FF97
:1016300000214FF48010FFF71DFF23E0DF488442B4
:1016400008D101212020FFF726FF00212020FFF7ED
:1016500022FF17E0DA48844209D101218807FFF709
:1016600009FF00214FF08040FFF704FF0AE0D54852
:10167000844207D101214005FFF7FCFE00216005EF
:10168000FFF7F8FE10BD2DE9FF4705460E46002482
:10169000A14600BFA046B08900B100BF2C8A24F447
:1016A0004054F08804432C82AC8941F20C6084439E
:1016B000B08831890843718908430443AC81AC8AFE
:1016C00024F44074B0890443AC826846FFF763FD9C
:1016D000B548854202D0B948854202D1DDF80C9068
:1016E00001E0DDF80890A88910F4004F08D009EB5C
:1016F000C90000EB091031684900B0FBF1F707E0C1
:1017000009EBC90000EB091031688900B0FBF1F763
:101710006420B7FBF0F004012009642101FB10787C
:10172000A88910F4004F08D0322000EBC800B0FBAD
:10173000F1F000F00700044308E0322000EB08104D
:101740006421B0FBF1F000F00F0004432C81BDE8F0
:10175000FF874FF41651016000218180C180018113
:101760000C21418100218181704710B50246002083
:10177000108A20F470600B884C8823438C882343A4
:10178000CC8823431843108210BD00210180418082
:101790008180C180704721B1828942F400528281E8
:1017A00004E082894DF6FF731A4082817047028BF4
:1017B00002F47F420283028B0A430283704721B105
:1017C000828942F40042828103E08289C2F30E02E0
:1017D0008281704721B1828A42F40062828204E0F1
:1017E000828A4FF2FF731A4082827047C1F3080267
:1017F0008280704701468888C0F308007047028ADB
:101800004FF6F0731A400282028A0A43028270473E
:1018100021B1828942F00202828104E082894FF67E
:10182000FD731A408281704782894FF2FF731A401C
:10183000828182890A4382817047028A4FF6DF7370
:101840001A400282028A0A430282704721B1028A48
:1018500042F48042028204E0028A4BF6FF731A408F
:1018600002827047818941F001018181704721B175
:10187000828A42F00802828204E0828A4FF6F7737D
:101880001A4082827047028BD2B20283028B42EAF4
:1018900001220283704721B1828A42F020028282B3
:1018A00004E0828A4FF6DF731A408282704721B1CA
:1018B000828A42F01002828204E0828A4FF6EF733D
:1018C0001A4082827047828A4FF6FB731A408282E6
:1018D000828A0A438282704721B1828A42F00202E0
:1018E000828204E0828A4FF6FD731A40828270473A
:1018F0001AB1838A0B43838202E0838A8B438382FB
:101900007047F0B503460024002600250020A1F50D
:1019100010676A3F00D100BF1846C1F3421401F0BE
:101920001F06012707FA06F5012C01D10C3004E04F
:10193000022C01D1103000E014301AB107682F4397
:10194000076002E00768AF430760F0BD0246002071
:10195000B1F5007F00D100BF13880B4201D00120F8
:1019600000E00020704701F40072B2F5007F00D162
:1019700000BFCA430280704770B5024600240023AE
:1019800000250020A1F510666A3E00D100BFC1F31A
:10199000421501F01F03012606FA03F3012D13D1AE
:1019A0009689334017E000000010014000440040D9
:1019B00000480040004C004000500040001401402E
:1019C00000780040007C0040022D02D1168A33408E
:1019D00001E0968A33400C12012606FA04F41688B8
:1019E000344013B10CB1012000E0002070BD10B5EF
:1019F00000220023A1F510646A3C00D100BF0A1246
:101A000001249440A3B2DC43048010BD10B5012131
:101A10000807FFF7DAFC10BDFFF7F8FF00F03EF90A
:101A200000F002FA01F016FA00F068FB0DE000F099
:101A30004BF900F08BFB01F015FA01F029F800F0EA
:101A4000FFF900F07EFB00F078F9F0E730B54C06C6
:101A5000230E026803249C40A24301249C4022439D
:101A60000260446801258D40AC4344604568012410
:101A70008C40A4B22543456030BD30B54C06230EE2
:101A8000026803249C40A24301249C40224302603C
:101A9000446801258D40AC434460456800248C4077
:101AA000A4B22543456030BD426801238B409A4370
:101AB0004260426800238B409BB21A4342607047E9
:101AC00030B54C06230E026803249C40A243012437
:101AD0009C4022430260446801258D40AC43446031
:101AE000456800248C40A4B22543456030BD0122E6
:101AF0008A400283704701228A404283704770B552
:101B00004C06230E026803249C40A24300249C4000
:101B100022430260C4684E000325B540AC43C46054
:101B200070BD70B54C06230E026803249C40A2438E
:101B300000249C4022430260C4684E000325B54047
:101B4000AC43C460C4684E000125B5402C43C4605A
:101B500070BD10B50A465406230E016803249C404C
:101B6000A14303249C402143016010BD30B54C06C5
:101B7000230E026803249C40A24302249C4022437B
:101B80000260446801258D40AC43446045680024F0
:101B90008C40A4B22543456030BD704730B5044643
:101BA0000D460120A840208329462046FFF765FF07
:101BB0000120A840208330BD30B504460D460120E9
:101BC000A840608329462046FFF757FF0120A84020
:101BD000608330BD30B504460D460120A840208307
:101BE00029462046FFF732FF0120A840208330BD60
:101BF00030B504460D460120A840608329462046A2
:101C0000FFF724FF0120A840608330BD70B5044673
:101C10000E46012000FA06F56069284201D065836E
:101C200000E0258331462046FFF727FF70BD0246BE
:101C3000106901238B40184201D001207047002019
:101C4000FCE70246506901238B40184201D0012075
:101C500070470020FCE7F0B5002300244D07ED0E8F
:101C600002FA05F3CE1000F1200555F826504E0774
:101C7000F70E0F26BE40B543CF1000F1200646F800
:101C80002750CE1000F1200555F8265045EA0304F0
:101C9000CE1000F1200545F82640F0BD00204FF0A1
:101CA000E0218861564800684FF47A61B0FBF1F09A
:101CB000401E4FF0E0214861072008615148002193
:101CC00001604160018170474F480078A0B1002059
:101CD0004FF0E02108614B484B490A6802604A68AE
:101CE0004260098901814848002101604160018109
:101CF00007204FF0E021086142480079E0B14348F5
:101D00000088401C414908800846007810F0010F07
:101D100002D101203B4948713C48007810F0030F84
:101D200002D1012037498871384800880005000D2C
:101D300002D10120334948727047324800210160C6
:101D400041600181704732480078401C304908707A
:101D500008460078012800DC704700202C490870F4
:101D60002C480078401C2B4908702B480078401CF8
:101D70002949087029480078401C284908700846FD
:101D80000078C82813DB01201F49C87100202349AF
:101D9000087023480078401C2149087008460078E4
:101DA0000A2804DB002008700120174908721A482D
:101DB0000078142805DB01201349C870002016495B
:101DC00008701448007810F0030F17D101200E4955
:101DD000087014480078401C1249087008460078C2
:101DE00010F0030F02D10120074988700D480078D8
:101DF00010F0070F02D101200349087100BFABE7C3
:101E000000000020380000204200002024000020B4
:101E10002A000020260000202800002029000020A1
:101E20002B0000202700002010B50A48006840F071
:101E30002000084908600A210748FFF741FE10BD4D
:101E400010B50648007A18B10A210348FFF7DEFEF4
:101E500010BD00003038024000140240380000205D
:101E60001FB5044601211020FFF7C0FA009400209E
:101E7000ADF80400ADF80600ADF80800ADF80C00B0
:101E80000C20ADF80A006946DC48FFF7FCFB012294
:101E9000C021DA48FFF72CFD002240F22661D74826
:101EA000FFF72FFD002240F22551D448FFF729FD0E
:101EB000002240F22441D148FFF723FD0121CF4801
:101EC000FFF769FC1FBD1CB501210846FFF734FA76
:101ED0004FF40070009000208DF8060001208DF86E
:101EE000070002208DF804008DF805006946C448FB
:101EF000FEF784FF07220921C148FFF70AF84FF4D3
:101F0000806000906946BE48FEF778FF07220A21EC
:101F1000BB48FEF7FEFF1CBD10B50021B94B9B79F5
:101F200093B1B94B93F8263773B1B74B93F8263773
:101F30005B1EDCB2B44B83F8264793F826371BB9F7
:101F40000024B14BA3F82A47B04B93F81835002B67
:101F50007CD1AD4B93F82737002BF9D1B6E0AA4BD3
:101F60009B885B1EA84CA38023465B88C3F30902B1
:101F700023465B885B1C638004F22633985C23460F
:101F8000B3F82A374BB9552806D10023A04C23704B
:101F900001249D4BA3F82A4793E09B4BB3F82A37C3
:101FA000012B0DD1FF2804D10224974BA3F82A4717
:101FB00087E0552803D00024934BA3F82A4780E0FC
:101FC000914BB3F82A37032B12DC8F4BB3F82A3727
:101FD0009B1E8D4CA41DE05400248B4BA3F8284776
:101FE000B3F82A375B1C9CB2874BA3F82A4768E0FA
:101FF000854BB3F82A37052B29DC834BB3F82837F8
:102000004FF6FF7404EA03247F4BA3F82847B3F884
:10201000283703437C4CA4F828372346B3F82A37E3
:102020009B1EA41DE054A31FB3F82A375B1C9CB26F
:10203000754BA3F82A47B3F8283740F21B34A34264
:102040003FDB0024704BA3F82A473AE044E06E4B94
:10205000B3F82A379B1E6C4CA41DE054A31FB3F8A1
:102060002A375B1C9CB2684BA3F82A47B3F82A476F
:10207000B3F82837DB1D9C4223DB0024624BA3F816
:102080002A47634B1B7883421AD106245E4B83F8A0
:102090002C47B3F828375B1D9CB25B4BA3F828474D
:1020A0009B791902584BDB791943574BB3F82E37FC
:1020B0008B4205D00124544B83F82747A3F82E17F1
:1020C00009E0534B1B780344514C23704E4B9B88C3
:1020D000002B3FF744AF00BF10BD10B54FF4E661D1
:1020E000494801F001FC40F21A51484801F0FCFB5C
:1020F0004FF6FF714448A0F82E1710BD10B5FFF73A
:10210000ECFFFFF7E0FE4FF46130FFF7A9FE00207F
:1021100001F0EBF810BD10B53A48807980B13B482A
:1021200090F8190560B1394890F81905401EC1B200
:10213000364880F8191590F8190508B9FFF7DEFF41
:1021400010BD0021304880F82717704710B52F4880
:1021500090F8180538B101F0B5F8012803D1002135
:102160002A4880F8181501F0CFF8274B1B1D4FF4B3
:102170008062191F01F2263001F0C5F8FFF7CBFF8E
:10218000FFF7CAFE1F48C07990B11F4890F82C078E
:1021900070B11D4890F82C07401EC1B21A4880F853
:1021A0002C1790F82C0718B90021174880F827172A
:1021B00010BD10B5024600205523144C2371FF2496
:1021C000124B5C7114129C71DA710C121C725972F0
:1021D0008B1D0E4C2380C8240C4B83F8194500231B
:1021E0000A4C63800124094B83F8184510BD012077
:1021F000064991F8181501B90020704700100140F8
:1022000000000240380000204C0000207C07002025
:102210002C00002070B50446002002FB01F51D448F
:1022200034F9150070BD70B5049D02FB01F41C4427
:1022300020F8145070BD2DE9FF4F81B083460D4644
:102240004FF480563120009000210F46884600242C
:102250000EE021465846DDE90323FFF7DBFF25F8B2
:10226000140035F91400C71948EBE07804F10104B3
:10227000B442EEDB3246F3173846414601F010FB1C
:102280000746B946002408E035F914A0AAEB090A6C
:102290000FFA8AF025F81400641CB442F4DB05B090
:1022A000BDE8F08F2DE9FF4F82B00F4641F23109B2
:1022B00031200190002409E02146DDE90423029841
:1022C000FFF7A8FF27F81400601C84B24C45F3DB2D
:1022D000002437E000250198801E1FFA80FAA046EE
:1022E0004446A24500DDC246002609E0FE4830F81B
:1022F0001600A11B37F8111010FB0155701C86B297
:102300005645F3DB002D03DAA5F59855883D02E02C
:1023100041F28830054442F2107095FBF0F5B5F5B6
:10232000004F01DB47F6FF7515F5004F00DCEF4D60
:1023300028B200902146DDE904230298FFF773FFDD
:10234000601C84B24C45C5DB002411E004F131016E
:10235000DDE904230298FFF75DFF8346CDF800B066
:102360002146DDE904230298FFF75DFF601C84B27B
:10237000B4F5805FEADB06B0BDE8F08F2DE9F041EF
:1023800006460F461546002407E023462A463946EE
:102390003046FFF750FF601CC4B2AC42F5DBBDE82D
:1023A000F0812DE9F04105460E4617469846002477
:1023B0000EE043463A4621463046FFF72BFF00EE3B
:1023C000100AB8EEC00A05EB840080ED000A641C18
:1023D000B4F5805FEDDBBDE8F0810146002015E03B
:1023E00001EB8002D2ED000AB0EE600AB5EEC00A41
:1023F000F1EE10FA05D2DFEDBE0A70EEC00AB0EEC3
:10240000600A01EB800282ED000A401CB0F5805F9B
:10241000E6DB70472DE9F0412DED108B8AB00646C2
:102420000C4690461F469FEDB30AB0EE40FA9FED72
:10243000B20AF0EE40FA9FEDAE0A8DED080A9FED6C
:10244000AC0A8DED070A9FEDAB0AF0EE40AA9FEDB6
:10245000AA0AB0EE40BA9FEDA60AF0EE40EA9FED60
:10246000A40AB0EE40DA9FEDA20AB0EE408A9FEDDA
:10247000A00AF0EE40DA9FED9F0AB0EE40CA9FED51
:102480009E0AF0EE40CA9FED9A0A8DED040A9FED78
:10249000980A8DED060A9FED960A8DED050A002536
:1024A0005CE006EB8500D0ED000A00EE108AB8EE85
:1024B000C01A80EE810A30EE080AB0EE408A06EBC0
:1024C000850090ED000AB4EECF0AF1EE10FA05DDBA
:1024D00006EB850090ED000AB0EE40FA06EB8500B1
:1024E00090ED000AB4EEEF0AF1EE10FA05D206EB19
:1024F000850090ED000AF0EE40FA06EB8500D0ED85
:10250000000A9DED070A30EE800A8DED070A06EB02
:102510008500D0ED000A06EB850090ED001A9DEDD8
:10252000080A00EE810A8DED080AB4EEEA8AF1EE9F
:1025300010FA01DDF0EE48AAB4EECB8AF1EE10FA03
:1025400001D2B0EE48BA3DEE080AB0EE40DAB0EE85
:102550006E0A08EE080AF0EE40EA6D1CA542A0DB08
:102560009DED070A60EE000A00EE104AB8EEC00AC0
:1025700080EE801A9DED080A30EE410AF0EE408AA6
:1025800000EE104AB8EEC00AC8EE800AF0EE608A8B
:10259000F5EEC08AF1EE10FA02D2DFED55BA15E081
:1025A00018EE900A01F038FC41EC100B8DED000B99
:1025B0009DED000B01F0A1FA8DED020B9DED020BDC
:1025C00051EC100B01F0D6FA0BEE900A00EE104A17
:1025D000B8EEC00ACDEE000AF0EE60DA6DEE0D0A3C
:1025E00000EE104AB8EEC01A80EE810A3EEEC00A34
:1025F000F0EE408A00EE104AB8EEC00AC8EE800A3B
:10260000F0EE608AF5EEC08AF1EE10FA02D2DFED4C
:10261000389A15E018EE900A01F0FEFB41EC100B21
:102620008DED000B9DED000B01F067FA8DED020BB7
:102630009DED020B51EC100B01F09CFA09EE900A93
:102640003AEEED0AF0EE40AA3BEE6D0AB0EE40BA6B
:102650009FED2A0A2BEE000AB0EE40BA9FED270A42
:102660002AEE800AF0EE40AA9FED240A29EE800AA5
:10267000F0EE409A9FED1E0A8DED050A9FED1C0AB3
:10268000B0EE408A9FED1AEA002558E09FED1B0A44
:102690006DEE800A00EE108AB8EEC01A80EE810A54
:1026A00030EE0E0AB0EE40EA06EB850090ED000A2F
:1026B000DFED120A60EE200A00EE108AB8EEC01AB2
:1026C00080EE810A30EE080AB0EE408A00EE108AF1
:1026D000B8EEC00AC8EE000A9DED050A30EE800A89
:1026E0008DED050A0CE000000E3F00080180FFFFA1
:1026F0000000000000FF7FC700FF7F4700007A4412
:102700009DED050A30EE4E9AB4EECC9AF1EE10FA39
:1027100001DDB0EE49CAB4EEEC9AF1EE10FA01D246
:10272000F0EE49CA9DED060A30EE090A8DED060A63
:102730009DED040A09EE090A8DED040A6D1CA542FF
:10274000A4DB00BF00BF1FED130A2CEE800AF0EEE1
:1027500040CA1FED160A2CEE000AB0EE40CA9DEDED
:10276000060A60EE000A00EE104AB8EEC00A80EEDB
:10277000801A9DED040A30EE410AF0EE408A00EE28
:10278000104AB8EEC00AC8EE800AF0EE608AF5EE94
:10279000C08AF1EE10FA02D21FED2BAA15E018EE56
:1027A000900A01F039FB41EC100B8DED000B9DED13
:1027B000000B01F0A2F98DED020B9DED020B51EC27
:1027C000100B01F0D7F90AEE100A1FED340A2AEEB9
:1027D000000AB0EE40AA87ED01FAC7ED00FAC7ED96
:1027E00002BAC7ED04AA87ED03BAC7ED059A87EDD3
:1027F00007CAC7ED06CA87ED08AA0AB0BDEC108B60
:10280000BDE8F0812DE9F74F87B003460D461FED77
:10281000482AB0EE420A4FF0000ACDF818A0CDF8D1
:1028200014A04FF005094FF0640AB5FBFAF4002636
:10283000B246CDF804A01FED522AF0EE420A002065
:102840004EE003EB800A9AED002A32EE202AF0EEE9
:10285000420AA04239DBA0EB040A03EB8A0A9AED94
:10286000002A30EEC22AF0EE420A02EE104AB8EE1A
:10287000C22A80EE821AA0F1010A03EB8A0A9AEDBD
:10288000002AB4EEC12AF1EE10FA1ED203EB800A40
:102890009AED002AB4EEC12AF1EE10FA15DD0746D2
:1028A000DDF804A0BAF1010F0AD1DDF810A0A7EB02
:1028B0000A08FF2E04DCDFF8C0A14AF82680761C47
:1028C00004974FF0010ACDF804A0DDF80CA0A24552
:1028D00005DADDF80CA00AF1010ACDF80CA0401CC5
:1028E000DDF824A05045ACD3002200207BE04FF05F
:1028F000000ACDF800A000214DE0DFF87CA15AF8D5
:1029000020A001EB410BDFF874E15EF82BB0AAEBDD
:102910000B0A02EE10AAB8EEC22AF0EE421AF5EE49
:10292000C01AF1EE10FA05D21FED8F2A32EE612A9D
:10293000F0EE421AB1EE042AF4EEC21AF1EE10FAE9
:1029400028D201EB410ADFF834B10BEB8A0ADAF83E
:1029500008A0DFF824B15BF820B0DA4401EB410BAA
:10296000DFF818E10EEB8B0BCBF808A001EB410A66
:10297000F3460BEB8A0ADAF804A00AF1010A01EB2C
:10298000410B0EEB8B0BCBF804A04FF0010ACDF8F6
:1029900000A002E0491C9142AFDB00BFDDF800A0BF
:1029A000BAF1000F1ED1802A1CDADFF8CCA05AF849
:1029B00020A002EB420BDFF8C4E04EF82BA04FF052
:1029C000010A02EB420B0EEB8B0BCBF804A0DFF8F5
:1029D000A8A05AF820A002EB420B0EEB8B0BCBF811
:1029E00008A0521C401CB04281DB4FF0000ACDF819
:1029F00008A0D44600212CE001EB410ADFF87CB0AE
:102A00000BEB8A0ADAF804B0DDF808A0D3451FDD25
:102A100001EB410ADFF864B00BEB8A0ADAF804A094
:102A2000CDF808A001EB410A0BEB8A0ADAF808900E
:102A300001EB410A0BEB8A0ADAF804A009EB6A09F8
:102A400001EB410A0BEB8A0ADAF804A099FBFAFCC5
:102A5000491C9142D0DB02EE10CAF8EEC22A02EE07
:102A6000105AB8EE422A82EE823AB0EE430A0AB019
:102A7000BDE8F08F70470000980C002098100020EF
:102A800010B5E4217E4800F051FF00F0F9FE10BDC2
:102A900000B52DED028B81B079480078C8B978482F
:102AA000007A28B900F0E6F9012075490872E1E0E2
:102AB00000F0D9F90028FAD0002071490871C880C7
:102AC000062270497048FFF759FC01206C490870D4
:102AD000D0E06B480078012843D169480079062886
:102AE00003DB002066490870C4E0654803790622CC
:102AF00065496648FFF755FC6148007900EBC00165
:102B00005F480C3000EB81034FF4C8424FF4805112
:102B10005E48FFF77FFC4FF480524FF4C8415B489A
:102B2000FFF770FEB0EE408A5848FFF756FCB0EE53
:102B3000480A4FF480524FF4C8415448FFF79AFFB7
:102B40004FF48051514800F0ACFA4FF48051504896
:102B500000F0C8FA02204A49087000200872487242
:102B600088E047480078022870D14548007A00285C
:102B700054D14348407AA0B92420414900900A79B1
:102B8000097901EBC1033E490C3101EB83000623B7
:102B9000012100F0D7FB00286CD0012038490872D1
:102BA00068E03748407A01280ED14003009034484D
:102BB000027906230021344800F0C4FB002859D0D4
:102BC00001202F49087255E02D48407A02280ED185
:102BD000000300902A480279062302212B4800F0C6
:102BE000B1FB002846D001202549087242E0244864
:102BF000407A03280ED14FF400500090204802790B
:102C000006230321224800F09DFB78B301201C49D4
:102C100008722FE003201A4908702BE01848007A48
:102C2000012827D100F032FE00B31548407A401C3D
:102C3000134948720846407A042802DB03200870D2
:102C400018E000200E49087214E0FFE70C480078F5
:102C500003280FD10A480079401C09490871084629
:102C60000079062803DB00200872087002E00120CA
:102C70000349087000F07FFD01B0BDEC028B00BD80
:102C8000981600207C5700207C7700207C170020BD
:102C9000C83901208B48006840F004008949086069
:102CA00080208949088089480068C0088849B0FBAD
:102CB000F1F0401E844928310880012082491431F6
:102CC00008809C2080492C31086050207E4940318A
:102CD000086001207C49143108804FF4D0407A49C3
:102CE0001C3108804FF41040091D08807648008888
:102CF00040F0010074490880704710B58CB0012184
:102D00000846FEF719FB01210802FEF76FFB6D482C
:102D10001C38006840F480706A491C390860084615
:102D2000006820F480700860002412E003208DF811
:102D30002C00684800EBC40080880A9000208DF8C1
:102D40002F00644951F834000AA9FEF757F8601CB7
:102D5000C4B2062CEADB0020089006904FF4003045
:102D600007904FF47060099006A8FDF7F1FB002072
:102D7000009001208DF8040000208DF805004FF030
:102D8000106003904FF080500290002004900620C5
:102D90008DF8140069465048FDF7ABFB01214E4801
:102DA000FDF7F2FB002408E0601CC2B201232146BB
:102DB0004948FDF729FC601CC4B2062CF4DB012154
:102DC0004548FDF7CBFC01214348FDF7BCFC0CB0A6
:102DD00010BD00B58FB001218805FEF7ADFA394866
:102DE0003038006840F480003649303908600846C1
:102DF000006820F48000086000BF3848FDF7CFFE6F
:102E00000028FAD1009034484C30019034480290A8
:102E10000020039046F226100490002005904FF405
:102E200080600690400007908000089000010A90A2
:102E3000002009900B9001200C9000200D900E9026
:102E400069462648FDF724FE01212448FDF75AFE75
:102E50000FB000BD10B5FFF7BCFFFFF74EFFFFF747
:102E600019FF10BD704700201C49091D096801B9F0
:102E70000120704710B513483038006840F48000D6
:102E80001049303908600846006820F48000086066
:102E90000C481C38006840F480700A491C390860EE
:102EA0000846006820F4807008600748008820F019
:102EB000010005490880FFF78CFFFFF71EFFFFF7B1
:102EC000E9FE10BD4038024000080040000000202C
:102ED00040420F00703F0008002001401064024093
:102EE0007C770020A54B03EBC10393ED000A82ED34
:102EF000000AA24B03EBC10393ED010A82ED010A24
:102F000070472DE9F74F88B004460E46304606EB71
:102F1000D0714FEA61084FF0010923E0C1450FDA93
:102F200004EBC80103C9CDE9060104EBC80004EBBA
:102F3000C90206CA06C004EBC900DDE9061206C0D4
:102F4000304606EBD0714FEA610A06E0A8EB0A08AA
:102F500050460AEBD0714FEA610AC245F6DDD04413
:102F600009F10109B01E4845D8DA4FF0010B82E0A3
:102F7000834830F81B000190019800EBD071491094
:102F800000910120039070E00398401E0A99A1EB84
:102F90000B017B4A32F8111048430290029881B22B
:102FA00004AA3046FFF79EFF0398451E57E000989D
:102FB0002F1804EBC70090ED000ADDED040A20EEA7
:102FC000200A04EBC700D0ED010A9DED051A00EEC2
:102FD000C10A8DED060A04EBC70090ED000ADDED95
:102FE000050A20EE200A04EBC700D0ED010A9DED92
:102FF000041A00EE810A8DED070A04EBC50090ED7E
:10300000000ADDED060A30EE600A04EBC70080ED31
:10301000000A04EBC50090ED010ADDED070A30EE71
:10302000600A04EBC70080ED010A04EBC50090EDD7
:10303000000ADDED060A30EE200A04EBC50080ED43
:10304000000A04EBC50090ED010ADDED070A30EE41
:10305000200A04EBC50080ED010A01980544701EAA
:10306000A842A4DC0398401C03900099039888426E
:103070008ADD0BF1010B0A9883457FF779AF0BB01E
:10308000BDE8F08F3F4A02EBC00292ED010A81EDEC
:10309000010A3C4A02EBC00292ED000A81ED000AEF
:1030A000704770B505460E46002411E005EB84001C
:1030B00090ED000A334800EBC40080ED000A9FED5C
:1030C000320A304800EBC40080ED010A601C84B273
:1030D000B4F5805FEADB0C224FF480512948FFF7FA
:1030E00010FF70BD70B52DED068B06460D46002411
:1030F0003DE0244800EBC40090ED000A20EE000AF9
:10310000204800EBC400D0ED010A1E4800EBC400CB
:1031100090ED011A00EE810AB0EE408A18EE100A16
:1031200000F07AFE41EC100BB0EE40AAF0EE60AA7F
:1031300000F0E3FCB0EE409AF0EE609A51EC190B0F
:1031400000F018FD08EE100AB0EE000A68EE000A62
:1031500000EE105AB8EE400A80EE801AB0EE418AB6
:10316000084800EBC40080ED008A601C84B2B4F50E
:10317000805FBEDBBDEC068B70BD0000B03F000879
:10318000B0BF0008C83901200000000000B58FB0B2
:1031900001218805FEF7D0F800BF6448FDF7FFFC69
:1031A0000028FAD162496148FDF724FD60491839C9
:1031B0005E48FDF71FFD5E491C395C48FDF71AFDAE
:1031C0005B4910395948FDF715FD59491F395748D2
:1031D000FDF710FD4FF000600090564801905648F2
:1031E00002900020039080200490002005904FF46E
:1031F000806006900020079008904FF400300A90FD
:10320000002009900B9001200C9000200D900E9052
:1032100069464648FDF73CFC01214448FDF772FC35
:103220000FB000BD10B590B0044601218805FEF72F
:1032300083F800BF3D487830FDF7B1FC0028F9D194
:103240004FF020513948FDF7D5FC4FF00851374871
:10325000FDF7D0FC4FF004513448FDF7CBFC4FF0A4
:1032600010513248FDF7C6FC4FF001512F48FDF7D1
:10327000C1FC4FF0006001902E4802902F4803904F
:10328000402004900594002006904FF48060079041
:103290000020089009904FF400300B9000200A9015
:1032A0000C9001200D9000200E900F9001A91F4856
:1032B0007830FDF7EDFB01211C487830FDF722FC4A
:1032C00010B010BD00201E49497801B90120704797
:1032D00070B5044600252046FFF7A4FF0125012014
:1032E000174948700870284670BD10B50446144848
:1032F0000021016081808020114988800020488061
:10330000FFF744FF10BD70470D48407830B10748C3
:103310007C30006810B90020094948707047074A9E
:1033200002604FF480620A807047000040640240EF
:103330002000002004100140C8B9012048BA012033
:103340002E000020F0B50446059D0020FE4EB67A02
:1033500076B9FD4E31807460B2740026FA4FBE73A8
:103360003E810126BE723E46B58200263E77012090
:10337000F0BD2DE9FF4F86B00D46DDE91496DDF86E
:103380006080169C00200290A8F8000005908246FC
:10339000012A15D103200590CA4600200490B145AA
:1033A00003DDA9EB060080B204900498824501DD9C
:1033B000DDF810A0BAF1000F1CD10020059019E033
:1033C00017981638C0F34F0005904FF6FF7B05980D
:1033D0000BEA400A00200490B14503DDA9EB06008A
:1033E00080B204900498824501DDDDF810A04FEA18
:1033F0006A000590059818B900200AB0BDE8F08F62
:10340000002020700AB929202070012A01D12A2029
:103410002070022A01D12B202070032A01D12C20F8
:1034200020700321C9480088000AE070C74800786E
:103430002071C6480088401CDFF810B3ABF80000CC
:10344000100A6071A2711398E0714FEA192020727E
:1034500084F80990300AA072E6720C214FEA1A2013
:10346000605401F1010B04F80BA0891C2ABB002356
:1034700020E003EB660EDDF84CB009980EFB00B0BF
:10348000039003EB660BB24830F81B0087B2380A92
:10349000605401F1010B04F80B700298384480B2BB
:1034A0000290881C81B2B8F80000801CA8F80000C7
:1034B000581C83B205988342DBDB012A7DD1AC46E0
:1034C000DCED010ACDED010A9DF807006054481CAF
:1034D00081B29DF806006054481C81B29DF8050039
:1034E0006054481C81B29DF804006054481C81B2AD
:1034F000DCED000ACDED010A9DF807006054481C80
:1035000081B29DF806006054481C81B29DF8050008
:103510006054481C81B29DF804006054481C81B27C
:10352000DCED020ACDED010A9DF807006054481C4D
:1035300081B29DF806006054481C81B29DF80500D8
:103540006054481C81B29DF804006054481C81B24C
:10355000DCED040ACDED010A9DF807006054481C1B
:1035600081B29DF806006054481C81B29DF80500A8
:103570006054481C81B29DF804006054481C81B21C
:10358000DCED030ACDED010A9DF807006054481CEC
:1035900081B29DF806006054481C81B29DF8050078
:1035A0006054481C81B29DF804006054481C81B2EC
:1035B000DCED050ACDED010A00E060E09DF80700B2
:1035C0006054481C81B29DF806006054481C81B2CA
:1035D0009DF805006054481C81B29DF804006054B9
:1035E000481C81B2DCED070ACDED010A9DF8070009
:1035F0006054481C81B29DF806006054481C81B29A
:103600009DF805006054481C81B29DF80400605488
:10361000481C81B2DCED060ACDED010A9DF80700D9
:103620006054481C81B29DF806006054481C81B269
:103630009DF805006054481C81B29DF80400605458
:10364000481C81B2DCED080ACDED010A9DF80700A7
:103650006054481C81B29DF806006054481C81B239
:103660009DF805006054481C81B29DF80400605428
:10367000481C81B2B8F800002430A8F80000022AE3
:103680002DD1002328E003EB66000390039805EB9F
:10369000800090ED000A4FF6FF77DFED2E0AB4EEC2
:1036A000E00AF1EE10FA04D2FCEEC00A10EE900A25
:1036B00087B20298384480B20290380A605401F10F
:1036C000010B04F80B70881C81B2B8F80000801C54
:1036D000A8F80000581C83B205988342D3DB032A64
:1036E00031D100232CE003EB66000390039805EB37
:1036F000C00000900098D0ED000AB0EE600A4FF6CE
:10370000FF77DFED140AB4EEE00AF1EE10FA04D20E
:10371000FCEEC00A10EE900A87B20298384480B2DC
:103720000290380A605401F1010B04F80B70881CF8
:1037300081B2B8F80000801CA8F80000581C83B2C1
:1037400005988342CFDB07E048BE0120340000200B
:103750007C57002000FF7F4702980012605401F15F
:10376000010B029804F80B00881C81B2080A6070F3
:10377000A170084641E670B58AB04748007A40B16A
:103780004648008A002804DD4448008A401E434918
:1037900008824248807A002870D04048807A012808
:1037A0006CD13E48807B002843D1FFF78BFD002879
:1037B00064D008A909A8FFF7B2FD5520099908703F
:1037C000FF200999487007ABBDF82000001F80B2A8
:1037D0000999091D314A1289CDE90403CDE9022175
:1037E0002E48808A2D49897C2C4BCDE900101A88FF
:1037F0005968588B0623FFF7BCFD0446200A099937
:1038000088700999CC702CB90120244908770020D0
:10381000887233E0211D88B2FFF75AFDBDF81C0005
:103820001E49C882022088730020088208764876E4
:1038300024E01A48807B022820D100250026174862
:10384000008A50B91548407E401C14494876084605
:10385000407E012800DB012601251048007E08B1CA
:103860000126012555B136B10C4800890B49C98A9A
:1038700008440A4908810020084988730AB070BDCD
:1038800010B52021054800F051F810BD0020034973
:10389000097F01B1012070473800002048BE012097
:1038A00010B54C1084EA530404D54042C1F1000124
:1038B00038BF491E1B4204D55242C3F1000338BF32
:1038C0005B1E00F05DF814F0804F04D04042C1F15F
:1038D000000138BF491E14F0004F04D05242C3F11A
:1038E000000338BF5B1E10BD4FF000020429C0F07A
:1038F000128010F0030C00F01B80CCF1040CBCF122
:10390000020F18BF00F8012BA8BF20F8022BA1EB73
:103910000C0100F00DB85FEAC17C24BF00F8012B58
:1039200000F8012B48BF00F8012B70474FF0000250
:1039300000B5134694469646203922BFA0E80C50A5
:10394000A0E80C50B1F12001BFF4F7AF090728BF80
:10395000A0E80C5048BF0CC05DF804EB890028BFFC
:1039600040F8042B08BF704748BF20F8022B11F025
:10397000804F18BF00F8012B7047704770477047A1
:1039800053EA020C00F069802DE9F04B4FF000067D
:10399000002B1FBFB3FA83F503FA05F424FA05F6EA
:1039A0005E4012BF1643B2FA82F502FA05F4C5F181
:1039B00020051EBF22FA05FC44EA0C04203556EA15
:1039C000044C4FEA144418BF641C4FF000084FF039
:1039D0000009904271EB030C39D3002919BFB1FAE9
:1039E00081F701FA07F6B0FA80F700FA07F6C7F197
:1039F00020071EBF20FA07FC46EA0C062037B6FB5C
:103A0000F4FCA7EB0507103F07F01F0BCBF12006D6
:103A10000CFA0BFB2CFA06F644BFB3460026202F07
:103A2000A4BF5E464FF0000B5BEA060C08BF4FF0E8
:103A3000010B19EB0B09ABFB027C48EB0608C01B22
:103A400006FB02CC0BFB03CC71EB0C01C1E70B4670
:103A5000024641464846BDE8F08B13B54FF00000E2
:103A60004FF00001AFF30080BDE81C40704710B577
:103A700000F008F8006810BD10B5044600F002F828
:103A8000046010BD0048704768BE012000487047C0
:103A900068BE01207546FFF7F9FFAE46050069468E
:103AA000534620F00700854618B020B5FCF7CAFB46
:103AB000BDE820404FF000064FF000074FF000082F
:103AC0004FF0000B21F00701AC46ACE8C009ACE8B0
:103AD000C009ACE8C009ACE8C0098D46704704468F
:103AE000AFF300802046FCF798FB00000149182046
:103AF000ABBEFEE726000200704700B52DED048B3B
:103B0000B0EE408AF0EE608A83B051EC180B00F002
:103B1000B7F841EC190B19EE100A19EE901A8DED59
:103B2000009B002818BF0120084320F00040C0F18E
:103B30007F6000F1E040C00F14D018EE101A18EEAC
:103B4000900A8DED008B002918BF0121084320F059
:103B50000040C0F17F6000F1E040C00F04BF0120D1
:103B6000FFF78AFFB0EE490A03B0F0EE690ABDEC38
:103B7000048B00BD21F00042A2F16052B2F5801F1B
:103B800001F0004328BFD2F17F6C0BD95FEA001C23
:103B900043EAC20242EB507018BF704728BF20F0C2
:103BA00001007047B2F5801FBCBF184670474FEA4E
:103BB000410C1CF5001F02D2084600F0A3B970B5F5
:103BC00000F009F800000089FFF7F6BF4FF0004051
:103BD000A0F5800070470EF1020E2EF0030E5EF885
:103BE000046B364205D4012A43EB030515F5001F8B
:103BF00012D8012841EB010C1CF5001F0CD80ED186
:103C00004FEAD17C15F5001F0CEB4C0C0CF1020CAB
:103C100008BF4CEBD37C04E04FF0080C01E04FEA06
:103C2000D37C0CEB4C0526FA05F606F00706B6F138
:103C3000040C06D20EEB860CBDE870404CF0010C73
:103C40006047DFE80CF0090B02024FF000414FF033
:103C50000000A1F5002170BD19461046012851EB66
:103C6000010418BFD4F5001484BF002001F0004106
:103C700070BD0808A0F500114FEA3101704700003F
:103C80002DE9F04101F5801CBCF5001FC0F2A980B0
:103C90004FEA115C21EA0C510CF1FD0C41F480114A
:103CA0005FEA5C0C0CF5C07C01D34000494130A4B4
:103CB000890241EA905187028E0E0A0CA45D04FB32
:103CC00004F602FB06F6C6F14046A4FB0662F60DBA
:103CD00046EA422606FB06F4A4FB01235242C3F146
:103CE000404338BF5B1EA6FB02420024E6FB0324D0
:103CF000D20B42EA4446A6FB0623A1FB02E2A3FB49
:103D000007E4E3FB61426442C2F1404E38BFAEF1CA
:103D1000010EA6FB04234FF00002E6FB0E32A2FBCD
:103D200003463400E2FB6264A1FB06E6A4FB07E85D
:103D3000E4FB61687642C8F1405838BFA8F1010839
:103D4000A2FB06E4A3FB08E5E2FB6854A1FB05E641
:103D5000A7FB04E8E1FB648618F1200556F1000694
:103D6000A809A8F11B08B10908F03F08B8F10A0F2B
:103D700040EA86601CD901EB0C51BDE8F08100BF20
:103D8000FCF5EEE8E2DDD8D3CFCBC7C3C0BDB9B6F2
:103D9000B4B1AEACA9A7A5A3A19F9D9B9A989695F7
:103DA0009392908F8D8C8B8988878685848382817E
:103DB000A0FB006800FB01F208EB4208B8EB872883
:103DC00007D5341858EB0104D5D5401C51F100013A
:103DD000D1E7341A78EB0104CDD4401E71F1000113
:103DE000C9E75FEA4C0C5FEA9C5C0DD105D34FF04C
:103DF000000001F00041BDE8F081BDE8F04170B580
:103E0000FFF7E9FE6DDBFFBEBDE8F0414FF00000BB
:103E1000004970470000F87F43004FEAD30C4FEA97
:103E20003C0C43401FBF40070CF1605113F0FE4FA4
:103E300070471CF0006F03D100200CF00041704768
:103E40000CF0004343EA507010B540EACC0000F09B
:103E50000EF800BF000000924FEA0001FFF709BF13
:103E60004FF000414FF00000A1F5002170470EF126
:103E7000020E2EF0030E5EF8044B244204D44FEAE7
:103E80004102B2F17F4F11D84FEA4003B3F17F4FA7
:103E90000CD80ED14FEAD07CB2F17F4F0CEB4C0C1A
:103EA0000CF1020C08BF4CEBD17C04E04FF0080C85
:103EB00001E04FEAD17C0CEB4C0324FA03F404F04C
:103EC0000704B4F1040C06D20EEB840CBDE81040DC
:103ED0004CF0010C6047DFE80CF0070802024FF0DD
:103EE0000040A0F5800010BD0846420018BFD2F186
:103EF000807288BF00F0004010BD4FF04070E1EECE
:103F0000100A7047FF2141EAD050C00570470D00EC
:103F100006000400210001002C00290004006700B5
:103F2000E7FF2E0034005DFF5800FCFE1FFFB5FFC9
:103F30001CFDBAFF35FD84FCDA0025F7E904731B8C
:103F4000E90425F7DA0084FC35FDBAFF1CFDB5FF56
:103F50001FFFFCFE58005DFF34002E00E7FF6700E6
:103F6000040029002C0001002100040006000D00BF
:103F700000000240010001000000024002000200B7
:103F8000000002400400030000000240080004009A
:103F90000000024010000500000002402000060062
:103FA00000000240400007000000024080000800BE
:103FB0000000803F00000000ECFF7F3FD50FC93AB2
:103FC000B1FF7F3FC60F493B4EFF7F3FC1CB963BC2
:103FD000C4FE7F3F880FC93B13FE7F3F3053FB3B3E
:103FE00039FD7F3F58CB163C39FC7F3F02ED2F3C1B
:103FF00011FB7F3F900E493CC1F97F3FFF2F623C90
:104000004AF87F3F4B517B3CACF67F3F38398A3CC6
:10401000E6F47F3FB6C9963CF8F27F3F1C5AA33CBA
:10402000E3F07F3F69EAAF3CA7EE7F3F9B7ABC3C61
:1040300043EC7F3FB00AC93CB8E97F3FA69AD53C24
:1040400005E77F3F7A2AE23C2BE47F3F2CBAEE3C27
:1040500029E17F3FBA49FB3C00DE7F3F90EC033D06
:10406000AFDA7F3F2F340A3D37D77F3FB87B103D13
:1040700097D37F3F2CC3163DD1CF7F3F880A1D3D8C
:10408000E2CB7F3FCB51233DCCC77F3FF698293D04
:104090008FC37F3F07E02F3D2ABF7F3FFC26363D81
:1040A0009EBA7F3FD56D3C3DEAB57F3F91B4423D1E
:1040B0000FB17F3F30FB483D0DAC7F3FAF414F3DDF
:1040C000E3A67F3F0E88553D91A17F3F4CCE5B3DDF
:1040D000189C7F3F6914623D78967F3F625A683D25
:1040E000B1907F3F38A06E3DC28A7F3FE9E5743DC5
:1040F000AB847F3F742B7B3D6D7E7F3F6CB8803DF2
:1041000008787F3F0ADB833D7B717F3F94FD863DCE
:10411000C76A7F3F0A208A3DEC637F3F6A428D3D3C
:10412000E95C7F3FB464903DBF557F3FE786933D98
:104130006D4E7F3F05A9963DF4467F3F0ACB993DE2
:10414000543F7F3FF9EC9C3D8C377F3FCF0EA03D25
:104150009D2F7F3F8C30A33D87277F3F3052A63D68
:10416000491F7F3FBA73A93DE4167F3F2B95AC3DB5
:10417000580E7F3F80B6AF3DA4057F3FBBD7B23D11
:10418000C9FC7E3FDAF8B53DC7F37E3FDD19B93D86
:104190009DEA7E3FC33ABC3D4CE17E3F8D5BBF3D17
:1041A000D4D77E3F397CC23D34CE7E3FC69CC53DD0
:1041B0006DC47E3F36BDC83D7FBA7E3F86DDCB3DB8
:1041C00069B07E3FB7FDCE3D2DA67E3FC81DD23DD6
:1041D000C99B7E3FB93DD53D3D917E3F895DD83D30
:1041E0008B867E3F377DDB3DB17B7E3FC49CDE3DD1
:1041F000B0707E3F2EBCE13D88657E3F76DBE43DBE
:10420000385A7E3F9AFAE73DC14E7E3F9A19EB3D00
:1042100023437E3F7638EE3D5E377E3F2E57F13D9D
:10422000722B7E3FC075F43D5E1F7E3F2C94F73DA0
:1042300024137E3F73B2FA3DC2067E3F92D0FD3D0D
:1042400038FA7D3F4577003E88ED7D3F2E06023EE1
:10425000B1E07D3F0295033EB2D37D3FC223053ED0
:104260008CC67D3F6EB2063E40B97D3F0541083E9B
:10427000CCAB7D3F86CF093E309E7D3FF35D0B3E4C
:104280006E907D3F4AEC0C3E85827D3F8B7A0E3EE0
:1042900074747D3FB708103E3D667D3FCC96113E5D
:1042A000DE577D3FCA24133E59497D3FB2B2143ECA
:1042B000AC3A7D3F8340163ED82B7D3F3DCE173E26
:1042C000DD1C7D3FE05B193EBC0D7D3F6BE91A3E76
:1042D00073FE7C3FDE761C3E03EF7C3F38041E3EBF
:1042E0006CDF7C3F7B911F3EAECF7C3FA51E213E05
:1042F000C9BF7C3FB6AB223EBDAF7C3FAD38243E4C
:104300008A9F7C3F8CC5253E318F7C3F5152273E92
:10431000B07E7C3FFCDE283E086E7C3F8D6B2A3EE3
:104320003A5D7C3F04F82B3E444C7C3F61842D3E3B
:10433000283B7C3FA2102F3EE5297C3FC99C303EA4
:104340007A187C3FD428323EE9067C3FC4B4333E21
:1043500031F57B3F9840353E53E37B3F50CC363EB2
:104360004DD17B3FEC57383E20BF7B3F6CE3393E5D
:10437000CDAC7B3FCF6E3B3E539A7B3F15FA3C3E24
:10438000B2877B3F3E853E3EEA747B3F4910403E0C
:10439000FC617B3F379B413EE74E7B3F0726433E18
:1043A000AB3B7B3FB9B0443E48287B3F4D3B463E4C
:1043B000BE147B3FC2C5473E0E017B3F1850493EAD
:1043C00037ED7A3F4FDA4A3E3AD97A3F67644C3E3E
:1043D00016C57A3F60EE4D3ECBB07A3F38784F3EFF
:1043E000599C7A3FF101513EC1877A3F898B523EF9
:1043F00002737A3F0115543E1C5E7A3F589E553E2B
:1044000010497A3F8F27573EDD337A3FA4B0583E9C
:10441000841E7A3F97395A3E04097A3F6AC25B3E4E
:104420005EF3793F1A4B5D3E91DD793FA8D35E3E46
:104430009DC7793F135C603E83B1793F5CE4613E88
:10444000439B793F836C633EDC84793F86F4643E12
:104450004E6E793F667C663E9A57793F2204683EED
:10446000C040793FBA8B693EBF29793F2F136B3E1D
:104470009812793F7F9A6C3E4AFB783FAB216E3EA3
:10448000D6E3783FB2A86F3E3BCC783F942F713E85
:104490007BB4783F51B6723E939C783FE83C743EC3
:1044A0008684783F5AC3753E526C783FA649773E62
:1044B000F853783FCCCF783E773B783FCB557A3E68
:1044C000D122783FA4DB7B3E040A783F56617D3ED3
:1044D00010F1773FE1E67E3EF7D7773F2236803E08
:1044E000B7BE773FC0F8803E51A5773F4ABB813EBB
:1044F000C58B773FC07D823E1372773F2240833E5B
:104500003A58773F7002843E3C3E773FAAC4843ECF
:104510001724773FCE86853ECC09773FDF48863E1D
:104520005BEF763FDA0A873EC4D4763FC1CC873E44
:1045300007BA763F938E883E249F763F5050893E3F
:104540001B84763FF7118A3EEC68763F8AD38A3E19
:10455000974D763F07958B3E1B32763F6E568C3ECD
:104560007A16763FC0178D3EB3FA753FFCD88D3E64
:10457000C6DE753F229A8E3EB3C2753F325B8F3ED8
:104580007BA6753F2C1C903E1C8A753F10DD903E2B
:10459000976D753FDD9D913EED50753F945E923E67
:1045A0001D34753F351F933E2717753FBFDF933E80
:1045B0000BFA743F31A0943EC9DC743F8D60953E88
:1045C00062BF743FD220963ED5A1743F00E1963E73
:1045D0002284743F17A1973E4966743F1661983E46
:1045E0004B48743FFE20993E272A743FCEE0993E07
:1045F000DD0B743F86A09A3E6EED733F27609B3EB5
:10460000D9CE733FAF1F9C3E1FB0733F20DF9C3E4F
:104610003F91733F789E9D3E3972733FB85D9E3ED9
:104620000E53733FDF1C9F3EBE33733FEEDB9F3E56
:104630004714733FE59AA03EACF4723FC259A13EC5
:10464000EBD4723F8718A23E04B5723F33D7A23E27
:10465000F894723FC595A33EC774723F3F54A43E81
:104660007054723F9F12A53EF433723FE5D0A53ED1
:104670005213723F128FA63E8CF2713F254DA73E1A
:104680009FD1713F1F0BA83E8EB0713FFEC8A83E60
:10469000578F713FC486A93EFB6D713F6F44AA3EA0
:1046A0007A4C713F0102AB3ED42A713F77BFAB3EDB
:1046B0000809713FD47CAC3E17E7703F153AAD3E18
:1046C00001C5703F3CF7AD3EC6A2703F49B4AE3E57
:1046D0006680703F3A71AF3EE15D703F102EB03E94
:1046E000373B703FCBEAB03E6718703F6BA7B13ED7
:1046F00073F56F3FEF63B23E5AD26F3F5820B33E1F
:104700001BAF6F3FA5DCB33EB88B6F3FD698B43E6E
:1047100030686F3FEC54B53E83446F3FE610B63EC1
:10472000B0206F3FC3CCB63EBAFC6E3F8488B73E24
:104730009ED86E3F2A44B83E5DB46E3FB2FFB83E8D
:10474000F88F6E3F1EBBB93E6D6B6E3F6E76BA3E04
:10475000BE466E3FA031BB3EEB216E3FB6ECBB3E8A
:10476000F2FC6D3FAFA7BC3ED5D76D3F8B62BD3E1F
:1047700093B26D3F4A1DBE3E2D8D6D3FEBD7BE3EC1
:10478000A1676D3F6F92BF3EF2416D3FD54CC03E79
:104790001D1C6D3F1E07C13E24F66C3F48C1C13E43
:1047A00007D06C3F557BC23EC5A96C3F4435C33E24
:1047B0005E836C3F15EFC33ED45C6C3FC8A8C43E1B
:1047C00024366C3F5C62C53E500F6C3FD21BC63E28
:1047D00058E86B3F29D5C63E3BC16B3F628EC73E52
:1047E000FB996B3F7C47C83E95726B3F7700C93E93
:1047F0000C4B6B3F53B9C93E5E236B3F1072CA3EF0
:104800008CFB6A3FAE2ACB3E95D36A3F2CE3CB3E6E
:104810007BAB6A3F8B9BCC3E3C836A3FCA53CD3E09
:10482000D95A6A3FEA0BCE3E52326A3FEAC3CE3EC5
:10483000A7096A3FCA7BCF3ED7E0693F8A33D03EA3
:10484000E4B7693F2AEBD03ECC8E693FAAA2D13EA5
:104850009165693F095AD23E323C693F4811D33EC7
:10486000AE12693F67C8D33E07E9683F647FD43E14
:104870003CBF683F4136D53E4C95683FFDECD53E88
:10488000396B683F99A3D63E0341683F135AD73E20
:10489000A816683F6B10D83E29EC673FA3C6D83EE8
:1048A00087C1673FB97CD93EC196673FAD32DA3EDA
:1048B000D86B673F80E8DA3ECA40673F319EDB3EF7
:1048C0009915673FC153DC3E45EA663F2E09DD3E40
:1048D000CCBE663F79BEDD3E3093663FA273DE3EBE
:1048E0007167663FA928DF3E8E3B663F8DDDDF3E68
:1048F000880F663F4F92E03E5EE3653FEE46E13E45
:1049000010B7653F6AFBE13EA08A653FC4AFE23E57
:104910000B5E653FFA63E33E5431653F0E18E43E9B
:104920007904653FFECBE43E7BD7643FCB7FE53E19
:1049300059AA643F7533E63E147D643FFBE6E63ECC
:10494000AC4F643F5D9AE73E2122643F9C4DE83EB8
:1049500073F4633FB700E93EA1C6633FAEB3E93EDF
:10496000AC98633F8166EA3E956A633F3019EB3E3F
:104970005A3C633FBBCBEB3EFC0D633F217EEC3EDC
:104980007BDF623F6330ED3ED7B0623F80E2ED3EB9
:104990001082623F7994EE3E2653623F4C46EF3ED2
:1049A0001A24623FFBF7EF3EEAF4613F85A9F03E2F
:1049B00098C5613FEA5AF13E2296613F290CF23ECA
:1049C0008A66613F43BDF23ED036613F386EF33EAA
:1049D000F206613F071FF43EF2D6603FB1CFF43ECE
:1049E000CFA6603F3580F53E8976603F9330F63E36
:1049F0002146603FCBE0F63E9615603FDC90F73EE7
:104A0000E9E45F3FC840F83E19B45F3F8EF0F83EDE
:104A100027835F3F2DA0F93E12525F3FA54FFA3E1C
:104A2000DB205F3FF7FEFA3E81EF5E3F22AEFB3EAA
:104A300005BE5E3F275DFC3E678C5E3F040CFD3E7D
:104A4000A65A5E3FBBBAFD3EC3285E3F4A69FE3EA2
:104A5000BEF65D3FB217FF3E97C45D3FF3C5FF3E14
:104A60004D925D3F063A003FE15F5D3FFF90003FA2
:104A7000532D5D3FE4E7003FA3FA5C3FB53E013FA5
:104A8000D1C75C3F7395013FDD945C3F1CEC013F57
:104A9000C7615C3FB142023F8E2E5C3F3299023FBC
:104AA00034FB5B3F9FEF023FB8C75B3FF845033FD6
:104AB0001A945B3F3D9C033F5A605B3F6DF2033F9E
:104AC000792C5B3F8948043F75F85A3F919E043F1B
:104AD00050C45A3F84F4043F09905A3F624A053F4C
:104AE000A05B5A3F2CA0053F16275A3FE2F5053F31
:104AF0006AF2593F824B063F9CBD593F0EA1063FCB
:104B0000AD88593F86F6063F9C53593FE84B073F17
:104B10006A1E593F36A1073F16E9583F6FF6073F17
:104B2000A1B3583F924B083F0B7E583FA1A0083FCE
:104B30005348583F9BF5083F7912583F7F4A093F39
:104B40007FDC573F4E9F093F63A6573F09F4093F5B
:104B50002670573FAD480A3FC739573F3D9D0A3F32
:104B60004803573FB7F10A3FA7CC563F1C460B3FBF
:104B7000E595563F6B9A0B3F025F563FA5EE0B3F04
:104B8000FE27563FC9420C3FD9F0553FD7960C3F00
:104B900093B9553FD0EA0C3F2C82553FB33E0D3FB1
:104BA000A44A553F81920D3FFB12553F38E60D3F19
:104BB00031DB543FDA390E3F47A3543F658D0E3F3A
:104BC0003B6B543FDBE00E3F0F33543F3B340F3F12
:104BD000C3FA533F84870F3F55C2533FB8DA0F3FA4
:104BE000C789533FD52D103F1851533FDC80103FEC
:104BF0004918533FCDD3103F59DF523FA726113FED
:104C000049A6523F6B79113F186D523F19CC113FA5
:104C1000C633523FB01E123F54FA513F3071123F1B
:104C2000C2C0513F9AC3123F1087513FEE15133F48
:104C30003D4D513F2A68133F4A13513F50BA133F2D
:104C400037D9503F5F0C143F039F503F585E143FCD
:104C5000AF64503F39B0143F3B2A503F0402153F28
:104C6000A8EF4F3FB753153FF4B44F3F54A5153F3E
:104C70001F7A4F3FD9F6153F2B3F4F3F4748163F0E
:104C800017044F3F9F99163FE4C84E3FDEEA163F98
:104C9000908D4E3F073C173F1C524E3F188D173FDB
:104CA00089164E3F12DE173FD5DA4D3FF52E183FDD
:104CB000029F4D3FC07F183F10634D3F73D0183F98
:104CC000FD264D3F0F21193FCBEA4C3F9471193F10
:104CD00079AE4C3F00C2193F08724C3F55121A3F43
:104CE00078354C3F93621A3FC7F84B3FB8B21A3F32
:104CF000F8BB4B3FC6021B3F097F4B3FBB521B3FDC
:104D0000FA414B3F99A21B3FCC044B3F5FF21B3F44
:104D10007FC74A3F0C421C3F138A4A3FA2911C3F67
:104D2000874C4A3F1FE11C3FDC0E4A3F84301D3F49
:104D300012D1493FD17F1D3F2993493F06CF1D3FE7
:104D40002155493F221E1E3FFA16493F266D1E3F40
:104D5000B3D8483F12BC1E3F4E9A483FE50A1F3F5A
:104D6000CA5B483F9F591F3F271D483F41A81F3F2F
:104D700065DE473FCBF61F3F849F473F3B45203FC3
:104D80008560473F9393203F6721473FD2E1203F13
:104D90002AE2463FF92F213FCEA2463F067E213F21
:104DA0005463463FFBCB213FBB23463FD719223FED
:104DB00003E4453F9967223F2DA4453F43B5223F79
:104DC0003964453FD302233F2624453F4B50233FC0
:104DD000F5E3443FA99D233FA5A3443FEEEA233FCB
:104DE0003763443F1A38243FAB22443F2C85243F8D
:104DF00000E2433F25D2243F38A1433F041F253F13
:104E00005160433FCB6B253F4C1F433F77B8253F55
:104E100029DE423F0A05263FE89C423F8451263F57
:104E2000895B423FE39D263F0B1A423F2AEA263F19
:104E300070D8413F5636273FB796413F6882273F9B
:104E4000E154413F61CE273FEC12413F401A283FD9
:104E5000DAD0403F0566283FA98E403FB0B1283FD9
:104E60005C4C403F41FD283FF009403FB848293F96
:104E700067C73F3F1594293FC0843F3F57DF293F15
:104E8000FC413F3F802A2A3F1BFF3E3F8E752A3F51
:104E90001BBC3E3F82C02A3FFF783E3F5B0B2B3F4F
:104EA000C5353E3F1B562B3F6EF23D3FBFA02B3F0B
:104EB000F9AE3D3F4AEB2B3F676B3D3FB9352C3F89
:104EC000B8273D3F0F802C3FECE33C3F49CA2C3FC5
:104ED00003A03C3F69142D3FFC5B3C3F6F5E2D3FC0
:104EE000D9173C3F59A82D3F98D33B3F29F22D3F7E
:104EF0003B8F3B3FDE3B2E3FC14A3B3F78852E3FF9
:104F000029063B3FF7CE2E3F75C13A3F5B182F3F36
:104F1000A47C3A3FA5612F3FB7373A3FD3AA2F3F32
:104F2000ACF2393FE6F32F3F85AD393FDE3C303FF1
:104F30004268393FBB85303FE122393F7CCE303F6C
:104F400065DD383F2217313FCB97383FAD5F313FAA
:104F50001652383F1DA8313F430C383F71F0313FA6
:104F600055C6373FAA38323F4A80373FC780323F65
:104F7000233A373FC9C8323FDFF3363FAF10333FE4
:104F80007FAD363F7A58333F0467363F29A0333F21
:104F90006C20363FBCE7333FB8D9353F342F343F20
:104FA000E792353F8F76343FFB4B353FCFBD343FE3
:104FB000F304353FF304353FCFBD343FFB4B353F62
:104FC0008F76343FE792353F342F343FB8D9353FA1
:104FD000BCE7333F6C20363F29A0333F0467363FA0
:104FE0007A58333F7FAD363FAF10333FDFF3363F64
:104FF000C9C8323F233A373FC780323F4A80373FE4
:10500000AA38323F55C6373F71F0313F430C383F25
:105010001DA8313F1652383FAD5F313FCB97383F27
:105020002217313F65DD383F7CCE303FE122393FEA
:10503000BB85303F4268393FDE3C303F85AD393F6C
:10504000E6F32F3FACF2393FD3AA2F3FB7373A3FB1
:10505000A5612F3FA47C3A3F5B182F3F75C13A3FB3
:10506000F7CE2E3F29063B3F78852E3FC14A3B3F76
:10507000DE3B2E3F3B8F3B3F29F22D3F98D33B3FFA
:1050800059A82D3FD9173C3F6F5E2D3FFC5B3C3F3D
:1050900069142D3F03A03C3F49CA2C3FECE33C3F41
:1050A0000F802C3FB8273D3FB9352C3F676B3D3F04
:1050B0004AEB2B3FF9AE3D3FBFA02B3F6EF23D3F89
:1050C0001B562B3FC5353E3F5B0B2B3FFF783E3FCA
:1050D00082C02A3F1BBC3E3F8E752A3F1BFF3E3FCE
:1050E000802A2A3FFC413F3F57DF293FC0843F3F92
:1050F0001594293F67C73F3FB848293FF009403F13
:1051000041FD283F5C4C403FB0B1283FA98E403F55
:105110000566283FDAD0403F401A283FEC12413F55
:1051200061CE273FE154413F6882273FB796413F18
:105130005636273F70D8413F2AEA263F0B1A423F96
:10514000E39D263F895B423F8451263FE89C423FD6
:105150000A05263F29DE423F77B8253F4C1F433FD3
:10516000CB6B253F5160433F041F253F38A1433F90
:1051700025D2243F00E2433F2C85243FAB22443F0D
:105180001A38243F3763443FEEEA233FA5A3443F48
:10519000A99D233FF5E3443F4B50233F2624453F41
:1051A000D302233F3964453F43B5223F2DA4453FF9
:1051B0009967223F03E4453FD719223FBB23463F6F
:1051C000FBCB213F5463463F067E213FCEA2463FA4
:1051D000F92F213F2AE2463FD2E1203F6721473F96
:1051E0009393203F8560473F3B45203F849F473F47
:1051F000CBF61F3F65DE473F41A81F3F271D483FB5
:105200009F591F3FCA5B483FE50A1F3F4E9A483FE0
:1052100012BC1E3FB3D8483F266D1E3FFA16493FC9
:10522000221E1E3F2155493F06CF1D3F2993493F6E
:10523000D17F1D3F12D1493F84301D3FDC0E4A3FD4
:105240001FE11C3F874C4A3FA2911C3F138A4A3FF3
:105250000C421C3F7FC74A3F5FF21B3FCC044B3FD1
:1052600099A21B3FFA414B3FBB521B3F097F4B3F6B
:10527000C6021B3FF8BB4B3FB8B21A3FC7F84B3FC3
:1052800093621A3F78354C3F55121A3F08724C3FD3
:1052900000C2193F79AE4C3F9471193FCBEA4C3FA5
:1052A0000F21193FFD264D3F73D0183F10634D3F2E
:1052B000C07F183F029F4D3FF52E183FD5DA4D3F76
:1052C00012DE173F89164E3F188D173F1C524E3F76
:1052D000073C173F908D4E3FDEEA163FE4C84E3F35
:1052E0009F99163F17044F3F4748163F2B3F4F3FAC
:1052F000D9F6153F1F7A4F3F54A5153FF4B44F3FE1
:10530000B753153FA8EF4F3F0402153F3B2A503FCC
:1053100039B0143FAF64503F585E143F039F503F75
:105320005F0C143F37D9503F50BA133F4A13513FD7
:105330002A68133F3D4D513FEE15133F1087513FF3
:105340009AC3123FC2C0513F3071123F54FA513FCD
:10535000B01E123FC633523F19CC113F186D523F59
:105360006B79113F49A6523FA726113F59DF523FA3
:10537000CDD3103F4918533FDC80103F1851533FA5
:10538000D52D103FC789533FB8DA0F3F55C2533F61
:1053900084870F3FC3FA533F3B340F3F0F33543FD3
:1053A000DBE00E3F3B6B543F658D0E3F47A3543F00
:1053B000DA390E3F31DB543F38E60D3FFB12553FE3
:1053C00081920D3FA44A553FB33E0D3F2C82553F7D
:1053D000D0EA0C3F93B9553FD7960C3FD9F0553FD3
:1053E000C9420C3FFE27563FA5EE0B3F025F563FDA
:1053F0006B9A0B3FE595563F1C460B3FA7CC563F9B
:10540000B7F10A3F4803573F3D9D0A3FC739573F11
:10541000AD480A3F2670573F09F4093F63A6573F3E
:105420004E9F093F7FDC573F7F4A093F7912583F23
:105430009BF5083F5348583FA1A0083F0B7E583FBB
:10544000924B083FA1B3583F6FF6073F16E9583F0C
:1054500036A1073F6A1E593FE84B073F9C53593F0F
:1054600086F6063FAD88593F0EA1063F9CBD593FC9
:10547000824B063F6AF2593FE2F5053F16275A3F35
:105480002CA0053FA05B5A3F624A053F09905A3F56
:1054900084F4043F50C45A3F919E043F75F85A3F2C
:1054A0008948043F792C5B3F6DF2033F5A605B3FB4
:1054B0003D9C033F1A945B3FF845033FB8C75B3FF1
:1054C0009FEF023F34FB5B3F3299023F8E2E5C3FE1
:1054D000B142023FC7615C3F1CEC013FDD945C3F81
:1054E0007395013FD1C75C3FB53E013FA3FA5C3FD6
:1054F000E4E7003F532D5D3FFF90003FE15F5D3FDC
:10550000063A003F4D925D3FF3C5FF3E97C45D3FB5
:10551000B217FF3EBEF65D3F4A69FE3EC3285E3FBE
:10552000BBBAFD3EA65A5E3F040CFD3E678C5E3F53
:10553000275DFC3E05BE5E3F22AEFB3E81EF5E3F37
:10554000F7FEFA3EDB205F3FA54FFA3E12525F3F67
:105550002DA0F93E27835F3F8EF0F83E19B45F3FE0
:10556000C840F83EE9E45F3FDC90F73E9615603FA7
:10557000CBE0F63E2146603F9330F63E8976603FB1
:105580003580F53ECFA6603FB1CFF43EF2D6603F06
:10559000071FF43EF206613F386EF33ED036613F9E
:1055A00043BDF23E8A66613F290CF23E2296613F7E
:1055B000EA5AF13E98C5613F85A9F03EEAF4613FA1
:1055C000FBF7EF3E1A24623F4C46EF3E2653623F04
:1055D0007994EE3E1082623F80E2ED3ED7B0623FAA
:1055E0006330ED3E7BDF623F217EEC3EFC0D633F8E
:1055F000BBCBEB3E5A3C633F3019EB3E956A633FB1
:105600008166EA3EAC98633FAEB3E93EA1C6633F14
:10561000B700E93E73F4633F9C4DE83E2122643FAE
:105620005D9AE73EAC4F643FFBE6E63E147D643F87
:105630007533E63E59AA643FCB7FE53E7BD7643F96
:10564000FECBE43E7904653F0E18E43E5431653FDD
:10565000FA63E33E0B5E653FC4AFE23EA08A653F5E
:105660006AFBE13E10B7653FEE46E13E5EE3653F13
:105670004F92E03E880F663F8DDDDF3E8E3B663FFA
:10568000A928DF3E7167663FA273DE3E3093663F16
:1056900079BEDD3ECCBE663F2E09DD3E45EA663F63
:1056A000C153DC3E9915673F319EDB3ECA40673FE0
:1056B00080E8DA3ED86B673FAD32DA3EC196673F8D
:1056C000B97CD93E87C1673FA3C6D83E29EC673F66
:1056D0006B10D83EA816683F135AD73E0341683F67
:1056E00099A3D63E396B683FFDECD53E4C95683F9B
:1056F0004136D53E3CBF683F647FD43E07E9683FF2
:1057000067C8D33EAE12693F4811D33E323C693F71
:10571000095AD23E9165693FAAA2D13ECC8E693F1B
:105720002AEBD03EE4B7693F8A33D03ED7E0693FE9
:10573000CA7BCF3EA7096A3FEAC3CE3E52326A3FD8
:10574000EA0BCE3ED95A6A3FCA53CD3E3C836A3FEC
:105750008B9BCC3E7BAB6A3F2CE3CB3E95D36A3F21
:10576000AE2ACB3E8CFB6A3F1072CA3E5E236B3F73
:1057700053B9C93E0C4B6B3F7700C93E95726B3FE6
:105780007C47C83EFB996B3F628EC73E3BC16B3F77
:1057900029D5C63E58E86B3FD21BC63E500F6C3F22
:1057A0005C62C53E24366C3FC8A8C43ED45C6C3FE6
:1057B00015EFC33E5E836C3F4435C33EC5A96C3FC5
:1057C000557BC23E07D06C3F48C1C13E24F66C3FBA
:1057D0001E07C13E1D1C6D3FD54CC03EF2416D3FC2
:1057E0006F92BF3EA1676D3FEBD7BE3E2D8D6D3FE3
:1057F0004A1DBE3E93B26D3F8B62BD3ED5D76D3F15
:10580000AFA7BC3EF2FC6D3FB6ECBB3EEB216E3F5A
:10581000A031BB3EBE466E3F6E76BA3E6D6B6E3FAC
:105820001EBBB93EF88F6E3FB2FFB83E5DB46E3F0F
:105830002A44B83E9ED86E3F8488B73EBAFC6E3F7D
:10584000C3CCB63EB0206F3FE610B63E83446F3FF8
:10585000EC54B53E30686F3FD698B43EB88B6F3F7E
:10586000A5DCB33E1BAF6F3F5820B33E5AD26F3F0B
:10587000EF63B23E73F56F3F6BA7B13E6718703FA1
:10588000CBEAB03E373B703F102EB03EE15D703F3B
:105890003A71AF3E6680703F49B4AE3EC6A2703FDB
:1058A0003CF7AD3E01C5703F153AAD3E17E7703F7E
:1058B000D47CAC3E0809713F77BFAB3ED42A713F20
:1058C0000102AB3E7A4C713F6F44AA3EFB6D713FC3
:1058D000C486A93E578F713FFEC8A83E8EB0713F67
:1058E0001F0BA83E9FD1713F254DA73E8CF2713F03
:1058F000128FA63E5213723FE5D0A53EF433723F9D
:105900009F12A53E7054723F3F54A43EC774723F2D
:10591000C595A33EF894723F33D7A23E04B5723FBB
:105920008718A23EEBD4723FC259A13EACF4723F3D
:10593000E59AA03E4714733FEEDB9F3EBE33733FB4
:10594000DF1C9F3E0E53733FB85D9E3E3972733F1E
:10595000789E9D3E3F91733F20DF9C3E1FB0733F7A
:10596000AF1F9C3ED9CE733F27609B3E6EED733FC9
:1059700086A09A3EDD0B743FCEE0993E272A743F05
:10598000FE20993E4B48743F1661983E4966743F2D
:1059900017A1973E2284743F00E1963ED5A1743F43
:1059A000D220963E62BF743F8D60953EC9DC743F45
:1059B00031A0943E0BFA743FBFDF933E2717753F2B
:1059C000351F933E1D34753F945E923EED50753FFA
:1059D000DD9D913E976D753F10DD903E1C8A753FB1
:1059E0002C1C903E7BA6753F325B8F3EB3C2753F49
:1059F000229A8E3EC6DE753FFCD88D3EB3FA753FC7
:105A0000C0178D3E7A16763F6E568C3E1B32763F1F
:105A100007958B3E974D763F8AD38A3EEC68763F5A
:105A2000F7118A3E1B84763F5050893E249F763F73
:105A3000938E883E07BA763FC1CC873EC4D4763F6A
:105A4000DA0A873E5BEF763FDF48863ECC09773F38
:105A5000CE86853E1724773FAAC4843E3C3E773FDE
:105A60007002843E3A58773F2240833E1372773F5C
:105A7000C07D823EC58B773F4ABB813E51A5773FB3
:105A8000C0F8803EB7BE773F2236803EF7D7773FDB
:105A9000E1E67E3E10F1773F56617D3E040A783F95
:105AA000A4DB7B3ED122783FCB557A3E773B783FD3
:105AB000CCCF783EF853783FA649773E526C783F7A
:105AC0005AC3753E8684783FE83C743E939C783F89
:105AD00051B6723E7BB4783F942F713E3BCC783FF9
