:020000040800F2
:1000000088F4012029020008690200086B02000838
:100010008F02000893020008970200080000000009
:100020000000000000000000000000009B0200082B
:100030009D020008000000009F02000883230008C2
:10004000430200084302000843020008430200087C
:10005000430200084302000843020008430200086C
:10006000430200084302000843020008430200085C
:10007000430200084302000843020008430200084C
:10008000430200084302000843020008430200083C
:10009000430200084302000843020008430200082C
:1000A000430200084302000843020008430200081C
:1000B000430200084302000843020008430200080C
:1000C00043020008430200084302000843020008FC
:1000D00043020008430200084302000843020008EC
:1000E00043020008430200084302000843020008DC
:1000F00043020008430200084302000843020008CC
:1001000043020008430200084302000843020008BB
:1001100043020008430200084302000843020008AB
:10012000430200084302000843020008430200089B
:10013000430200084302000843020008430200088B
:10014000430200084302000843020008430200087B
:10015000430200084302000843020008430200086B
:10016000430200084302000843020008430200085B
:10017000430200084302000843020008430200084B
:10018000430200084302000800F002F800F03CF8C7
:100190000AA090E8000C82448344AAF10107DA45E2
:1001A00001D100F031F8AFF2090EBAE80F0013F0F8
:1001B000010F18BFFB1A43F001031847B86701008D
:1001C000D8670100103A24BF78C878C1FAD852071E
:1001D00024BF30C830C144BF04680C6070470000C1
:1001E0000023002400250026103A28BF78C1FBD840
:1001F000520728BF30C148BF0B6070471FB506F0DB
:1002000046FA1FBD10B510BD05F062FC1146FFF7A0
:10021000F5FF01F00FFF05F080FC03B4FFF7F2FFDC
:1002200003BC05F081FC00000948804709480047ED
:10023000FEE7FEE7FEE7FEE7FEE7FEE7FEE7FEE796
:10024000FEE7FEE704480549054A064B70470000F3
:10025000AB0300088901000888EE012088F4012022
:1002600088F0012088F0012070470DA100200AE0ED
:100270000A5C164B9A8000BF144A128812F0400F95
:10028000FAD0421CD0B22A28F2D300BFFEE700BF4A
:10029000FEE700BFFEE700BFFEE77047704770470C
:1002A0000D0A456E74657220486172644661756C12
:1002B000745F48616E646C65722C20537973746549
:1002C0006D2048616C742E0D0A0000000010014082
:1002D0000CB50020019000907548006840F4803013
:1002E0007349086000BF7248006800F40030009055
:1002F0000198401C0190009818B90198B0F5A04FE2
:10030000F1D16B48006810F4003F02D0012000904A
:1003100001E0002000900098012845D16448403059
:10032000006840F0805062494031086061480068D0
:1003300040F440405F4908605D48083000685C490F
:10034000083108600846006840F40040086008462C
:10035000006840F4A05008605748091F0860081F53
:10036000006840F08070091F086000BF50480068B6
:1003700010F0007FFAD040F20570504908604C48F8
:100380000830006820F00300494908310860084639
:10039000006840F00200086000BF4548083000686F
:1003A00000F00C000828F8D10CBD10B544480068D6
:1003B00040F47000424908603D48006840F0010088
:1003C0003B49086000203A49083108603848006815
:1003D0003C490840364908603B48091D0860081F31
:1003E000006820F48020091F0860002030490C318B
:1003F0000860FFF76DFF4FF00060314980390860F9
:1004000010BD70B500200022022300240221284DD7
:1004100008352D6805F00C0020B1042806D0082806
:1004200034D107E0294D2A4E356033E0294D284E5E
:1004300035602FE01E4D2D1D2D68C5F380541C4DD9
:100440002D1D2D6805F03F0154B1224DB5FBF1F58E
:10045000174E361D3668C6F3881605FB06F209E00E
:100460001A4DB5FBF1F5124E361D3668C6F38816E7
:1004700005FB06F20E4D2D1D2D68C5F301456D1CC3
:100480006B00B2FBF3F5124E356003E00F4D104EDA
:10049000356000BF00BF064D08352D68C5F3031554
:1004A0000D4E705D0A4D2D68C540094E356070BD1A
:1004B000003802400070004008544007003C0240F1
:1004C00088ED00E0FFFFF6FE103000240024F40069
:1004D0000000002000127A000400002010B5012165
:1004E000080201F0E6FA00214FF4807001F0E1FA11
:1004F00010BD30B50246002000235068F84C204063
:100500000D790C6844EA0524204350609068F54C4E
:100510002040D1E903542C438D682C434D7944EAA3
:10052000450420439060D06A20F470000C7D641E66
:10053000E4B2234340EA0350D06230BD00210160A1
:10054000017141718160C1600161012101757047D4
:100550000021E54A1168E54A01EA0201D0E90023D9
:1005600042EA0302836842EA0302C36842EA0302E2
:1005700042EA0101DE4AC2F804137047002101601B
:1005800041608160C160704721B1826842F0010220
:10059000826003E0826822F00102826070470A46AE
:1005A00000214168D34B19401143416070474162BB
:1005B000826270470A460021416821F01F01114301
:1005C0004160704738B1C849096841F40001C84A20
:1005D000C2F8041306E0C449096821F40001C44AC2
:1005E000C2F80413704738B1BF49096841F480016B
:1005F000BF4AC2F8041306E0BB49096821F4800130
:10060000BB4AC2F804137047F0B504460D460020FB
:100610000021092D11DDE068A5F10A0606EB460769
:10062000072606FA07F18843A5F10A0606EB4606F7
:1006300003FA06F10843E0600CE0206905EB45078A
:10064000072606FA07F1884305EB450603FA06F18B
:1006500008432061072A0FDA606B561E06EB8607F7
:100660001F2606FA07F18843561E06EB860605FA92
:1006700006F10843606322E00D2A0FDA206BD61FD3
:1006800006EB86071F2606FA07F18843D61F06EBFE
:10069000860605FA06F10843206310E0E06AA2F13D
:1006A0000D0606EB86071F2606FA07F18843A2F11E
:1006B0000D0606EB860605FA06F10843E062F0BD7A
:1006C000816841F0804181607047014600208A685E
:1006D00012F0804F01D0012000E00020704721B1CE
:1006E000826842F48062826003E0826822F4806261
:1006F0008260704721B1826842F00202826003E0AA
:10070000826822F002028260704710B50A4600211A
:100710000023416821F46041531E41EA43314160A6
:1007200010BD21B1426842F40062426003E04268B9
:1007300022F40062426070470146C86C80B2704784
:100740006D480068704721B1826842F4807282600F
:1007500003E0826822F480728260704721B182686F
:1007600042F40072826003E0826822F400728260C8
:10077000704738B15C49096841F400515C4AC2F8DD
:10078000041306E05849096821F40051584AC2F898
:1007900004137047F0B504461546002000220026D9
:1007A000092911DDE068A1F10A0707EB470C0727CB
:1007B00007FA0CF29043A1F10A0707EB470703FA87
:1007C00007F21043E0600CE0206901EB410C0727C1
:1007D00007FA0CF2904301EB410703FA07F21043CA
:1007E0002061A06BC0F30156EF1C06F1010CA7EBD2
:1007F0000C0707EB870C1F2707FA0CF29043EF1C3E
:1008000006F1010CA7EB0C0707EB870701FA07F2CB
:100810001043A063F0BD10B50A4600210023816B90
:1008200021F44011531E41EA0351816310BD08B504
:10083000002300930090009B0B440093009B1A60E0
:1008400008BD0A460021816821F4702111438160AE
:1008500070470A460021816821F4401111438160EC
:100860007047816841F48001816070470146002033
:100870008A6812F4800F01D0012000E00020704748
:1008800021B1426842F48062426003E0426822F48F
:1008900080624260704721B1426842F480524260F7
:1008A00003E0426822F480524260704708B5024675
:1008B00000200090009201F12800009B1844009055
:1008C0000098006880B208BD10B50B460021D9B26F
:1008D000012404FA01F18AB144680C43446010E039
:1008E000FFFEFFFCFDF7FFC004230140E030FCFFEA
:1008F00000200140FFFD3FFF0823014044688C4376
:10090000446010BD0246002013680B4201D0012054
:1009100000E000207047CA430260704770B502468D
:100920000020002300240B12556801268E4005EAA2
:10093000060415681D4202D00CB1012000E0002021
:1009400070BD00220A12D34303607047016821F092
:10095000010101600021016041608160C1600161AD
:1009600021214161DA49884204D13D21D84A103A17
:1009700091608CE0D6491831884205D14FF47461FA
:10098000D34A103A916082E0D1493031884205D192
:100990004FF47411CE4A103A916078E0CC49483156
:1009A000884205D14FF07461C94A103A91606EE0F7
:1009B000C7496031884204D1C649C54A103AD1605E
:1009C00065E0C3497831884204D1C349C04A103A2E
:1009D000D1605CE0BE499031884204D1BF49BC4A35
:1009E000103AD16053E0BA49A831884205D14FF09E
:1009F0003D51B74A103AD16049E0B949884204D123
:100A00003D21B74A083A116041E0B54918318842A2
:100A100005D14FF47461B24A083A116037E0B04929
:100A20003031884205D14FF47411AD4A083A116053
:100A30002DE0AB494831884205D14FF07461A84A96
:100A4000083A116023E0A6496031884204D1A149E7
:100A5000A34A121F11601AE0A1497831884204D1DB
:100A60009D499F4A121F116011E09D4990318842B3
:100A700004D19A499A4A121F116008E09849A83196
:100A8000884204D14FF03D51954A121F11607047C2
:100A900010B500220268934B1A40CC680B682343C0
:100AA0004C6923438C692343CC6923430C6A234359
:100AB0004C6A23438C6A23434C6B23438C6B234344
:100AC0001A430260426922F00702D1E90B34234342
:100AD0001A4342610B6943604B6883608B68C36053
:100AE00010BD0021016041608160C1600161416110
:100AF0008161C161016241628162C16201634163DE
:100B00008163704721B1026842F00102026003E094
:100B1000026822F001020260704721B1026842F4CB
:100B20000042026003E0026822F400420260704763
:100B300021B1026842F02002026003E0026822F064
:100B4000200202607047416070470146486880B2E9
:100B5000704722B1036843F40023036003E0036895
:100B600023F4002303600161704721B1026842F45D
:100B70008022026003E0026822F480220260704753
:100B80000AB1016100E0C1607047014600200A68B7
:100B900012F4002F01D0012000E000207047014630
:100BA00000200A6812F0010F01D0012000E00020AF
:100BB0007047014600204A6902F03800704730B59E
:100BC00003460A4600200024454DAB4202D240496C
:100BD000103901E04249103912F0005F01D04C6831
:100BE00000E00C68404D2C40144201D0012000E090
:100BF000002030BD02463A4B9A4202D234481038A7
:100C000001E03748103811F0005F03D0364B0B403D
:100C1000C36002E0344B0B408360704710B511F0A5
:100C2000800F09D022B1436943F08003436103E0A0
:100C3000436923F08003436180290BD02AB1036804
:100C400001F01E042343036004E0036801F01E0466
:100C5000A343036010BD70B50246002000240025A8
:100C60001F4EB24202D21A4B103B01E01C4B103B0C
:100C70001E4E314206D01E2606EAD124166806EA28
:100C8000040502E0566906F0800511F0005F01D00E
:100C90005C6800E01C68144E34400C4202D00DB178
:100CA000012000E0002070BD02460D4B9A4202D2A6
:100CB0000748103801E00A48103811F0005F03D0EF
:100CC000094B0B40C36002E0074B0B408360704749
:100CD000106002403D000020400F002000003D2039
:100CE000106402403F801CF07D0F7D0F3C0F3C0FD5
:100CF00030B943F2DB014FF0204242F8201005E00A
:100D000043F2D2014FF0204242F820106FF07042BF
:100D1000411C4FF0204343F8212011461A4602EBB4
:100D20008002C2F804117047D0E901121143C26871
:100D30001143026911434269114382691143C26937
:100D40001143026A1143426A1143826A1143C26A23
:100D50001143026B11434FF02043026843F8221005
:100D60008168082908D11A46016852F8211041F01B
:100D70004001026843F82210416B0968426B5268D7
:100D800041EA0211426B926841EA0221426B928968
:100D900041EA0241426B128A41EA0251426B127DE2
:100DA00041EA0261426B926911430268521C4FF0A2
:100DB000204343F82210C16AB1F5804F1AD1816BEC
:100DC0000968826B526841EA0211826B926841EABB
:100DD0000221826B128A41EA0251826B127D41EA42
:100DE0000261826B92691143026803EB8202C2F8CE
:100DF000041108E06FF070414FF02043026803EBEC
:100E00008202C2F804117047002101600221416092
:100E100000218160C160016141618161C161016244
:100E20004FF480514162490081620021C162016337
:100E30000F21426B1160426B5160FF21426B916048
:100E40000F21426BD160426B1161426B51610021F5
:100E5000426B91610F21826B1160826B5160FF21A7
:100E6000826B91600F21826BD160826B1161826B0A
:100E700051610021826B9161704751B14FF0204266
:100E800052F8202042F001024FF0204343F8202086
:100E900009E04FF0204252F82020F84B1A404FF062
:100EA000204343F82020704710280AD118214FF022
:100EB00020421166402151664FF0FC319166D166A7
:100EC00010E01821EE4A11604FF040014FF020422F
:100ED000C2F884104FF0FC31EA4A11604FF0204212
:100EE000C2F88C10704730B50021002200234468FE
:100EF00044F0080485682C43C5682C4305692C43DD
:100F0000456944EA4524856944EA4531C469246851
:100F1000C5696D6844EA0524C5692D8944EA05441C
:100F2000C5692D7B44EA0562046A2468056A6D6818
:100F300044EA0524056A2D8944EA0544056A2D7BA7
:100F400044EA05630468102C05D14FF02044216663
:100F5000A266E36607E0CA4C21604FF02044C4F863
:100F60008820C94C236030BD102101600021416000
:100F70008160C160016141618161FC21C2691160D0
:100F8000C2695160C2699160C269D160026A116030
:100F9000026A5160026A9160026AD160704799B139
:100FA000102808D14FF02042126E42F004024FF098
:100FB00020431A661DE0B24A126842F004024FF064
:100FC0002043C3F8802014E0102809D14FF02042BC
:100FD000126EAA4BDB1E1A404FF020431A6608E03F
:100FE000A74A1268A94B02EA03024FF02043C3F854
:100FF0008020704799B1102808D14FF02042126E1E
:1010000042F040024FF020431A661DE09C4A1268ED
:1010100042F040024FF02043C3F8802014E0102833
:1010200009D14FF02042126E984B3C3B1A404FF0D2
:1010300020431A6608E0924A1268954B02EA0302BE
:101040004FF02043C3F8802070470146002010294C
:1010500003D14FF02042506F01E08E4A1068704774
:1010600018208D4908604FF000004FF02041C1F872
:10107000A4004FF0FC308949086001F104010860C8
:1010800001F1040108607047016841F010014268F5
:1010900041EA4221826841EA42317F4A1160C168D7
:1010A0000968C268526841EA0221C268128941EAAD
:1010B0000241C268127B41EA0261784A116001690B
:1010C00009680269526841EA02210269128941EA0B
:1010D00002410269127B41EA0261714A1160416971
:1010E00009684269526841EA02214269128941EA6B
:1010F00002414269127B41EA02614FF02042C2F88C
:10110000B01070470021016041608160FC21C2681D
:101110001160C2685160C2689160C268D1600269A2
:10112000116002695160026991600269D16042698F
:10113000116042695160426991604269D1607047B3
:1011400040B15549096841F004014FF02042C2F80E
:10115000A01008E0504909684C4A01EA02014FF02A
:101160002042C2F8A010704710B5F2B1102807D184
:101170004FF020435B6E0B434FF02044636632E038
:10118000B0F5807F08D1474B1B6843EA01034FF05D
:101190002044C4F8843026E0434B1B6843EA010333
:1011A0004FF02044C4F8A4301DE0102807D14FF0C0
:1011B00020435B6E8B434FF02044636613E0B0F531
:1011C000807F08D1374B1B6823EA01034FF020448E
:1011D000C4F8843007E0344B1B6823EA01034FF066
:1011E0002044C4F8A43010BD10B5024600200023EE
:1011F000102A03D14FF02044636E07E0B2F5807FE0
:1012000002D1284C236801E0274C23680B4201D00F
:10121000012000E0002010BD102807D14FF020422F
:10122000526E8A434FF020435A6613E0B0F5807F38
:1012300008D11C4A126822EA01024FF02043C3F889
:10124000842007E0184A126822EA01024FF0204386
:10125000C3F8A420704770B5024600200023002484
:101260000025102A03D14FF02046736E20E0B2F51E
:10127000807F1BD10B4E33681AE00000FEFF0F0089
:10128000800000A0880000A08C0000A0FBFF0F00E1
:10129000BFFF0F00940000A0A00000A0A80000A0C5
:1012A000AC0000A0840000A0A40000A0154E33688C
:1012B00003EA010403EAD10514B10DB1012000E0F5
:1012C000002070BD102808D14FF02042526E22EA53
:1012D000D1024FF020435A6613E0B0F5807F08D169
:1012E000094A126822EAD1024FF02043C3F8842051
:1012F00007E0044A126822EAD1024FF02043C3F803
:10130000A4207047A40000A0840000A010B50446EB
:101310009848844208D10121084600F086FB00214C
:10132000012000F082FB76E09348844208D101213D
:10133000022000F07AFB0021022000F076FB6AE038
:101340008E48844208D10121042000F06EFB002168
:10135000042000F06AFB5EE08948844208D1012144
:10136000082000F062FB0021082000F05EFB52E044
:101370008448844208D10121102000F056FB00214E
:10138000102000F052FB46E07F48844208D1012142
:10139000202000F04AFB0021202000F046FB3AE02C
:1013A0007A48844208D10121402000F03EFB002110
:1013B000402000F03AFB2EE07548844208D101211C
:1013C000802000F032FB0021802000F02EFB22E084
:1013D0007048844208D10121801500F026FB0021CD
:1013E000A01500F022FB16E06B48844208D10121D1
:1013F000401500F01AFB0021601500F016FB0AE012
:101400006648844207D10121001500F00EFB00213F
:10141000201500F00AFB10BDF0B50A46002100239C
:10142000002400BF3DE0012505FA01F3156805EA37
:1014300003049C4234D105684F000326BE40B543E7
:10144000056015794E00B54006683543056015798D
:10145000012D02D01579022D16D185684F00032683
:10146000BE40B543856055794E00B540866835432A
:101470008560456801268E40B5434560456896798C
:101480008E40B6B235434560C5684F000326BE4066
:10149000B543C560D5794E00B540C6683543C560D3
:1014A000491C1029BFD3F0BD4FF6FF710160002128
:1014B000017141718171C171704708B54FF480327B
:1014C0000092009A0A430092009AC261C161009A98
:1014D000C261C2690092C269009208BD0246002042
:1014E00013690B4201D0012000E000207047014643
:1014F000086980B270470246002053690B4201D050
:10150000012000E0002070470146486980B2704722
:1015100001837047418370470AB1018300E0418332
:1015200070474161704742694A4042617047F0B577
:10153000002300244D07ED0E02FA05F3CE1000F152
:10154000200555F826504E07F70E0F26BE40B5432E
:10155000CF1000F1200646F82750CE1000F12005EC
:1015600055F8265045EA0304CE1000F1200545F851
:101570002640F0BD00000240000402400008024086
:10158000000C02400010024000140240001802400B
:10159000001C0240002002400024024000280240BB
:1015A000F948006840F00100F74908600020F6495A
:1015B00008310860F4480068F4490840F2490860BE
:1015C000F348091D0860F348EF4984310860F0488A
:1015D0001038091D0860EC48006820F48020EA49B2
:1015E00008600020E8490C310860E7498C31086048
:1015F00070470021E44A921C117011460870704730
:1016000010B501460022002300204A11012A02D110
:10161000DD4C236808E0022A03D1DB4C70342368D8
:1016200002E0D94C7434236801F01F020124944075
:101630001C4201D0012000E0002010BD38B5002080
:1016400000900024002500BF3120FFF7D9FF054698
:101650000098401C00900098B0F5A04F01D0002DDC
:10166000F2D03120FFF7CCFF08B1012400E00024C4
:10167000204638BD01460020C34A106820F0F8001B
:1016800040EAC10010607047C349086070470021FC
:10169000BD4A703211701170012802D004280AD19D
:1016A00004E00121B84A7032117005E00521B64A04
:1016B0007032117000E000BF00BF7047B74908608A
:1016C000704770B5049C41EA82150126C6EB5306AB
:1016D00045EA0645054345EA0465AB4E361D3560CF
:1016E00070BDAD4908667047820142EA0172A64B9F
:1016F00084331A607047A8498866704710B5830123
:1017000043EA016343EA02739F4C8834236010BDAF
:10171000A14908677047A049C86470470246002085
:10172000994B0833186820F0EC6042EA0103184333
:10173000954B08331860704702460020924B0833DF
:10174000186820F0784042EA010318438E4B0833B2
:1017500018607047014600208B4A0832106820F05C
:10176000030008431060704787480830006800F0A5
:101770000C00704701460020834A0832106820F0B0
:10178000F000084310607047014600207E4A08328E
:10179000106820F4E05008431060704701460020B4
:1017A000794A0832106820F4604040EAC1001060B5
:1017B0007047F0B5002100220024022500260223F4
:1017C000714F08373F6807F00C0121B1042905D09B
:1017D000082937D105E0724F076036E0714F076086
:1017E00033E0694F3F1D3F68C7F38056664F3F1D8A
:1017F0003F6807F03F036EB16A4FB7FBF3F7DFF8BE
:1018000088C10CF1040CDCF800C0CCF3881C07FB89
:101810000CF40CE0624FB7FBF3F7DFF86CC10CF18E
:10182000040CDCF800C0CCF3881C07FB0CF4564F0A
:101830003F1D3F68C7F301477F1C7D00B4FBF5F7F0
:10184000076002E0564F076000BF00BF4E4F0837E9
:101850003F6807F0F0010909534F7A5C0768D740E9
:101860004760494F08373F6807F4E051890A4E4FF7
:101870007A5C4768D7408760434F08373F6807F472
:101880006041490B484F7A5C4768D740C760F0BD5C
:10189000002100F44072B2F5407F0AD13A4A083282
:1018A000116821F4F811414A02401143364A0832C6
:1018B0001160354A70321268C0F30B031A43324B81
:1018C00070331A60704735494439086070473349AE
:1018D000403908607047364908607047014600206B
:1018E000294A8C32106820F01F004A1E1043264AF5
:1018F0008C321060704701460020234A8C321068F9
:1019000020F4F8504A1E40EA02201F4A8C32106030
:101910007047014600201C4A8C32106820F44010A9
:1019200008431060704701460020174A8C32106847
:1019300020F4400008431060704701460020124A1E
:101940008C32106820F44030084310607047194909
:101950000860704739B10C4A3032126802430A4BB2
:1019600030331A6006E0084A303212688243064B70
:1019700030331A607047F9B1034A343212680243B7
:10198000014B34331A601CE000380240FFFFF6EAD6
:10199000103000240030002000004742800E4742F3
:1019A0000024F40000127A0014000020FFFCFF0F56
:1019B0005C014742E0114742854A12688243844BEA
:1019C0001A60704739B1824A121D12680243804B77
:1019D0001B1D1A6006E07E4A121D126882437C4B72
:1019E0001B1D1A60704739B1794A0C3212680243E4
:1019F000774B0C331A6006E0754A0C32126882434A
:101A0000734B0C331A60704739B1714A1032126847
:101A100002436F4B10331A6006E06D4A10321268B1
:101A200082436B4B10331A60704739B1684A243ACD
:101A300012680243664B243B1A6006E0644A243A6B
:101A400012688243624B243B1A60704739B1604A86
:101A5000203A126802435E4B203B1A6006E05C4A63
:101A6000203A126882435A4B203B1A60704739B1C2
:101A7000574A1C3A12680243554B1C3B1A6006E059
:101A8000534A1C3A12688243514B1C3B1A60704700
:101A900039B14F4A143A126802434D4B143B1A6055
:101AA00006E04B4A143A12688243494B143B1A60D1
:101AB000704739B1464A103A12680243444B103B12
:101AC0001A6006E0424A103A12688243404B103BCB
:101AD0001A60704739B13E4A1C32126802433C4BCF
:101AE0001C331A6006E03A4A1C3212688243384BB3
:101AF0001C331A60704739B1354A203212680243EC
:101B0000334B20331A6006E0314A20321268824398
:101B10002F4B20331A60704739B12D4A2432126896
:101B200002432B4B24331A6006E0294A2432126800
:101B30008243274B24331A60704739B1244A2C3230
:101B400012680243224B2C331A6006E0204A2C32E2
:101B5000126882431E4B2C331A60704739B11C4AFD
:101B60003032126802431A4B30331A6006E0184ACA
:101B7000303212688243164B30331A60704739B1E5
:101B8000134A273A12780243114B273B1A7006E09A
:101B90000F4A273A127882430D4B273B1A70704741
:101BA0000B484030006840F08070094940310860BF
:101BB000704701460020064A283A12680A4201D0BE
:101BC000012000E000207047014926390870704765
:101BD0003438024010B50446FA48844208D1012145
:101BE0001020FFF766FF00211020FFF762FF57E08B
:101BF000F548844209D101214804FFF749FF00213B
:101C00004FF40030FFF744FF4AE0F048844209D126
:101C100001218804FFF73CFF00214FF48020FFF7EB
:101C200037FF3DE0EA48844209D10121C804FFF7AB
:101C30002FFF00214FF40020FFF72AFF30E0E54896
:101C4000844209D101210805FFF722FF00214FF44A
:101C50008010FFF71DFF23E0DF48844208D10121F7
:101C60002020FFF726FF00212020FFF722FF17E0AA
:101C7000DA48844209D101218807FFF709FF0021D2
:101C80004FF08040FFF704FF0AE0D548844207D1B7
:101C900001214005FFF7FCFE00216005FFF7F8FE7B
:101CA00010BD2DE9FF4705460E460024A14600BFA2
:101CB000A046B08900B100BF2C8A24F44054F088BB
:101CC00004432C82AC8941F20C608443B088318992
:101CD0000843718908430443AC81AC8A24F44074FE
:101CE000B0890443AC826846FFF763FDB54885427E
:101CF00002D0B948854202D1DDF80C9001E0DDF850
:101D00000890A88910F4004F08D009EBC90000EB37
:101D1000091031684900B0FBF1F707E009EBC90091
:101D200000EB091031688900B0FBF1F76420B7FBC4
:101D3000F0F004012009642101FB1078A88910F457
:101D4000004F08D0322000EBC800B0FBF1F000F0EB
:101D50000700044308E0322000EB08106421B0FBC8
:101D6000F1F000F00F0004432C81BDE8FF874FF431
:101D70001651016000218180C18001810C214181C7
:101D800000218181704710B502460020108A20F49E
:101D900070600B884C8823438C882343CC88234372
:101DA0001843108210BD0021018041808180C180D4
:101DB000704721B1828942F40052828104E0828915
:101DC0004DF6FF731A4082817047028B02F47F4206
:101DD0000283028B0A430283704721B1828942F455
:101DE0000042828103E08289C2F30E028281704741
:101DF00021B1828A42F40062828204E0828A4FF238
:101E0000FF731A4082827047C1F3080282807047D4
:101E100001468888C0F308007047028A4FF6F073C5
:101E20001A400282028A0A430282704721B18289E3
:101E300042F00202828104E082894FF6FD731A406B
:101E40008281704782894FF2FF731A4082818289B2
:101E50000A4382817047028A4FF6DF731A4002827A
:101E6000028A0A430282704721B1028A42F4804208
:101E7000028204E0028A4BF6FF731A400282704726
:101E8000818941F001018181704721B1828A42F04C
:101E90000802828204E0828A4FF6F7731A40828237
:101EA0007047028BD2B20283028B42EA0122028384
:101EB000704721B1828A42F02002828204E0828A45
:101EC0004FF6DF731A408282704721B1828A42F056
:101ED0001002828204E0828A4FF6EF731A408282F7
:101EE0007047828A4FF6FB731A408282828A0A43C5
:101EF0008282704721B1828A42F00202828204E02B
:101F0000828A4FF6FD731A40828270471AB1838A23
:101F10000B43838202E0838A8B4383827047F0B550
:101F200003460024002600250020A1F510676A3F23
:101F300000D100BF1846C1F3421401F01F0601276B
:101F400007FA06F5012C01D10C3004E0022C01D176
:101F5000103000E014301AB107682F43076002E028
:101F60000768AF430760F0BD02460020B1F5007F6F
:101F700000D100BF13880B4201D0012000E00020F7
:101F8000704701F40072B2F5007F00D100BFCA4370
:101F90000280704770B5024600240023002500200F
:101FA000A1F510666A3E00D100BFC1F3421501F0F1
:101FB0001F03012606FA03F3012D13D1968933403E
:101FC00017E00000001001400044004000480040BD
:101FD000004C0040005000400014014000780040D8
:101FE000007C0040022D02D1168A334001E0968A1F
:101FF00033400C12012606FA04F41688344013B15B
:102000000CB1012000E0002070BD10B500220023BB
:10201000A1F510646A3C00D100BF0A12012494406B
:10202000A3B2DC43048010BD10B501210807FFF7FF
:10203000DAFC10BDFFF7F8FF00F04EF900F012FADD
:1020400001F00FFC00F094FB02F0ACFC01F070F822
:1020500002F0CEFC03F072F915E000F053F900F045
:10206000AFFB02F0CAFB01F028FC01F06AF800F0B7
:1020700014FA02F028FD03F04AF900F09CFB02F08C
:10208000B7FB00F078F9E8E730B54C06230E02689C
:1020900003249C40A24301249C40224302604468E4
:1020A00001258D40AC434460456801248C40A4B2B6
:1020B0002543456030BD30B54C06230E026803242D
:1020C0009C40A24301249C402243026044680125B5
:1020D0008D40AC434460456800248C40A4B2254345
:1020E000456030BD426801238B409A43426042689C
:1020F00000238B409BB21A434260704730B54C06B8
:10210000230E026803249C40A24301249C402243E6
:102110000260446801258D40AC434460456800245A
:102120008C40A4B22543456030BD01228A40028321
:10213000704701228A404283704770B54C06230ED7
:10214000026803249C40A24300249C402243026076
:10215000C4684E000325B540AC43C46070BD70B583
:102160004C06230E026803249C40A24300249C409A
:1021700022430260C4684E000325B540AC43C460EE
:10218000C4684E000125B5402C43C46070BD10B535
:102190000A465406230E016803249C40A1430324ED
:1021A0009C402143016010BD30B54C06230E0268EF
:1021B00003249C40A24302249C40224302604468C2
:1021C00001258D40AC434460456800248C40A4B296
:1021D0002543456030BD704730B504460D460120AB
:1021E000A840208329462046FFF765FF0120A8402C
:1021F000208330BD30B504460D460120A8406083E1
:1022000029462046FFF757FF0120A840608330BDD4
:1022100030B504460D460120A840208329462046BB
:10222000FFF732FF0120A840208330BD30B50446BF
:102230000D460120A840608329462046FFF724FF71
:102240000120A840608330BD70B504460E460120D1
:1022500000FA06F56069284201D0658300E0258315
:1022600031462046FFF727FF70BD02461069012363
:102270008B40184201D0012070470020FCE7024645
:10228000506901238B40184201D001207047002083
:10229000FCE7F0B5002300244D07ED0E02FA05F32C
:1022A000CE1000F1200555F826504E07F70E0F26E8
:1022B000BE40B543CF1000F1200646F82750CE109F
:1022C00000F1200555F8265045EA0304CE1000F130
:1022D000200545F82640F0BD00204FF0E021886140
:1022E000564800684FF47A61B0FBF1F0401E4FF0A1
:1022F000E0214861072008615148002101604160E8
:10230000018170474F480078A0B100204FF0E021D4
:1023100008614B484B490A6802604A684260098973
:1023200001814848002101604160018107204FF090
:10233000E021086142480079E0B143480088401C30
:10234000414908800846007810F0010F02D10120B1
:102350003B4948713C48007810F0030F02D101203E
:1023600037498871384800880005000D02D10120E6
:102370003349487270473248002101604160018151
:10238000704732480078401C304908700846007891
:10239000012800DC704700202C4908702C48007888
:1023A000401C2B4908702B480078401C29490870B4
:1023B00029480078401C2849087008460078C82839
:1023C00013DB01201F49C8710020234908702348EE
:1023D0000078401C21490870084600780A2804DB70
:1023E000002008700120174908721A480078142844
:1023F00005DB01201349C8700020164908701448F5
:10240000007810F0030F17D101200E49087014480E
:102410000078401C124908700846007810F0030F3D
:1024200002D10120074988700D48007810F0070F8D
:1024300002D101200349087100BFABE70000002072
:10244000540000205E000020240000202A0000200C
:102450002600002028000020290000202B0000205A
:10246000270000201CB501210820FFF773FA042083
:10247000009000208DF8060001208DF807008DF8EF
:10248000040002208DF8050069461048FEF7C4FFDD
:1024900002210E48FFF732FE1CBD10B50C48007A31
:1024A00018B102210948FFF7CFFE10BD70B50646EE
:1024B0000C46084803F09FF985B22A460549304684
:1024C00003F0B8F920882844208070BD000C024039
:1024D00054000020A26600081FB5044601214804EC
:1024E000FFF781FA00940020ADF80400ADF8060073
:1024F000ADF80800ADF80C000C20ADF80A006946F4
:10250000DB48FFF7CEFB0122C021D948FFF7FEFCD4
:10251000002240F22661D648FFF701FD002240F27A
:102520002551D348FFF7FBFC002240F22441D0485C
:10253000FFF7F5FC0121CE48FFF73BFC1FBD1CB5A2
:1025400001210846FFF706FA0420009000208DF8CC
:10255000060001208DF8070002208DF804008DF898
:1025600005006946C348FEF757FF07220221C1480C
:10257000FEF7DDFF082000906946BE48FEF74CFFDD
:1025800007220321BB48FEF7D2FF1CBD10B5002176
:10259000B94B9B7993B1B94B93F8263773B1B74BCD
:1025A00093F826375B1EDCB2B44B83F8264793F8CA
:1025B00026371BB90024B14BA3F82A47B04B93F838
:1025C0001835002B7CD1AD4B93F82737002BF9D170
:1025D000B6E0AA4B9B885B1EA84CA38023465B8871
:1025E000C3F3090223465B885B1C638004F2263335
:1025F000985C2346B3F82A374BB9552806D10023F7
:10260000A04C237001249D4BA3F82A4793E09B4BD9
:10261000B3F82A37012B0DD1FF2804D10224974BA0
:10262000A3F82A4787E0552803D00024934BA3F84A
:102630002A4780E0914BB3F82A37032B12DC8F4BEB
:10264000B3F82A379B1E8D4CA41DE05400248B4BFD
:10265000A3F82847B3F82A375B1C9CB2874BA3F832
:102660002A4768E0854BB3F82A37052B29DC834BD2
:10267000B3F828374FF6FF7404EA03247F4BA3F81E
:102680002847B3F8283703437C4CA4F8283723465F
:10269000B3F82A379B1EA41DE054A31FB3F82A37B2
:1026A0005B1C9CB2754BA3F82A47B3F8283740F25D
:1026B0001B34A3423FDB0024704BA3F82A473AE0C7
:1026C00044E06E4BB3F82A379B1E6C4CA41DE054BB
:1026D000A31FB3F82A375B1C9CB2684BA3F82A47A8
:1026E000B3F82A47B3F82837DB1D9C4223DB0024CC
:1026F000624BA3F82A47634B1B7883421AD1062406
:102700005E4B83F82C47B3F828375B1D9CB25B4BBC
:10271000A3F828479B791902584BDB791943574B8B
:10272000B3F82E378B4205D00124544B83F827474A
:10273000A3F82E1709E0534B1B780344514C237028
:102740004E4B9B88002B3FF744AF00BF10BD10B528
:102750004FF4E661494803F0B2F840F21A51484894
:1027600003F0ADF84FF6FF714448A0F82E1710BDE6
:1027700010B5FFF7ECFFFFF7E2FE4FF46130FFF713
:10278000ABFE002001F0CDFA10BD10B53A488079BB
:1027900080B13B4890F8190560B1394890F81905A7
:1027A000401EC1B2364880F8191590F8190508B9CD
:1027B000FFF7DEFF10BD0021304880F82717704773
:1027C00010B52F4890F8180538B101F097FA012894
:1027D00003D100212A4880F8181501F0B1FA274BDF
:1027E0001B1D4FF48062191F01F2263001F0A7FA79
:1027F000FFF7CBFFFFF7CAFE1F48C07990B11F4813
:1028000090F82C0770B11D4890F82C07401EC1B2FB
:102810001A4880F82C1790F82C0718B9002117488F
:1028200080F8271710BD10B5024600205523144C20
:102830002371FF24124B5C7114129C71DA710C121B
:102840001C7259728B1D0E4C2380C8240C4B83F8CC
:10285000194500230A4C63800124094B83F818456D
:1028600010BD0120064991F8181501B900207047E4
:102870000044004000000240540000206800002096
:10288000980700202C00002070B50446002002FBB1
:1028900001F51D4434F9150070BD70B5049D02FBAF
:1028A00001F41C4420F8145070BD2DE9FF4F81B095
:1028B00083460D464FF400563120009000210F460C
:1028C000884600240EE021465846DDE90323FFF741
:1028D000DBFF25F8140035F91400C71948EBE07840
:1028E00004F10104B442EEDB3246F31738464146A8
:1028F00002F05DFF0746B946002408E035F914A050
:10290000AAEB090A0FFA8AF025F81400641CB442F5
:10291000F4DB05B0BDE8F08F2DE9FF4F82B08246B1
:102920000D4642F2310B31200190002409E021468E
:102930005046DDE90423FFF7A7FF25F81400601CCB
:1029400084B2B4F5005FF2DB4FF4005404E00020E1
:1029500025F81400601C84B242F231008442F6DB98
:10296000002420E04FF000090198801E1FFA80F833
:102970002746B84500DDB846002609E0FE4830F895
:102980001600A11B35F8111010FB0199701C86B2BE
:102990004645F3DB42F2107099FBF0F000B225F8E7
:1029A0001400601C84B25C45DCDB00240AE035F9CD
:1029B0001400009021465046DDE90423FFF76DFF27
:1029C000601C84B2B4F5005FF1DB06B0BDE8F08FA7
:1029D000F0B506460F461546002407E023462A4672
:1029E00039463046FFF798FF601CC4B2AC42F5DBB5
:1029F000F0BD2DE9F04105460E46174698460024E5
:102A00000EE043463A4621463046FFF73DFF00EED2
:102A1000100AB8EEC00A05EB840080ED000A641CC1
:102A2000B4F5005FEDDBBDE8F0810146002015E064
:102A300001EB8002D2ED000AB0EE600AB5EEC00AEA
:102A4000F1EE10FA05D2DFEDCD0A70EEC00AB0EE5D
:102A5000600A01EB800282ED000A401CB0F5005FC5
:102A6000E6DB70472DE9FF4F2DED108B89B08846CE
:102A700091461D4646469FEDC10AB0EE40AA9FED25
:102A8000BF0AF0EE40AA9FEDBD0AB0EE40DA002486
:102A900000E0641CB442FCDBB1B2199801F00DF8FF
:102AA00099FBF8F000EE100AB8EEC08A304606EB4B
:102AB000D0714F10002439E124B99FEDB00AF0EE37
:102AC000408A09E1BC4241DA18EE100A03F06EFDBB
:102AD00041EC100BB0EE40CAF0EE60CA204603F0A5
:102AE00099FA41EC100B8DED060B9FEDA50B53EC05
:102AF000102B9DED060B51EC100B03F0A3FA41ECEB
:102B0000100BB0EE40EAF0EE60EA53EC1C2B51ECF7
:102B10001E0B03F097FA41EC100BB0EE40FAF0EE0A
:102B200060FA53EC1F2B9FED980B51EC100B03F048
:102B300019F941EC100BB0EE40BAF0EE60BA51EC6E
:102B40001B0B03F035F808EE900AC5E0BC4239D102
:102B5000484603F05FFA41EC100BB0EE40CAF0EECD
:102B600060CA9FED870B53EC102B51EC1C0B03F04C
:102B700069FA41EC100BB0EE40BAF0EE60BA9FED8E
:102B8000840B53EC102B51EC1B0B03F0EBF841ECD6
:102B9000100BB0EE40EAF0EE60EA53EC1E2B9FED16
:102BA0007A0B51EC100B03F0DDF841EC100BB0EE9A
:102BB00040FAF0EE60FA51EC1F0B02F0F9FF08EE5C
:102BC000900A89E018EE100A03F0F0FC41EC100BBB
:102BD000B0EE40BAF0EE60BA791C611A480003F01A
:102BE00019FA41EC100BB0EE40CAF0EE60CA9FED4E
:102BF0006A0B53EC102B51EC1C0B03F023FA41EC45
:102C0000100BB0EE40EAF0EE60EA53EC1B2B51ECF7
:102C10001E0B03F017FA41EC100B8DED020B18EEB2
:102C2000100A03F0C3FC41EC100BB0EE40EAF0EEEA
:102C300060EA484603F0EEF941EC100BB0EE40BA02
:102C4000F0EE60BA9FED560B53EC102B51EC1B0BC2
:102C500003F0F8F941EC100BB0EE40CAF0EE60CA98
:102C600053EC1E2B51EC1C0B03F0B6FB41EC100B8C
:102C7000B0EE40FAF0EE60FA9FED4B0B53EC102BE8
:102C800051EC1F0B03F0DEF941EC100B8DED000B46
:102C90009DED020B53EC102B9DED000B51EC100B36
:102CA00002F0B8FF41EC100B8DED040B9DED040B11
:102CB00053EC102B9FED340B51EC100B03F052F83A
:102CC00041EC100B8DED060B9DED060B51EC100B3E
:102CD00002F06EFF08EE900A354800EBC40090ED5C
:102CE000000A20EE000A324800EBC400D0ED010AD1
:102CF0002F4800EBC40090ED011AB0EE409A00EEB0
:102D0000819A29EE280A60EE289A29EEA80A60EE38
:102D100028DA3DEE090AB0EE40DA3AEEA90AF0EE02
:102D200040AA3AEE2D0AB0EE40AA641CB442FFF667
:102D3000C3AE304603F06EF941EC100BB0EE40BA72
:102D4000F0EE60BA1DEE100A03F030FC41EC100BFF
:102D5000B0EE40FAF0EE60FA02F0EDFEB0EE40EABE
:102D6000F0EE60EA53EC1B2B51EC1E0B02F0FAFF65
:102D700041EC100B1EE00000BC66000800000000E3
:102D80004AD8124DFB2119400000000000408F403E
:102D900000000000000000404AD8124DFB2109400D
:102DA000000000000000E03F4AD8124DFB2119C08E
:102DB00044D80020B0EE40CAF0EE60CA51EC1C0BC3
:102DC00002F0F6FE8346304603F024F941EC100B86
:102DD000B0EE40BAF0EE60BA1AEE900A03F0E6FBED
:102DE00041EC100BB0EE40FAF0EE60FA02F0A3FEF8
:102DF000B0EE40EAF0EE60EA53EC1B2B51EC1E0BF8
:102E000002F0B0FF41EC100BB0EE40CAF0EE60CA29
:102E100051EC1C0B02F0CCFE0890304603F0FAF89F
:102E200041EC100BB0EE40CAF0EE60CA1AEE100A88
:102E300003F0BCFB41EC100BB0EE40BAF0EE60BA10
:102E400002F079FEB0EE40EAF0EE60EA53EC1C2BA3
:102E500051EC1E0B02F086FF41EC100BB0EE40FA75
:102E6000F0EE60FA51EC1F0B02F0A2FE82461FED5D
:102E70003D0A85ED010A1FED3F0A85ED000AC5F800
:102E800008B01FED420A85ED040A1FED440A85EDE6
:102E9000030A089868611FED470A85ED070A1FEDD0
:102EA000490A85ED060AC5F820A009B0BDEC108BD3
:102EB000BDE8FF8F2DE9F74F87B003460D461FEDA4
:102EC000512AB0EE420A4FF0000ACDF818A0CDF812
:102ED00014A04FF005094FF0640AB5FBFAF4002680
:102EE000B246CDF804A01FED5B2AF0EE420A0020A6
:102EF0004EE003EB800A9AED002A32EE202AF0EE33
:102F0000420AA04239DBA0EB040A03EB8A0A9AEDDD
:102F1000002A30EEC22AF0EE420A02EE104AB8EE63
:102F2000C22A80EE821AA0F1010A03EB8A0A9AED06
:102F3000002AB4EEC12AF1EE10FA1ED203EB800A89
:102F40009AED002AB4EEC12AF1EE10FA15DD07461B
:102F5000DDF804A0BAF1010F0AD1DDF810A0A7EB4B
:102F60000A08FF2E04DCDFF8C0A14AF82680761C90
:102F700004974FF0010ACDF804A0DDF80CA0A2459B
:102F800005DADDF80CA00AF1010ACDF80CA0401C0E
:102F9000DDF824A05045ACD3002200207BE04FF0A8
:102FA000000ACDF800A000214DE0DFF87CA15AF81E
:102FB00020A001EB410BDFF874E15EF82BB0AAEB27
:102FC0000B0A02EE10AAB8EEC22AF0EE421AF5EE93
:102FD000C01AF1EE10FA05D21FED982A32EE612ADE
:102FE000F0EE421AB1EE042AF4EEC21AF1EE10FA33
:102FF00028D201EB410ADFF834B10BEB8A0ADAF888
:1030000008A0DFF824B15BF820B0DA4401EB410BF3
:10301000DFF818E10EEB8B0BCBF808A001EB410AAF
:10302000F3460BEB8A0ADAF804A00AF1010A01EB75
:10303000410B0EEB8B0BCBF804A04FF0010ACDF83F
:1030400000A002E0491C9142AFDB00BFDDF800A008
:10305000BAF1000F1ED1802A1CDADFF8CCA05AF892
:1030600020A002EB420BDFF8C4E04EF82BA04FF09B
:10307000010A02EB420B0EEB8B0BCBF804A0DFF83E
:10308000A8A05AF820A002EB420B0EEB8B0BCBF85A
:1030900008A0521C401CB04281DB4FF0000ACDF862
:1030A00008A0D44600212CE001EB410ADFF87CB0F7
:1030B0000BEB8A0ADAF804B0DDF808A0D3451FDD6F
:1030C00001EB410ADFF864B00BEB8A0ADAF804A0DE
:1030D000CDF808A001EB410A0BEB8A0ADAF8089058
:1030E00001EB410A0BEB8A0ADAF804A009EB6A0942
:1030F00001EB410A0BEB8A0ADAF804A099FBFAFC0F
:10310000491C9142D0DB02EE10CAF8EEC22A02EE50
:10311000105AB8EE422A82EE823AB0EE430A0AB062
:10312000BDE8F08F70470000B40C0020B410002000
:1031300010B54FF49671804802F0E3FB01F0CAF835
:1031400010BD00B52DED028B81B07B480078D0B961
:103150007948007A28B900F0B8FB01207649087256
:10316000E4E000F0ABFB0028FAD0002072490871BF
:10317000C8800822714972480068FFF729FC0120C5
:103180006D490870D2E06C480078012844D16A4843
:103190000079082803DB002067490870C6E066480C
:1031A00003790822664801686648FFF722FC6248F6
:1031B000007900EBC00160480C3000EB81034FF454
:1031C000C8424FF400515F48FFF74CFC4FF40052E7
:1031D0004FF4C8415B48FFF76DFEB0EE408A594896
:1031E000FFF723FCB0EE480A4FF400524FF4C841F9
:1031F0005448FFF797FF4FF40051524800F05DFC30
:103200004FF40051504800F079FC02204A49087000
:1032100000200872487289E047480078022871D17E
:103220004548007A002855D14348407AA0B9242067
:10323000414900900A79097901EBC1033E490C31FB
:1032400001EB83000823012100F09AFD00286DD0D6
:1032500001203949087269E03748407A01280FD1C6
:103260008003009034480279082300213448006824
:1032700000F086FD002859D001202F49087255E042
:103280002D48407A02280ED1400300902A48027946
:10329000082302212B4800F073FD002846D00120AE
:1032A0002549087242E02448407A03280ED14FF4A1
:1032B000804000902048027908230321224800F032
:1032C0005FFD78B301201C4908722FE003201A49E2
:1032D00008702BE01848007A012827D101F000F887
:1032E00000B31548407A401C134948720846407A9A
:1032F000042802DB0320087018E000200E49087241
:1033000014E0FFE70C48007803280FD10A48007941
:10331000401C0949087108460079082803DB002091
:103320000872087002E001200349087000F041FFB4
:1033300001B0BDEC028B00BDB4160020E097002068
:1033400034000020E017002044D800204FF0C04295
:103350001152704701464FF0C040405A704700B5C7
:103360009DB001210846FEF72DFB022007900120A9
:1033700008900220099000200A900B900C900D906C
:103380000220009001200190022002900020039072
:103390000490059006900E900F90109010201190C0
:1033A0000020129014901390159016904FF48050B6
:1033B0001790002018904FF48040199000201A9028
:1033C00007A81B90CDF870D00EA8FDF7ADFC012129
:1033D0000020FDF752FD1DB000BD1CB50121FE48C7
:1033E000FEF7B8FA0C220021FC48FEF7A0F80C22E8
:1033F0000121FA48FEF79BF80C220421F748FEF75A
:1034000096F80C220521F548FEF791F80C220721C9
:10341000F248FEF78CF80C220821F048FEF787F8F6
:103420000C220921ED48FEF782F80C220A21EB4814
:10343000FEF77DF80C220B21E848FEF778F80C2205
:103440001146E648FEF773F80C220D21E348FEF71B
:103450006EF80C220E21E148FEF769F80C220F21CC
:10346000DE48FEF764F80C220021DD48FEF75FF825
:103470000C220121DA48FEF75AF80C220221D84822
:10348000FEF755F80C220321D548FEF750F80C2220
:103490000421D348FEF74BF80C220521D048FEF753
:1034A00046F80C220621CE48FEF741F80C220721EF
:1034B000CB48FEF73CF80C220821C948FEF737F844
:1034C0000C220921C648FEF732F80C220A21C44812
:1034D000FEF72DF80C220B21C148FEF728F80C222C
:1034E0001146BF48FEF723F80C220D21BC48FEF719
:1034F0001EF80C220E21BA48FEF719F80C220F21F3
:10350000B748FEF714F80C220021B648FEF70FF872
:103510000C220121B348FEF70AF80C220221B1481F
:10352000FEF705F80C220321AE48FEF700F80C2246
:103530000421AC48FDF7FBFF0C220521A948FDF74B
:10354000F6FF0C221146A748FDF7F1FF0C220D21D2
:10355000A448FDF7ECFF0C220E21A248FDF7E7FF7F
:103560000C220F219F48FDF7E2FF0C2200219E480C
:10357000FDF7DDFF0C2201219B48FDF7D8FF0C224F
:1035800002219948FDF7D3FF0C2203219648FDF74D
:10359000CEFF0C2204219448FDF7C9FF0C2205211F
:1035A0009148FDF7C4FF0C220D218F48FDF7BFFFA6
:1035B0000C220E218C48FDF7BAFF4FF6B370009035
:1035C00002208DF8040000208DF8060003208DF8FD
:1035D000050001208DF8070069468048FDF71CFFB3
:1035E0004FF6FF70009002208DF8040000208DF847
:1035F000060003208DF8050001208DF807006946BC
:103600007748FDF709FF4FF23F00009002208DF848
:10361000040000208DF8060003208DF8050001202D
:103620008DF8070069466F48FDF7F6FE46F23F0049
:10363000009002208DF8040000208DF80600032081
:103640008DF8050001208DF8070069466648FDF7F2
:10365000E3FEFFF784FE1CBD6448006840F00400F0
:103660006249086080206249088062480068C0089A
:103670006149B0FBF1F0401E5D492831088001200E
:103680005B49143108809C2059492C310860502036
:1036900057494031086001205549143108804FF4E2
:1036A000D04053491C3108804FF41040091D088058
:1036B0004F48008840F001004D490880704710B520
:1036C0008CB001210846FEF745F901210220FEF7E2
:1036D00041F901210420FEF73DF901210802FEF71E
:1036E00093F942481C38006840F480703F491C3907
:1036F00008600846006820F480700860002412E02A
:1037000003208DF82C003D4800EBC40080880A900F
:1037100000208DF82F00394951F834000AA9FDF72F
:103720007BFE601CC4B2082CEADB002008900690E7
:103730004FF4803007900020099006A8FCF708FF9E
:103740000020009001208DF8040000208DF8050075
:103750004FF0106003904FF08050029000200490D2
:1037600008208DF8140069462548FCF7C2FE0121A7
:103770002348FCF709FF00240FE0204800EBC400B9
:103780008079401CC2B21D4800EBC400817901233E
:103790001B48FCF739FF601CC4B2082CEDDB01218B
:1037A0001748FCF7DBFF01211548FCF7CCFF0CB0F4
:1037B00010BD00B58FB001218805FEF7CBF80B488E
:1037C0003038006840F48000084930390860084605
:1037D000006820F4800015E07A000100000C02402F
:1037E000001002400014024000180240403802401D
:1037F000000800400000002040420F002067000841
:1038000000200140086000BF3948FDF7C8F90028D2
:10381000FAD10090374801903748006802900020A4
:1038200003904FF6FF700490002005904FF48060E5
:103830000690400007908000089000010A90002048
:1038400009900B9001200C9000200D900E9069467D
:103850002748FDF71DF900212548FDF753F90FB062
:1038600000BD10B5ADF6080D4FF0C040224908600C
:10387000FFF7B3FDFFF79DFFFFF721FFFFF7ECFE1A
:10388000002404E0A1B26000FFF760FD641CB4F501
:10389000803FF7D300240AE06000FFF75BFDCDF81E
:1038A0000408BDF8040801A921F81400641CB4F54B
:1038B000806FF1D30DF6080D10BD704700200C4944
:1038C000091D096801B90120704710B54FF6FF7056
:1038D0000749091D08603F20054908390860012192
:1038E0000348FDF70FF9FFF7EAFEFFF7B5FE10BD3D
:1038F000106402404C20014034000020A54B03EB33
:10390000C10393ED000A82ED000AA24B03EBC10351
:1039100093ED010A82ED010A70472DE9F74F88B057
:1039200004460E46304606EBD0714FEA61084FF070
:10393000010923E0C1450FDA04EBC80103C9CDE951
:10394000060104EBC80004EBC90206CA06C004EB7A
:10395000C900DDE9061206C0304606EBD0714FEA19
:10396000610A06E0A8EB0A0850460AEBD0714FEA5C
:10397000610AC245F6DDD04409F10109B01E48458F
:10398000D8DA4FF0010B82E0834830F81B00019039
:10399000019800EBD071491000910120039070E074
:1039A0000398401E0A99A1EB0B017B4A32F81110D3
:1039B00048430290029881B204AA3046FFF79EFF66
:1039C0000398451E57E000982F1804EBC70090EDB0
:1039D000000ADDED040A20EE200A04EBC700D0ED5A
:1039E000010A9DED051A00EEC10A8DED060A04EBF1
:1039F000C70090ED000ADDED050A20EE200A04EB79
:103A0000C700D0ED010A9DED041A00EE810A8DED8C
:103A1000070A04EBC50090ED000ADDED060A30EE62
:103A2000600A04EBC70080ED000A04EBC50090EDCE
:103A3000010ADDED070A30EE600A04EBC70080EDF5
:103A4000010A04EBC50090ED000ADDED060A30EE38
:103A5000200A04EBC50080ED000A04EBC50090EDE0
:103A6000010ADDED070A30EE200A04EBC50080ED07
:103A7000010A01980544701EA842A4DC0398401C6A
:103A800003900099039888428ADD0BF1010B0A9894
:103A900083457FF779AF0BB0BDE8F08F3F4A02EB6B
:103AA000C00292ED010A81ED010A3C4A02EBC0021C
:103AB00092ED000A81ED000A704770B505460E468A
:103AC000002411E005EB840090ED000A334800EB80
:103AD000C40080ED000A9FED320A304800EBC400BC
:103AE00080ED010A601C84B2B4F5005FEADB0C22B1
:103AF0004FF400512948FFF710FF70BD70B52DED50
:103B0000068B06460D4600243DE0244800EBC40029
:103B100090ED000A20EE000A204800EBC400D0ED32
:103B2000010A1E4800EBC40090ED011A00EE810A64
:103B3000B0EE408A18EE100A02F038FD41EC100B8E
:103B4000B0EE40AAF0EE60AA01F0F5FFB0EE409AA8
:103B5000F0EE609A51EC190B02F02AF808EE100A08
:103B6000B0EE000A68EE000A00EE105AB8EE400A05
:103B700080EE801AB0EE418A084800EBC40080ED68
:103B8000008A601C84B2B4F5005FBEDBBDEC068B1E
:103B900070BD0000606700086067010844D800201D
:103BA0000000000000B58FB001214805FDF7D2FEEE
:103BB00000BF6B48FCF7F3FF0028FAD16949684859
:103BC000FDF718F8674918396548FDF713F8654996
:103BD0001C396348FDF70EF8624910396048FDF75B
:103BE00009F860491F395E48FDF704F84FF000609E
:103BF00000905D4801905D48029000200390802075
:103C00000490002005904FF48060069000200790FB
:103C100008904FF400300A90002009900B9001208A
:103C20000C9000200D900E9069464D48FCF730FF37
:103C300001214B48FCF766FF0FB000BD10B590B0F6
:103C4000044601214805FDF785FE4948006840F417
:103C50000010474908600846006820F4001008601A
:103C600000BF3F481830FCF79AFF0028F9D14FF009
:103C700020513B481830FCF7BDFF4FF00851384841
:103C80001830FCF7B7FF4FF0045135481830FCF7F7
:103C9000B1FF4FF0105132481830FCF7ABFF4FF036
:103CA00001512F481830FCF7A5FF4FF0006001903C
:103CB0002D4802902F480390402004900594002046
:103CC00006904FF4806007900020089009904FF410
:103CD00000300B9000200A900C9001200D900020E5
:103CE0000E900F9001A91E481830FCF7D1FE01215B
:103CF0001B481830FCF706FF10B010BD00201E490D
:103D0000497801B90120704770B504460025204666
:103D1000FFF794FF012501201749487008702846D5
:103D200070BD10B5044614480021016081808020D8
:103D30001149888000204880FFF734FF10BD70478C
:103D40000D48407828B10D48006810B900200A4994
:103D500048707047074A02604FF480620A807047DB
:103D600088600240200000200444004044D8012024
:103D700010380240C4D8012038000020A46002405E
:103D8000F0B50446059D0020FE4EB67A76B9FD4E8C
:103D900031807460B2740026FA4FBE733E810126F2
:103DA000BE723E46B58200263E770120F0BD2DE969
:103DB000FF4F86B00D46DDE91496DDF86080169C55
:103DC00000200290A8F8000005908246012A15D133
:103DD00003200590CA4600200490B14503DDA9EBFD
:103DE000060080B204900498824501DDDDF810A041
:103DF000BAF1000F1CD10020059019E01798163871
:103E0000C0F34F0005904FF6FF7B05980BEA400A80
:103E100000200490B14503DDA9EB060080B20490B8
:103E20000498824501DDDDF810A04FEA6A00059094
:103E3000059818B900200AB0BDE8F08F0020207066
:103E40000AB929202070012A01D12A202070022AD3
:103E500001D12B202070032A01D12C2020700321B6
:103E6000C9480088000AE070C74800782071C64839
:103E70000088401CDFF810B3ABF80000100A607136
:103E8000A2711398E0714FEA1920207284F809900A
:103E9000300AA072E6720C214FEA1A20605401F138
:103EA000010B04F80BA0891C2ABB002320E003EBC4
:103EB000660EDDF84CB009980EFB00B0039003EBE2
:103EC000660BB24830F81B0087B2380A605401F123
:103ED000010B04F80B700298384480B20290881CE1
:103EE00081B2B8F80000801CA8F80000581C83B20A
:103EF00005988342DBDB012A7DD1AC46DCED010A6B
:103F0000CDED010A9DF807006054481C81B29DF870
:103F100006006054481C81B29DF805006054481C9E
:103F200081B29DF804006054481C81B2DCED000AA7
:103F3000CDED010A9DF807006054481C81B29DF840
:103F400006006054481C81B29DF805006054481C6E
:103F500081B29DF804006054481C81B2DCED020A75
:103F6000CDED010A9DF807006054481C81B29DF810
:103F700006006054481C81B29DF805006054481C3E
:103F800081B29DF804006054481C81B2DCED040A43
:103F9000CDED010A9DF807006054481C81B29DF8E0
:103FA00006006054481C81B29DF805006054481C0E
:103FB00081B29DF804006054481C81B2DCED030A14
:103FC000CDED010A9DF807006054481C81B29DF8B0
:103FD00006006054481C81B29DF805006054481CDE
:103FE00081B29DF804006054481C81B2DCED050AE2
:103FF000CDED010A00E060E09DF807006054481C28
:1040000081B29DF806006054481C81B29DF80500FD
:104010006054481C81B29DF804006054481C81B271
:10402000DCED070ACDED010A9DF807006054481C3D
:1040300081B29DF806006054481C81B29DF80500CD
:104040006054481C81B29DF804006054481C81B241
:10405000DCED060ACDED010A9DF807006054481C0E
:1040600081B29DF806006054481C81B29DF805009D
:104070006054481C81B29DF804006054481C81B211
:10408000DCED080ACDED010A9DF807006054481CDC
:1040900081B29DF806006054481C81B29DF805006D
:1040A0006054481C81B29DF804006054481C81B2E1
:1040B000B8F800002430A8F80000022A2DD100230F
:1040C00028E003EB66000390039805EB800090ED79
:1040D000000A4FF6FF77DFED2E0AB4EEE00AF1EEAC
:1040E00010FA04D2FCEEC00A10EE900A87B20298D1
:1040F000384480B20290380A605401F1010B04F890
:104100000B70881C81B2B8F80000801CA8F8000071
:10411000581C83B205988342D3DB032A31D1002394
:104120002CE003EB66000390039805EBC0000090C1
:104130000098D0ED000AB0EE600A4FF6FF77DFED91
:10414000140AB4EEE00AF1EE10FA04D2FCEEC00A52
:1041500010EE900A87B20298384480B20290380A72
:10416000605401F1010B04F80B70881C81B2B8F89F
:104170000000801CA8F80000581C83B205988342F8
:10418000CFDB07E0C4DC01203E000020E0970020E8
:1041900000FF7F4702980012605401F1010B029862
:1041A00004F80B00881C81B2080A6070A1700846F0
:1041B00041E670B58AB04D48007A40B14C48008A5B
:1041C000002804DD4A48008A401E494908824848C0
:1041D000807A00287CD04648807A012878D14448EB
:1041E000807B00284FD100F024F9002870D008A966
:1041F00009A8FFF7AFFD5A2009990870A520099971
:10420000487007ABBDF82000001F80B20999091D56
:10421000374A1289CDE90403CDE902213448808A66
:104220003349897C324BCDE900101A885968588B84
:104230000823FFF7BCFD0446200A099988700999F4
:10424000CC700A21201D099A11542CB9012028494B
:104250000877002088723BE0601D82B22548008804
:10426000099900F043FB23480088401C214908803D
:10427000BDF81C001E49C8820220887300200882F5
:104280000876487624E01A48807B022820D1002551
:1042900000261748008A50B91548407E401C144932
:1042A00048760846407E012800DB0126012510489B
:1042B000007E08B10126012555B136B10C480089B0
:1042C0000B49C98A08440A490881002008498873B3
:1042D0000AB070BD10B52021054801F012FB10BDD9
:1042E00000200349097F01B10120704754000020DC
:1042F000C4DC01204000002000B58FB001218805FA
:10430000FDF728FB91499248FCF774FC8F49183956
:104310008F48FCF76FFC8D491C398D48FCF76AFC0F
:104320008A4910398A48FCF765FC88491F39884852
:10433000FCF760FC4FF000600090864801908648D2
:1043400002900020039080200490002005904FF4FC
:10435000806006900020079008904FF400300A908B
:104360004012099000200B9001200C9000200D902D
:104370000E9069467648FCF78BFB01217448FCF7E8
:10438000C1FB0FB000BD10B590B0044601218805F7
:10439000FDF7E0FA00BF6E487830FCF700FC00281B
:1043A000F9D14FF020516A48FCF724FC4FF0085136
:1043B0006748FCF71FFC4FF004516548FCF71AFCF6
:1043C0004FF010516248FCF715FC4FF00151604866
:1043D000FCF710FC4FF0006001905E4802905F48CF
:1043E0000390402004900594002006904FF48060D4
:1043F00007900020089009904FF400300B900020A7
:104400000A900C9001200D9000200E900F9001A9B1
:104410004F487830FCF73CFB01214D487830FCF7E1
:1044200071FB10B010BD00204D49497801B9012041
:1044300070474C48007870472DE9F04106460D461C
:104440000027B84646484078B0B9002407E0305D00
:1044500042490855305D3844C7B2601C84B2AC4252
:10446000F5DB3E484755691C88B2FFF78CFF0120F9
:104470003B494870087080464046BDE8F08110B561
:1044800004463748002101608180802034498880BB
:1044900000204880FFF730FF10BD30B53CE02C4CC9
:1044A000241D246804B93EE02D4CA488012C03D1BE
:1044B00080242B4DAC8004E0294CA488641E284D38
:1044C000AC80274C6488802C02DB0024244D6C8057
:1044D0000C88944201DB00240C801C88944210DA82
:1044E0001F4C64881C4D2C5D0D8844550C88641C41
:1044F0000C800C88944201DB00240C801C88641C16
:104500001C80174C6488641C154D6C802C46648894
:10451000802C01DB00246C80114CA4880C4D2D1DD7
:104520002D68AC42BBD100BF30BD0D48407830B1E2
:1045300007487C30006810B900200949487070476E
:10454000064A02604FF480620A8070472000002013
:104550004064024004100140E4DC012064DD0120DD
:1045600042000020480000201FB504460121102011
:10457000FDF74AFA00940020ADF80400ADF80600FB
:10458000ADF80800ADF80C000C20ADF80A00694643
:10459000FC48FDF786FB0122C021FA48FDF7B6FC76
:1045A000002240F22661F748FDF7B9FC002240F2F4
:1045B0002551F448FDF7B3FC002240F22441F148B4
:1045C000FDF7ADFC0121EF48FDF7F3FB1FBD1CB566
:1045D00001210846FDF7BEF94FF40070009000205D
:1045E0008DF8060001208DF8070002208DF80400E8
:1045F0008DF805006946E448FCF70EFF0722092103
:10460000E148FCF794FF4FF4806000906946DE4873
:10461000FCF702FF07220A21DB48FCF788FF1CBDDC
:1046200010B50021D94B9B7993B1D94B93F826371C
:1046300073B1D74B93F826375B1EDCB2D44B83F8AB
:10464000264793F826371BB90024D14BA3F82A47F5
:10465000CF4B93F82737002B77D1B1E0CC4B9B8819
:104660005B1ECB4CA38023465B88C3F30902234621
:104670005B885B1C638004F22633985C2346B3F8A6
:104680002A374BB9552806D10023C24C2370012488
:10469000BF4BA3F82A478EE0BD4BB3F82A37012B56
:1046A0000DD1FF2804D10224B94BA3F82A4782E098
:1046B000552803D00024B64BA3F82A477BE0B44B1F
:1046C000B3F82A37032B12DCB14BB3F82A379B1E01
:1046D000AF4CA41DE0540024AD4BA3F82847B3F819
:1046E0002A375B1C9CB2AA4BA3F82A4763E0A84B6D
:1046F000B3F82A37052B29DCA54BB3F828374FF63A
:10470000FF7404EA0324A24BA3F82847B3F8283720
:1047100003439F4CA4F828372346B3F82A379B1E3F
:10472000A41DE054A31FB3F82A375B1C9CB2984B1E
:10473000A3F82A47B3F8283740F21B34A3423ADBE8
:104740000024934BA3F82A4735E03FE0904BB3F8A1
:104750002A379B1E8E4CA41DE054A31FB3F82A37A2
:104760005B1C9CB28A4BA3F82A47B3F82A47B3F8DC
:104770002837DB1D9C421EDB0024854BA3F82A470B
:10478000844B1B78834215D10624814B83F82C4738
:10479000B3F828375B1D9CB27D4BA3F828479B7963
:1047A00019027B4BDB7919430124794B83F82747A6
:1047B000A3F82E1709E0774B1B780344754C237040
:1047C000734B9B88002B3FF749AF00BF10BD6F486C
:1047D000807960B1704890F8190540B16E4890F842
:1047E0001905401EC1B26C4880F8191500BF70470A
:1047F0000021674880F82717704710B500246348E8
:10480000C079E0B103216048FDF72FFD08B901240C
:1048100000E000246148007884420DD060480078B0
:10482000401C5F49087008460078052807DB5B4894
:1048300004700020087002E00020594908705648B2
:1048400090F8180538B1FFF7EEFD012803D10021DB
:10485000514880F81815FFF768FE4D4B1B1D4FF4AB
:104860008062191F01F22630FFF717FEFFF7AFFF36
:10487000FFF7D6FE4548C07990B1454890F82C071F
:1048800070B1434890F82C07401EC1B2404880F8F0
:104890002C1790F82C0718B900213D4880F82717ED
:1048A00010BD70B505460C46002655203A490871E2
:1048B000FF213948417129128171C571211201729C
:1048C0004472A01D34490880C821334880F8191566
:1048D00000203149488001212F4880F818150188AF
:1048E000001DFFF7A9FD0646304670BD2DE9F041D9
:1048F00006460F4614464FF0000855202649087119
:10490000FF212548417131128171C6712112017256
:104910004472002506E07A5DA81D1F49091D0A544E
:10492000681C85B2A542F6DBA01D1B490880C82182
:10493000194880F8191500201749488001211648A8
:1049400080F818150188001DFFF776FD8046404667
:10495000BDE8F0810120104991F8181501B9002037
:10496000704710B54FF4E661094800F0A8FF40F227
:104970001A51094800F0A3FF4FF6FF710448A0F850
:104980002E1710BD0010014000000240540000200E
:1049900064E101204A00002094E801204800002042
:1049A000490000201CB501210846FCF7D3FF082070
:1049B000009000208DF8060001208DF807000020EF
:1049C0008DF8040002208DF8050069460748FCF7C1
:1049D00023FDFFF7C6FFFFF7FAFD4FF4E130FFF7C5
:1049E000C3FD0020FFF74BFD1CBD0000000002408E
:1049F0001CB558480021018081700A205549087073
:104A00003C2048701E20887001210846FCF7A2FF58
:104A10004FF48070009000208DF8060001208DF882
:104A200007008DF8040002208DF8050069464A4809
:104A3000FCF7F2FC08214848FDF760FB08214648D6
:104A4000FDF7CAFB01210420FCF784FF4FF400703E
:104A5000009000208DF8060001208DF807008DF8E9
:104A6000040002208DF8050069463C48FCF7D4FCA0
:104A700009213A48FDF742FB09213848FDF7ACFB14
:104A80001CBD0A203649097A41B13249897800298A
:104A900004DD30498978491E2E4A91703049C97920
:104AA00081B130490978002907DD2F4908782D495F
:104AB0000978491E2B4A117004E02649897800299B
:104AC00000DD1920704710B5FFF7DBFF274800789D
:104AD000A0B12348007A20B11E484078401C1D49EF
:104AE00048701C48407802282ADB00201F490870C3
:104AF0003C20184948700A20087021E01848007AC4
:104B0000F0B11448007820B112480078401E1149D5
:104B100008701048407850B10E484078401E0D494A
:104B200048700846407810B90120104908700948BB
:104B3000007828B900F063FB10B10A20054908701D
:104B400010BD3C200349487070470A200149087095
:104B5000704700004E0000200000024000080240A4
:104B6000540000204C0000204D0000204B0000208D
:104B70002DE9F04306460C4600208046C2F800802E
:104B8000002142E0675C01F1010814F808804FEA57
:104B9000082301F1020814F8088048EA030301EB36
:104BA000030808F10108DFF89094B9F80890C845A7
:104BB00001DC012B00DA30E0B74222D14FF0000CCB
:104BC000032B03DBA3F1030808F0FF0C002514E01E
:104BD000D2F800804FEA0828C2F8008001F10309EA
:104BE000A94414F80990D2F8008048EA0908C2F8EC
:104BF000008005F1010808F0FF056545E8DB0120AC
:104C00000BE001EB03081FFA88F1DFF82C84B8F8F9
:104C1000089001F10208C145B4DC00BFBDE8F08393
:104C2000F0B504460A460020002115E0555C4E1CF4
:104C3000965D33028E1C965D3343CE18761CFE4F74
:104C40003F89BE4201DC012B00DA0AE0A54201D116
:104C5000501806E0CE18B1B2F74E37898E1CB74215
:104C6000E4DC00BFF0BD30B5014600240C70032029
:104C700000230DE000240C540022120100BF441C4C
:104C80000A550025841C0D55C41CA0B25C1CE3B25F
:104C9000182BEFDB04124C70887030BD01460022E7
:104CA0000A7003200A54401C02124A708870704730
:104CB00010B501461B240C700320002210E01412D2
:104CC0000C54441CA0B20A54441CA0B200231C1271
:104CD0000C54441CA0B20B54441CA0B2541CA2B2ED
:104CE000012AECDD04124C70887010BD01460223CD
:104CF0000B700320002213120B54431CCA54801C57
:104D000003124B7088707047014603230B70032019
:104D1000002213120B54431CCA54801C03124B7004
:104D200088707047014604220A70032002124A70FC
:104D30008870704701460E220A70032002124A70E2
:104D400088707047014605220A70032002124A70DB
:104D500088707047014606220A70032002124A70CA
:104D600088707047014607220A70032002124A70B9
:104D70008870704702460B460821117003200021FD
:104D80001154401C01125170907070470246092363
:104D900013700320031253709070704702460B4645
:104DA0000A211170032000211154401C011251707E
:104DB0009070704702460B460B21117003200021B2
:104DC0001154401C011251709070704702460C2320
:104DD000137003200B121354401C1154401C031277
:104DE000537090707047014619220A7003202022E8
:104DF0000A54401C08220A54401C01220A54401C38
:104E0000F4220A54401C01220A54401C2C220A5449
:104E1000401C00220A54401C0A54401C0A54401CE6
:104E20000A54401C0A54401C02124A708870704791
:104E300001461D230B70032000220A54401C03125C
:104E40004B708870704701461A220A7003200212C4
:104E50004A708870704770B505460E460024764843
:104E6000C0680555641C7449C9680819FFF73EFFFE
:104E7000204484B27049C9680819FFF745FF2044EF
:104E800084B26D49C9680819FFF74CFF204484B209
:104E90006949C9680819FFF755FF204484B266497B
:104EA000C9680819FFF756FF204484B26249C968EF
:104EB0000819FFF7D8FE204484B25F49C968081971
:104EC000FFF7ECFE204484B25B49C9680819FFF77C
:104ED00049FF204484B2204670BD2DE9F8410646C2
:104EE0000F4600246A4639461120FFF741FE8046EE
:104EF0005148C0680655641CB8F1000F21D00098D5
:104F000085B24D49C96808192946FFF75FFF20445B
:104F100084B2E9B2484AD2681019FFF72BFF204447
:104F200084B2E9B2444AD2681019FFF72FFF204437
:104F300084B2E9B2404AD2681019FFF72FFF20442B
:104F400084B22046BDE8F881024600207047024640
:104F5000002070470246002070472DE9F0410546C9
:104F60000F4600243448C0680555641C0D203249A2
:104F7000C9680855641CA41C304800F03CFC8046FD
:104F80002D49C968081942462C4900F053FC2B48AA
:104F900000F031FC204484B2274900231A46C86837
:104FA000214600F057FA0446254800F024FC8046CC
:104FB0002149C96808194246214900F03BFC2048B4
:104FC00000F019FC204484B21B4900231A46C8682B
:104FD000214600F03FFA04461A4800F00CFC8046D7
:104FE0001549C96808194246164900F023FC1548BE
:104FF00000F001FC204484B20F4900231A46C8681F
:10500000214600F027FA04460F4800F0F4FB8046E2
:105010000949C968081942460B4900F00BFC0A48C7
:1050200000F0E9FB204484B2034900231A46C86813
:10503000214600F00FFA09E0B0ED01201F690108D8
:105040002769010831690108396901080446C44823
:1050500000F0D1FB8046C349C96808194246C049DF
:1050600000F0E8FBBE4800F0C6FB204484B2BD4916
:1050700000231A46C868214600F0ECF90446BA48F5
:1050800000F0B9FB8046B749C96808194246B649DD
:1050900000F0D0FBB44800F0AEFB204484B2B1492C
:1050A00000231A46C868214600F0D4F90446AF48E8
:1050B00000F0A1FB8046AB49C96808194246AB49DC
:1050C00000F0B8FBA94800F096FB204484B2A84841
:1050D00000F091FB8046A349C96808194246A449DB
:1050E00000F0A8FBA24800F086FB204484B29D4952
:1050F00000231A46C868214600F0ACF90446601E39
:1051000086B230129749C96888709649C968CE70CE
:105110009449C9680819FFF70DFE204484B29149EB
:10512000C9680819FFF7C4FD204484B22046BDE8D1
:10513000F081704702460020704770B506460C4665
:105140002146A820FFF709FF0546284670BDF0B5A7
:1051500005460F46002400268248C0680555641C99
:105160008049C9680819FFF799FD204484B27D4938
:10517000C96808193146FFF71DFE204484B2204655
:10518000F0BD02460020704770B505460E4600246B
:105190007448C0680555641C7249C9680819FFF74E
:1051A00022FE204484B26F49C9680819FFF74BFEFC
:1051B000204484B26B49C9680819FFF739FE2044BE
:1051C00084B2204670BD10B50346002010BD0246D3
:1051D0000020704702460020704770B50025FFF799
:1051E000B9FB50B95F48007938B9624CB0202070E3
:1051F00001210020FFF755FB0125284670BD38B579
:10520000002500200090FFF7A5FBF8B9554800796C
:10521000E0B9584CAF202070BDF80000401C80B2AF
:105220000090BDF8001060186946FDF73FF90020B6
:10523000BDF800106054BDF80000401C80B2009022
:10524000BDF800100020FFF72CFB0125284638BDD3
:1052500070B504460D4644F400402946FFF721FB93
:1052600070BD2DE9F0413F480079002843D1424804
:1052700090F82707002848D03F48807907023E4829
:10528000C079074317F4004F02D1FFF763FB68BBF7
:105290003948857A334805743748007A4FEA002840
:1052A0003548407A40EA08082E48A0F808800024D3
:1052B00019E0324810F83400A84212D12F4800EB10
:1052C000C4002D490B314268284690470646002EFF
:1052D00006DDF8B23146FFF7BBFF01202149087116
:1052E00003E0601CC4B20D2CE3DB00BF00212248A8
:1052F00080F8271709E01B480079012805D1FFF73E
:1053000029FB10B9002017490871BDE8F08110B5DC
:10531000FFF7A7FF1A48C07978B11A48807820B102
:1053200018488078401E174988700E48408820B180
:105330000C484088401E0B49488010BD10B5002025
:10534000104988701421074800F0DBFA0948054924
:10535000C86010BD01460020B42900D1012070476B
:1053600042690108B0ED01204D6901085869010842
:10537000626901089EE8012064E10120806701085C
:105380005400002051000020F0B503460C460022D6
:10539000002100201FE0002101250DE056189E5D30
:1053A0000EB900250BE056189E5D675CBE4201D029
:1053B000002504E04E1CB1B2665C002EEED100BFA9
:1053C000665C06B10025012D03D15618761CB0B2DB
:1053D00004E0561CB2B29E5C002EDCD100BFF0BDD2
:1053E000F0B503460C460022002100201EE00021FB
:1053F00001250DE056189E5D0EB900250BE05618EC
:105400009E5D675CBE4201D0002504E04E1CB1B237
:10541000665C002EEED100BF665C06B10025012D52
:1054200002D15618761CB0B2561CB2B29E5C002E49
:10543000DDD1F0BD01460022002007E000EB800333
:1054400058008B5C303B1844531CDAB28B5C002B49
:10545000F4D170472DE9F04F05460C4694464FF0C5
:105460000A086746C246002B00DD9A46002200214A
:1054700011E0B7FBF8F606FB08F9A7EB090030309E
:1054800004EB010E05F80E000A4637460FB903B9C2
:1054900003E0481CC1B25145EBDB00BF002004EB28
:1054A000010E0EF1010E05F80E00501C4FEA600AC5
:1054B00000210FE0081915F800B0501A2044285CAC
:1054C00001EB040E05F80E00501A204405F800B058
:1054D000481CC1B25145EDDBA018401C80B2BDE8AC
:1054E000F08F30B502460B460021012007E0545CE6
:1054F0005D5CAC4201D0002006E04C1CA1B2545CC3
:1055000014B15C5C002CF2D100BF20B1545C5D5C36
:10551000AC4200D0002030BD30B502460B46002121
:10552000012007E0545C5D5CAC4201D0002006E045
:105530004C1CA1B2545C14B15C5C002CF2D100BFD5
:1055400020B1545C5D5CAC4200D0002030BD70B531
:1055500004460B46002020E0255C2909092904DCCB
:1055600001F1300503F8105003E001F1370503F8AD
:105570001050255C05F00F01092906DC01F130050A
:10558000EEB245006D1C5E5505E001F13705EEB247
:1055900045006D1C5E55451CA8B29042DCDB70BD19
:1055A00010B502460B46002011E01C24A4EB800439
:1055B00023FA04F404F00F01092903DC01F130049B
:1055C000145402E001F137041454441CE0B20828DA
:1055D000EBDB10BD01460020302904DB392902DC59
:1055E000A1F13002D0B2612904DB662902DCA1F10D
:1055F0005702D0B2412904DB462902DCA1F137026F
:10560000D0B2704770B504460E46002317E0E05C48
:1056100010B1581C205C00B914E0E05CFFF7DAFF21
:1056200005462807050E591C605CFFF7D3FF0543AC
:10563000184603EBD07149106554981C83B2701E54
:105640009842E4DC00BF581070BD30B5044600201D
:1056500003E0155C2554451CE8B2155C0DB1984279
:10566000F7DB08800025255430BD10B50346002027
:1056700005E01C5C8C4200D11A54441CA0B2B0F569
:105680007A7F02DA1C5C002CF3D110BD002115E0FA
:10569000435C0D2B02D0435C0A2B0ED10A4607E077
:1056A000531CC35C8354531CC35C03B904E0521CF9
:1056B00040F2FF339A42F3D300E0491C40F2FF333B
:1056C000994202D2435C002BE2D170472DE9F047AA
:1056D00004460D461646DDF820800027BC46002211
:1056E0000020002133E014F8019015F80CA0D145FA
:1056F00009D107F101091FFA89F700220CF101090C
:105700001FFA89FC1FE014F80190B9F10D0F04D0C5
:1057100014F80190B9F10A0F00D11DE0B7420ED183
:10572000A8F10109894509DD4FF0000A02F10109DC
:1057300003F809A014F8019003F80290012002F187
:1057400001091FFA89F201F101091FFA89F114F820
:105750000190B9F1000FC6D100BFBDE8F08770B568
:1057600002460D4600240020002319E01C26A6EB6B
:10577000830625FA06F606F00F0114B909B10020D8
:105780000124012C0AD1092903DC01F13006165449
:1057900002E001F137061654461CF0B25E1CF3B26B
:1057A000082BE3DB10B930261654012070BD10B56C
:1057B0004C1084EA530404D54042C1F1000138BFC3
:1057C000491E1B4204D55242C3F1000338BF5B1E81
:1057D00000F0C1F814F0804F04D04042C1F1000144
:1057E00038BF491E14F0004F04D05242C3F10003E9
:1057F00038BF5B1E10BD10B5431C02E010F8011B42
:1058000071B18107FAD14FF0013202C88C1A8C4372
:1058100014EAC211F9D0C01A0A0603D0C01E10BD86
:10582000C01A10BD0A0401D0801E10BD0902FCD0B0
:10583000401E10BD032A40F2308010F0030C00F02F
:10584000158011F8013BBCF1020F624498BF11F8BA
:1058500001CB00F8013B38BF11F8013BA2F1040273
:1058600098BF00F801CB38BF00F8013B11F00303EB
:1058700000F0F380083AC0F0088051F8043B083A81
:1058800051F804CBA0E80810F5E7121D5CBF51F8F1
:10589000043B40F8043BAFF30080D20724BF11F86B
:1058A000013B11F801CB48BF11F8012B24BF00F8D0
:1058B000013B00F801CB48BF00F8012B70474FF0C7
:1058C00000020429C0F0128010F0030C00F01B80CD
:1058D000CCF1040CBCF1020F18BF00F8012BA8BFDB
:1058E00020F8022BA1EB0C0100F00DB85FEAC17C9F
:1058F00024BF00F8012B00F8012B48BF00F8012B52
:1059000070474FF0000200B5134694469646203982
:1059100022BFA0E80C50A0E80C50B1F12001BFF468
:10592000F7AF090728BFA0E80C5048BF0CC05DF8CE
:1059300004EB890028BF40F8042B08BF704748BF1C
:1059400020F8022B11F0804F18BF00F8012B704790
:1059500070477047704753EA020C00F069802DE9E8
:10596000F04B4FF00006002B1FBFB3FA83F503FA8C
:1059700005F424FA05F65E4012BF1643B2FA82F52A
:1059800002FA05F4C5F120051EBF22FA05FC44EA1F
:105990000C04203556EA044C4FEA144418BF641C2A
:1059A0004FF000084FF00009904271EB030C39D31F
:1059B000002919BFB1FA81F701FA07F6B0FA80F7AA
:1059C00000FA07F6C7F120071EBF20FA07FC46EAD7
:1059D0000C062037B6FBF4FCA7EB0507103F07F0D9
:1059E0001F0BCBF120060CFA0BFB2CFA06F644BF7A
:1059F000B3460026202FA4BF5E464FF0000B5BEAA3
:105A0000060C08BF4FF0010B19EB0B09ABFB027C36
:105A100048EB0608C01B06FB02CC0BFB03CC71EB6A
:105A20000C01C1E70B46024641464846BDE8F08BF3
:105A300013B54FF000004FF00001AFF30080BDE858
:105A40001C40704710B500F03BF8006810BD10B561
:105A5000044600F035F8046010BD10B5203AC0F0DF
:105A60000B80B1E81850203AA0E81850B1E818505F
:105A7000A0E81850BFF4F5AF5FEA027C24BFB1E89C
:105A80001850A0E8185044BF18C918C0BDE810400D
:105A90005FEA827C24BF51F8043B40F8043B08BF16
:105AA0007047D20728BF31F8023B48BF11F8012BDD
:105AB00028BF20F8023B48BF00F8012B70470000C8
:105AC0000048704728EE01200048704728EE01206A
:105AD0007546FFF7F9FFAE4605006946534620F0CC
