:020000040800F2
:10000000184B002029020008690200086B02000852
:100010009102000895020008990200080000000003
:100020000000000000000000000000009D02000829
:100030009F02000800000000A10200087B230008C6
:10004000430200084302000843020008430200087C
:10005000430200084302000843020008430200086C
:10006000430200084302000843020008430200085C
:10007000430200084302000843020008430200084C
:10008000430200084302000843020008430200083C
:10009000430200084302000843020008430200082C
:1000A000430200084302000843020008430200081C
:1000B000430200084302000843020008430200080C
:1000C00043020008430200084302000843020008FC
:1000D00043020008430200084302000843020008EC
:1000E00043020008430200084302000843020008DC
:1000F00043020008430200084302000843020008CC
:1001000043020008430200084302000843020008BB
:1001100043020008430200084302000843020008AB
:10012000430200084302000843020008430200089B
:10013000430200084302000843020008430200088B
:10014000430200084302000843020008430200087B
:10015000430200084302000843020008430200086B
:10016000430200084302000843020008430200085B
:10017000430200084302000843020008430200084B
:10018000430200084302000800F002F800F03CF8C7
:100190000AA090E8000C82448344AAF10107DA45E2
:1001A00001D100F031F8AFF2090EBAE80F0013F0F8
:1001B000010F18BFFB1A43F0010318470C4B000056
:1001C0002C4B0000103A24BF78C878C1FAD85207E7
:1001D00024BF30C830C144BF04680C6070470000C1
:1001E0000023002400250026103A28BF78C1FBD840
:1001F000520728BF30C148BF0B6070471FB504F0DD
:1002000034FC1FBD10B510BD04F0FAFB1146FFF71A
:10021000F5FF01F005FF04F018FC03B4FFF7F2FF4F
:1002200003BC04F01BFC0000094880470948004754
:10023000FEE7FEE7FEE7FEE7FEE7FEE7FEE7FEE796
:10024000FEE7FEE704480549054A064B70470000F3
:10025000B10300088901000818450020184B002050
:10026000184700201847002070470EA100200BE01F
:100270000A5C174B9A8000BF154A128802F04002B0
:10028000002AF9D0421CD0B22A28F1D300BFFEE7E1
:1002900000BFFEE700BFFEE700BFFEE77047704704
:1002A000704700000D0A456E7465722048617264E3
:1002B0004661756C745F48616E646C65722C205386
:1002C000797374656D2048616C742E0D0A0000000E
:1002D000001001400CB500200190009076480068A5
:1002E00040F480307449086000BF7348006800F42F
:1002F000003000900198401C0190009818B90198B6
:10030000B0F5A04FF1D16C48006800F4003010B196
:100310000120009001E0002000900098012846D1C3
:1003200065484030006840F08050634940310860C3
:100330006248006840F44040604908605E48083008
:1003400000685D49083108600846006840F40040D4
:1003500008600846006840F4A05008605848091F2B
:100360000860081F006840F08070091F086000BF27
:100370005148006800F000700028F9D040F2057084
:10038000504908604C480830006820F003004A4992
:10039000083108600846006840F00200086000BFAD
:1003A00045480830006800F00C000828F8D10CBD62
:1003B00010B54548006840F47000434908603E4865
:1003C000006840F001003C49086000203A490831CB
:1003D0000860394800683D490840374908603C4892
:1003E000091D0860081F006820F48020091F0860AC
:1003F000002031490C310860FFF76CFF4FF00060BE
:1004000031498039086010BD70B5002000220223F8
:1004100000240221284D08352D6805F00C0020B17C
:10042000042806D0082834D107E02A4D2A4E35602A
:1004300033E02A4D284E35602FE01F4D2D1D2D68CD
:10044000C5F380541C4D2D1D2D6805F03F0154B19E
:10045000224DB5FBF1F5184E361D3668C6F38816E9
:1004600005FB06F209E01B4DB5FBF1F5124E361DFA
:100470003668C6F3881605FB06F20F4D2D1D2D6854
:10048000C5F301456D1C6B00B2FBF3F5124E3560F0
:1004900003E0104D104E356000BF00BF064D08351B
:1004A0002D68C5F303150E4E705D0B4D2D68C540CC
:1004B000094E356070BD00000038024000700040F9
:1004C00008544007003C024088ED00E0FFFFF6FEC4
:1004D000103000240024F4000000002000127A00F4
:1004E0000400002010B50121080201F0D8FA002113
:1004F0004FF4807001F0D3FA10BD30B502460020F1
:1005000000235068F84C20400D790C6844EA05241B
:10051000204350609068F54C2040D1E903542C43AF
:100520008D682C434D7944EA450420439060D06A9D
:1005300020F470000C7D641EE4B2234340EA0350B3
:10054000D06230BD00210160017141718160C160E4
:1005500001610121017570470021E54A1168E54AF2
:100560001140D0E900231A4383681A43C3681A4331
:100570001143E14AC2F80413704700210160416051
:100580008160C160704721B1826842F001028260DF
:1005900003E0826822F00102826070470A4600216F
:1005A0004168D64B194011434160704741628262F5
:1005B00070470A460021416821F01F011143416044
:1005C000704738B1CA49096841F40001CA4AC2F803
:1005D000041306E0C649096821F40001C64AC2F8BE
:1005E0000413704738B1C249096841F48001C24A16
:1005F000C2F8041306E0BE49096821F48001BE4A2E
:10060000C2F804137047F0B504460D4600200021DF
:10061000092D11DDE068A5F10A0606EB460707265D
:1006200006FA07F18843A5F10A0606EB460603FA27
:1006300006F10843E0600CE0206905EB450707265A
:1006400006FA07F1884305EB450603FA06F108436D
:100650002061072A0FDA606B561E06EB86071F26FD
:1006600006FA07F18843561E06EB860605FA06F1E0
:100670000843606322E00D2A0FDA206BD61F06EBD9
:1006800086071F2606FA07F18843D61F06EB860663
:1006900005FA06F10843206310E0E06AA2F10D06B6
:1006A00006EB86071F2606FA07F18843A2F10D061E
:1006B00006EB860605FA06F10843E062F0BD8168A4
:1006C00041F0804181607047014600208A6802F055
:1006D00080420AB1012000E00020704721B1826809
:1006E00042F48062826003E0826822F48062826069
:1006F000704721B1826842F00202826003E08268A2
:1007000022F002028260704710B50A4600210023E1
:10071000416821F46041531E41EA4331416010BDFC
:1007200021B1426842F40062426003E0426822F470
:100730000062426070470146C86C80B270476C48E6
:10074000001D0068704721B1826842F480728260A7
:1007500003E0826822F480728260704721B182686F
:1007600042F40072826003E0826822F400728260C8
:10077000704738B15E49096841F400515E4AC2F8D9
:10078000041306E05A49096821F400515A4AC2F894
:1007900004137047F0B504461546002000220026D9
:1007A000092911DDE068A1F10A0707EB470C0727CB
:1007B00007FA0CF29043A1F10A0707EB470703FA87
:1007C00007F21043E0600CE0206901EB410C0727C1
:1007D00007FA0CF2904301EB410703FA07F21043CA
:1007E0002061A06BC0F30156EF1C06F1010CA7EBD2
:1007F0000C0707EB870C1F2707FA0CF29043EF1C3E
:1008000006F1010CA7EB0C0707EB870701FA07F2CB
:100810001043A063F0BD10B50A4600210023816B90
:1008200021F44011531E41EA0351816310BD08B504
:10083000002300930090009B0B440093009B1A60E0
:1008400008BD0A460021816821F4702111438160AE
:1008500070470A460021816821F4401111438160EC
:100860007047816841F48001816070470146002033
:100870008A6802F480020AB1012000E0002070477B
:1008800021B1426842F48062426003E0426822F48F
:1008900080624260704721B1426842F480524260F7
:1008A00003E0426822F480524260704708B5024675
:1008B00000200090009201F12800009B1844009055
:1008C0000098006880B208BD10B50B460021D9B26F
:1008D000012404FA01F11AB144680C43446002E0B7
:1008E00044688C43446010BDFFFEFFFCFDF7FFC071
:1008F00004230140E030FCFF00200140FFFD3FFFEA
:100900000246002013680B400BB1012000E00020DC
:100910007047CA430260704770B50246002000234A
:1009200000240B12556801268E4005EA060415685E
:100930001D4015B10CB1012000E0002070BD002267
:100940000A12D34303607047016821F0010101607E
:100950000021016041608160C1600161212141612C
:10096000DB49884204D13D21D94A103A91608CE09C
:10097000D7491831884205D14FF47461D44A103AEE
:10098000916082E0D2493031884205D14FF4741130
:10099000CF4A103A916078E0CD494831884205D17C
:1009A0004FF07461CA4A103A91606EE0C8496031F4
:1009B000884204D1C749C64A103AD16065E0C449AB
:1009C0007831884204D1C449C14A103AD1605CE010
:1009D000BF499031884204D1C049BD4A103AD16024
:1009E00053E0BB49A831884205D14FF03D51B84A88
:1009F000103AD16049E0BA49884204D13D21B84A51
:100A0000083A116041E0B6491831884205D14FF4E7
:100A10007461B34A083A116037E0B1493031884215
:100A200005D14FF47411AE4A083A11602DE0AC497B
:100A30004831884205D14FF07461A94A083A1160E3
:100A400023E0A7496031884204D1A249A44A121F79
:100A500011601AE0A2497831884204D19E49A04A27
:100A6000121F116011E09E499031884204D19B49C8
:100A70009B4A121F116008E09949A831884204D1AD
:100A80004FF03D51964A121F1160704710B5002279
:100A90000268944B1A40CC680B6823434C6923438B
:100AA0008C692343CC6923430C6A23434C6A234358
:100AB0008C6A23434C6B23438C6B23431A430260A1
:100AC000426922F00702D1E90B3423431A43426101
:100AD0000B6943604B6883608B68C36010BD002165
:100AE000016041608160C160016141618161C161FA
:100AF000016241628162C162016341638163704747
:100B000021B1026842F00102026003E0026822F0B3
:100B100001020260704721B1026842F400420260A3
:100B200003E0026822F400420260704721B10268CB
:100B300042F02002026003E0026822F0200202601C
:100B40007047416070470146486880B2704722B1E3
:100B5000036843F40023036003E0036823F40023E5
:100B600003600161704721B1026842F48022026093
:100B700003E0026822F48022026070470AB101613A
:100B800000E0C1607047014600200A6802F40022BC
:100B90000AB1012000E000207047014600200A68E9
:100BA00002F001020AB1012000E000207047014676
:100BB00000204A6902F03800704730B503460A4603
:100BC00000200024464DAB4202D24149103901E0D9
:100BD0004349103902F000550DB14C6800E00C6833
:100BE000414D2C4004EA02050DB1012000E0002037
:100BF00030BD02463A4B9A4202D23548103801E0E5
:100C00003748103801F000531BB1374B0B40C3601D
:100C100002E0354B0B408360704710B501F0800354
:100C20004BB122B1436943F08003436103E0436960
:100C300023F08003436180290BD02AB1036801F0BF
:100C40001E042343036004E0036801F01E04A34371
:100C5000036010BD70B50246002000240025204E20
:100C6000B24202D21A4B103B01E01D4B103B1F4E0B
:100C70000E4036B11E2606EAD124166806EA04059F
:100C800002E0566906F0800501F000560EB15C687E
:100C900000E01C68144E344004EA010616B10DB1A0
:100CA000012000E0002070BD02460D4B9A4202D2A6
:100CB0000748103801E00A48103801F000531BB112
:100CC000094B0B40C36002E0074B0B408360704749
:100CD000106002403D000020400F002000003D2039
:100CE000106402403F801CF07D0F7D0F3C0F3C0FD5
:100CF00030B943F2DB028100A1F1C0410A6005E096
:100D000043F2D2028100A1F1C0410A606FF070424B
:100D1000411C8900A1F1C0410A608100A1F1C041DC
:100D2000C1F804217047D0E901121143C268114390
:100D3000026911434269114382691143C269114337
:100D4000026A1143426A1143826A1143C26A114323
:100D5000026B114302689200A2F1C04211608168E7
:100D600008290BD101688900A1F1C041096841F04F
:100D7000400201688900A1F1C0410A60416B096825
:100D8000426B526841EA0211426B926841EA0221C9
:100D9000426B928941EA0241426B128A41EA025156
:100DA000426B127D41EA0261426B92691143026813
:100DB000521C9200A2F1C0421160C16AB1F5804F8D
:100DC0001BD1816B0968826B526841EA0211826B08
:100DD000926841EA0221826B128A41EA0251826BD7
:100DE000127D41EA0261826B9269114302689200AE
:100DF000A2F1C042C2F8041107E06FF0704201682E
:100E00008900A1F1C041C1F80421704700210160AF
:100E10000221416000218160C16001614161816105
:100E2000C16101624FF48051416249008162002139
:100E3000C16201630F21426B1160426B5160FF215F
:100E4000426B91600F21426BD160426B1161426B2A
:100E500051610021426B91610F21826B1160826BA5
:100E60005160FF21826B91600F21826BD160826B98
:100E70001161826B51610021826B9161704751B1A8
:100E80008200A2F1C042126842F001038200A2F186
:100E9000C042136009E08200A2F1C0421268F94B1F
:100EA0001A408300A3F1C0431A60704710280AD18A
:100EB00018214FF020421166402151664FF0FC315D
:100EC0009166D16610E01821EF4A116040214FF081
:100ED0002042C2F884104FF0FC31EB4A0832116016
:100EE0004FF02042C2F88C10704730B5002100222C
:100EF0000023446844F0080485682C43C5682C43EB
:100F000005692C43456944EA4524856944EA45312D
:100F1000C4692468C5696D6844EA0524C5692D89DA
:100F200044EA0544C5692D7B44EA0562046A2468E5
:100F3000056A6D6844EA0524056A2D8944EA05447A
:100F4000056A2D7B44EA05630468102C05D14FF037
:100F500020442166A266E36608E0CB4C21604FF096
:100F60002044C4F88820C84C0C34236030BD1021C4
:100F70000160002141608160C16001614161816166
:100F8000FC21C2691160C2695160C2699160C26985
:100F9000D160026A1160026A5160026A9160026A5D
:100FA000D160704799B1102808D14FF02042126EDD
:100FB00042F004024FF020431A661DE0B24A126864
:100FC00042F004024FF02043C3F8802014E01028C0
:100FD00009D14FF02042126EAA4BDB1E1A404FF08F
:100FE00020431A6608E0A84A1268A64BDB1E1A4086
:100FF0004FF02043C3F88020704799B1102808D1E2
:101000004FF02042126E42F040024FF020431A6629
:101010001DE09D4A126842F040024FF02043C3F8A1
:10102000802014E0102809D14FF02042126E954B19
:101030003F3B1A404FF020431A6608E0924A12687C
:10104000904B3F3B1A404FF02043C3F8802070473D
:1010500001460020102903D14FF02042506F02E0DA
:10106000894A143210687047182087492031086077
:1010700000200906C1F8A4004FF0FC308249283155
:101080000860091D0860091D08607047016841F08B
:101090001001426841EA4221826841EA42317A4ABB
:1010A00020321160C1680968C268526841EA0221B1
:1010B000C268128941EA0241C268127B41EA0261B8
:1010C000714A28321160016909680269526841EA6F
:1010D00002210269128941EA02410269127B41EA56
:1010E0000261694A2C32116041690968426952689B
:1010F00041EA02214269128941EA02414269127BB6
:1011000041EA02614FF02042C2F8B010704700215E
:10111000016041608160FC21C2681160C268516059
:10112000C2689160C268D160026911600269516051
:10113000026991600269D16042691160426951603F
:10114000426991604269D160704748B14E4920318F
:10115000096841F004014FF02042C2F8A01009E0F4
:10116000494920310968474AD21E11404FF02042B8
:10117000C2F8A010704710B5F2B1102807D14FF097
:1011800020435B6E0B434FF02044636632E0B0F5C2
:10119000807F08D13C4B1B1D1B680B434FF0204444
:1011A000C4F8843026E0384B24331B680B434FF0DF
:1011B0002044C4F8A4301DE0102807D14FF020438C
:1011C0005B6E8B434FF02044636613E0B0F5807F85
:1011D00008D12D4B1B1D1B688B434FF02044C4F8D6
:1011E000843007E0284B24331B688B434FF02044A6
:1011F000C4F8A43010BD10B5024600200023102A08
:1012000003D14FF02044636E09E0B2F5807F03D133
:101210001D4C241D236802E01B4C2434236803EA80
:1012200001040CB1012000E0002010BD102807D1FE
:101230004FF02042526E8A434FF020435A6613E02B
:10124000B0F5807F08D1104A121D12688A434FF012
:101250002043C3F8842007E00B4A243212688A43F3
:101260004FF02043C3F8A420704770B50246002019
:10127000002300240025102A08D14FF02046736E69
:101280000DE00000FEFF0F00800000A0B2F5807F9F
:1012900002D1184E336802E0164E2036336803EA56
:1012A000010403EAD10514B10DB1012000E00020D2
:1012B00070BD102808D14FF02042526E22EAD102B0
:1012C0004FF020435A6614E0B0F5807F08D1094AF8
:1012D000126822EAD1024FF02043C3F8842008E0CC
:1012E000044A2032126822EAD1024FF02043C3F8A8
:1012F000A4207047840000A010B50446984884429A
:1013000008D10121084600F086FB0021012000F0F1
:1013100082FB76E09348844208D10121022000F04C
:101320007AFB0021022000F076FB6AE08E488442BE
:1013300008D10121042000F06EFB0021042000F000
:101340006AFB5EE08948844208D10121082000F050
:1013500062FB0021082000F05EFB52E084488442DA
:1013600008D10121102000F056FB0021102000F0D0
:1013700052FB46E07F48844208D10121202000F042
:101380004AFB0021202000F046FB3AE07A488442E4
:1013900008D10121402000F03EFB0021402000F058
:1013A0003AFB2EE07548844208D10121802000F0EC
:1013B00032FB0021802000F02EFB22E070488442A6
:1013C00008D10121801500F026FB0021A01500F0B6
:1013D00022FB16E06B48844208D10121401500F041
:1013E0001AFB0021601500F016FB0AE066488442F3
:1013F00007D10121001500F00EFB0021201500F09F
:101400000AFB10BDF0B50A4600210023002400BFEE
:101410003DE0012505FA01F3156805EA03049C4245
:1014200034D105684F000326BE40B54305601579E9
:101430004E00B5400668354305601579012D02D090
:101440001579022D16D185684F000326BE40B5439D
:10145000856055794E00B54086683543856045689E
:1014600001268E40B5434560456896798E40B6B2F8
:1014700035434560C5684F000326BE40B543C5608F
:10148000D5794E00B540C6683543C560491C102962
:10149000BFD3F0BD4FF6FF710160002101714171B2
:1014A0008171C171704708B54FF480320092009A83
:1014B0000A430092009AC261C161009AC261C26986
:1014C0000092C269009208BD0246002013690B40D9
:1014D0000BB1012000E0002070470146086980B28E
:1014E00070470246002053690B400BB1012000E019
:1014F000002070470146486980B2704701837047F9
:10150000418370470AB1018300E041837047416124
:10151000704742694A4042617047F0B50023002499
:101520004D07ED0E02FA05F3CE1000F1200555F837
:1015300026504E07F70E0F26BE40B543CF1000F1E0
:10154000200646F82750CE1000F1200555F8265009
:1015500045EA0304CE1000F1200545F82640F0BD11
:10156000000002400004024000080240000C02405B
:10157000001002400014024000180240001C02400B
:10158000002002400024024000280240F948006880
:1015900040F00100F74908600020F6490831086072
:1015A000F4480068F4490840F2490860F348091D0E
:1015B0000860F348EF4984310860F0481038091D8D
:1015C0000860EC48006820F48020EA4908600020A8
:1015D000E8490C310860E7498C3108607047002108
:1015E000E44A921C117011460870704710B501460C
:1015F0000022002300204A11012A02D1DD4C236879
:1016000008E0022A03D1DB4C7034236802E0D94C95
:101610007434236801F01F02012494401C400CB173
:10162000012000E0002010BD38B50020009000240B
:10163000002500BF3120FFF7D9FF05460098401C68
:1016400000900098B0F5A04F01D0002DF2D03120CD
:10165000FFF7CCFF08B1012400E00024204638BD8C
:1016600001460020C34A106820F0F80040EAC1009B
:1016700010607047C349086070470021BD4A70324E
:1016800011701170012802D004280AD104E0012150
:10169000B84A7032117005E00521B64A70321170F7
:1016A00000E000BF00BF7047B7490860704770B5E1
:1016B000049C41EA82150126C6EB530645EA06451D
:1016C000054345EA0465AB4E361D356070BDAD4936
:1016D00008667047820142EA0172A64B84331A60A1
:1016E0007047A8498866704710B5830143EA0163D3
:1016F00043EA02739F4C8834236010BDA1490867F8
:101700007047A049C864704702460020994B0833CF
:10171000186820F0EC6042EA01031843954B083347
:101720001860704702460020924B0833186820F07A
:10173000784042EA010318438E4B08331860704723
:10174000014600208B4A0832106820F0030008434D
:101750001060704787480830006800F00C00704740
:1017600001460020834A0832106820F0F000084348
:1017700010607047014600207E4A0832106820F44D
:10178000E05008431060704701460020794A083253
:10179000106820F4604040EAC10010607047F0B566
:1017A000002100220024022500260223714F083761
:1017B0003F6807F00C0121B1042905D0082937D171
:1017C00005E0724F076036E0714F076033E0694F04
:1017D0003F1D3F68C7F38056664F3F1D3F6807F0C7
:1017E0003F036EB16A4FB7FBF3F7DFF888C10CF126
:1017F000040CDCF800C0CCF3881C07FB0CF40CE0F4
:10180000624FB7FBF3F7DFF86CC10CF1040CDCF8A6
:1018100000C0CCF3881C07FB0CF4564F3F1D3F68FB
:10182000C7F301477F1C7D00B4FBF5F7076002E0BA
:10183000564F076000BF00BF4E4F08373F6807F0A4
:10184000F0010909534F7A5C0768D7404760494F58
:1018500008373F6807F4E051890A4E4F7A5C4768C1
:10186000D7408760434F08373F6807F46041490B12
:10187000484F7A5C4768D740C760F0BD002100F44C
:101880004072B2F5407F0AD13A4A0832116821F419
:10189000F811414A02401143364A08321160354A74
:1018A00070321268C0F30B031A43324B70331A6064
:1018B00070473549443908607047334940390860FA
:1018C000704736490860704701460020294A8C322B
:1018D000106820F01F004A1E1043264A8C32106008
:1018E000704701460020234A8C32106820F4F850DB
:1018F0004A1E40EA02201F4A8C321060704701469F
:1019000000201C4A8C32106820F4401008431060FC
:10191000704701460020174A8C32106820F44000BE
:1019200008431060704701460020124A8C3210684C
:1019300020F4403008431060704719490860704730
:1019400039B10C4A3032126802430A4B30331A6004
:1019500006E0084A303212688243064B30331A6080
:101960007047F9B1034A343212680243014B3433F1
:101970001A601CE000380240FFFFF6EA1030002435
:101980000030002000004742800E47420024F4004F
:1019900000127A0014000020FFFCFF0F5C01474298
:1019A000E0114742854A12688243844B1A607047AF
:1019B00039B1824A121D12680243804B1B1D1A6006
:1019C00006E07E4A121D126882437C4B1B1D1A6082
:1019D000704739B1794A0C3212680243774B0C33A5
:1019E0001A6006E0754A0C3212688243734B0C335E
:1019F0001A60704739B1714A1032126802436F4B56
:101A000010331A6006E06D4A1032126882436B4B45
:101A100010331A60704739B1684A243A1268024399
:101A2000664B243B1A6006E0644A243A12688243FB
:101A3000624B243B1A60704739B1604A203A126801
:101A400002435E4B203B1A6006E05C4A203A126873
:101A500082435A4B203B1A60704739B1574A1C3AAF
:101A600012680243554B1C3B1A6006E0534A1C3A6D
:101A700012688243514B1C3B1A60704739B14F4A80
:101A8000143A126802434D4B143B1A6006E04B4A6D
:101A9000143A12688243494B143B1A60704739B1BB
:101AA000464A103A12680243444B103B1A6006E063
:101AB000424A103A12688243404B103B1A6070470A
:101AC00039B13E4A1C32126802433C4B1C331A6047
:101AD00006E03A4A1C3212688243384B1C331A60C3
:101AE000704739B1354A203212680243334B2033F4
:101AF0001A6006E0314A2032126882432F4B2033AD
:101B00001A60704739B12D4A2432126802432B4BB8
:101B100024331A6006E0294A243212688243274B94
:101B200024331A60704739B1244A2C3212680243B8
:101B3000224B2C331A6006E0204A2C321268824372
:101B40001E4B2C331A60704739B11C4A3032126870
:101B500002431A4B30331A6006E0184A30321268DA
:101B60008243164B30331A60704739B1134A273A13
:101B700012780243114B273B1A7006E00F4A273AAE
:101B8000127882430D4B273B1A7070470B48403048
:101B9000006840F080700949403108607047014694
:101BA0000020064A283A12680A400AB1012000E0E3
:101BB00000207047014926390870704734380240C8
:101BC00010B50446FA48844208D101211020FFF7DD
:101BD00066FF00211020FFF762FF57E0F5488442BE
:101BE00009D101214804FFF749FF00214FF40030DB
:101BF000FFF744FF4AE0F048844209D101218804FC
:101C0000FFF73CFF00214FF48020FFF737FF3DE056
:101C1000EA48844209D10121C804FFF72FFF0021BF
:101C20004FF40020FFF72AFF30E0E548844209D155
:101C300001210805FFF722FF00214FF48010FFF774
:101C40001DFF23E0DF48844208D101212020FFF757
:101C500026FF00212020FFF722FF17E0DA48844208
:101C600009D101218807FFF709FF00214FF08040CB
:101C7000FFF704FF0AE0D548844207D1012140055F
:101C8000FFF7FCFE00216005FFF7F8FE10BD2DE90F
:101C9000FF4705460E460024A14600BFA046B08976
:101CA00000B100BF2C8A24F44054F08804432C82F5
:101CB000AC8941F20C608443B08831890843718952
:101CC00008430443AC81AC8A24F44074B0890443D3
:101CD000AC826846FFF763FDB548854202D0B9483B
:101CE000854202D1DDF80C9001E0DDF80890A8896A
:101CF00000F4004040B109EBC90000EB0910316865
:101D00004900B0FBF1F707E009EBC90000EB09104F
:101D100031688900B0FBF1F76420B7FBF0F00401F3
:101D20002009642101FB1078A88900F4004040B12B
:101D3000322000EBC800B0FBF1F000F007000443D4
:101D400008E0322000EB08106421B0FBF1F000F055
:101D50000F0004432C81BDE8FF874FF4165101604A
:101D600000218180C18001810C214181002181817C
:101D7000704710B502460020108A20F470600B886E
:101D80004C8823438C882343CC88234318431082F8
:101D900010BD0021018041808180C180704721B148
:101DA000828942F40052828104E082894DF6FF73F9
:101DB0001A4082817047028B02F47F420283028BB9
:101DC0000A430283704721B1828942F40042828132
:101DD00003E08289C2F30E028281704721B1828AB8
:101DE00042F40062828204E0828A4FF2FF731A405A
:101DF00082827047C1F3080282807047014688885A
:101E0000C0F308007047028A4FF6F0731A4002824E
:101E1000028A0A430282704721B1828942F002029B
:101E2000828104E082894FF6FD731A4082817047F7
:101E300082894FF2FF731A40828182890A4382812C
:101E40007047028A4FF6DF731A400282028A0A4301
:101E50000282704721B1028A42F48042028204E089
:101E6000028A4BF6FF731A4002827047818941F063
:101E700001018181704721B1828A42F00802828289
:101E800004E0828A4FF6F7731A4082827047028B11
:101E9000D2B20283028B42EA01220283704721B14F
:101EA000828A42F02002828204E0828A4FF6DF7347
:101EB0001A408282704721B1828A42F010028282E7
:101EC00004E0828A4FF6EF731A4082827047828A5A
:101ED0004FF6FB731A408282828A0A4382827047DD
:101EE00021B1828A42F00202828204E0828A4FF6A5
:101EF000FD731A40828270471AB1838A0B43838232
:101F000002E0838A8B4383827047F0B50346002446
:101F100000260025002040F66A17B94200D100BF14
:101F20001846C1F3421401F01F06012707FA06F50F
:101F3000012C01D10C3004E0022C01D1103000E062
:101F400014301AB107682F43076002E00768AF43F7
:101F50000760F0BD02460020B1F5007F00D100BF50
:101F600013880B400BB1012000E00020704701F402
:101F70000072B2F5007F00D100BFCA4302807047F3
:101F800070B50246002400230025002040F66A16A2
:101F9000B14200D100BFC1F3421501F01F03012679
:101FA00006FA03F3012D13D19689334017E00000A0
:101FB000001001400044004000480040004C004038
:101FC000005000400014014000780040007C0040B8
:101FD000022D02D1168A334001E0968A33400C125A
:101FE000012606FA04F41688344013B10CB101201E
:101FF00000E0002070BD10B50022002340F66A14F6
:10200000A14200D100BF0A1201249440A3B2DC43D4
:10201000048010BD10B501210807FFF7DAFC10BDE0
:10202000FFF7F8FF00F054F900F018FA00F0C9FECD
:1020300002F027FB00F097FB01F022FB01F046FBCA
:1020400001F0EAFF02F022FA19E000F057F902F07D
:1020500043FB00F0B0FB01F042FA00F0C1FE00F0DB
:1020600019FA02F0B1FA01F09CFB01F0BEFF00F09A
:102070009DFB01F02FFA02F0F3FA00F078F9E4E7A3
:1020800030B54C06230E026803249C40A243012471
:102090009C4022430260446801258D40AC4344606B
:1020A000456801248C40A4B22543456030BD30B55D
:1020B0004C06230E026803249C40A24301249C404A
:1020C00022430260446801258D40AC43446045686A
:1020D00000248C40A4B22543456030BD42680123F2
:1020E0008B409A434260426800238B409BB21A4364
:1020F0004260704730B54C06230E026803249C40B2
:10210000A24301249C4022430260446801258D4083
:10211000AC434460456800248C40A4B2254345602C
:1021200030BD01228A400283704701228A404283E7
:10213000704770B54C06230E026803249C40A243EE
:1021400000249C4022430260C4684E000325B54031
:10215000AC43C46070BD70B54C06230E0268032406
:102160009C40A24300249C4022430260C4684E006D
:102170000325B540AC43C460C4684E000125B5409A
:102180002C43C46070BD10B50A465406230E016886
:1021900003249C40A14303249C402143016010BDC3
:1021A00030B54C06230E026803249C40A24302244F
:1021B0009C4022430260446801258D40AC4344604A
:1021C000456800248C40A4B22543456030BD70476B
:1021D00030B504460D460120A840208329462046FC
:1021E000FFF765FF0120A840208330BD30B50446CD
:1021F0000D460120A840608329462046FFF757FF7F
:102200000120A840608330BD30B504460D46012052
:10221000A840208329462046FFF732FF0120A8402E
:10222000208330BD30B504460D460120A8406083B0
:1022300029462046FFF724FF0120A840608330BDD7
:1022400070B504460E46012000FA06F56069284084
:1022500008B1658300E0258331462046FFF727FF5C
:1022600070BD0246106901238B40184008B101205F
:1022700070470020FCE70246506901238B4018405C
:1022800008B1012070470020FCE7F0B500230024CE
:102290004D07ED0E02FA05F3CE1000F1200555F8BA
:1022A00026504E07F70E0F26BE40B543CF1000F163
:1022B000200646F82750CE1000F1200555F826508C
:1022C00045EA0304CE1000F1200545F82640F0BD94
:1022D00000204FF0E0218861564800684FF47A6191
:1022E000B0FBF1F0401E4FF0E0214861072008618B
:1022F0005148002101604160018170474F480078DA
:10230000A0B100204FF0E02108614B484B490A681A
:1023100002604A68426009890181484800210160E1
:102320004160018107204FF0E021086142480079B7
:10233000E0B143480088401C4149088008460078C5
:1023400000F0010010B901203B4948713C48007879
:1023500000F0030010B9012037498871384800881F
:10236000C0F30B0010B9012033494872704732485E
:102370000021016041600181704732480078401CB3
:102380003049087008460078012800DC70470020BA
:102390002C4908702C480078401C2B4908702B48A9
:1023A0000078401C2949087029480078401C2849B9
:1023B000087008460078C82813DB01201F49C8713F
:1023C00000202349087023480078401C21490870E8
:1023D000084600780A2804DB00200870012017490D
:1023E00008721A480078142805DB01201349C870C8
:1023F0000020164908701448007800F00300B8B9AE
:1024000001200E49087014480078401C12490870D9
:102410000846007800F0030010B9012007498870D1
:102420000D48007800F0070010B901200349087139
:1024300000BFABE700000020700000207A00002001
:10244000240000202A000020260000202800002070
:10245000290000202B000020270000201CB50121AE
:102460002020FFF76DFA4FF40070009000208DF8E7
:10247000060001208DF807008DF8040002208DF879
:10248000050069461048FEF7BDFF09210E48FFF719
:1024900031FE1CBD10B50D48007A18B109210A485B
:1024A000FFF7CEFE10BD70B506460C46084802F098
:1024B000C1F985B22A460649304602F0DAF9208889
:1024C0002844208070BD00000014024070000020ED
:1024D000744A00081FB5044601214804FFF779FA41
:1024E00000940020ADF80400ADF80600ADF8080037
:1024F000ADF80C000C20ADF80A006946D848FFF78B
:10250000C6FB0122C021D648FFF7F6FC002240F2AC
:102510002661D348FFF7F9FC002240F22551D0484C
:10252000FFF7F3FC002240F22441CD48FFF7EDFC19
:102530000121CB48FFF733FC1FBD1CB50121084624
:10254000FFF7FEF90420009000208DF8060001201E
:102550008DF8070002208DF804008DF8050069460B
:10256000C048FEF74FFF07220221BE48FEF7D5FF05
:10257000082000906946BB48FEF744FF072203216C
:10258000B848FEF7CAFF1CBD10B50021B64B9B79B9
:102590008BB1B64B93F826376BB1B44B93F8263713
:1025A0005B1EB24C84F82637234693F8263713B9BE
:1025B0000023A4F82A37AE4B93F81835002B7BD1B3
:1025C000AA4B93F82737002BF9D1B4E0A74B9B888F
:1025D0005B1EA64CA38023465B88C3F309022346F7
:1025E0005B885B1C638004F22633985C2346B3F857
:1025F0002A374BB9552806D100239E4C237001235E
:102600009A4CA4F82A3791E0984BB3F82A37012B5B
:102610000DD1FF2804D10223944CA4F82A3785E079
:10262000552803D00023914CA4F82A377EE08F4B25
:10263000B3F82A37032B11DC8C4BB3F82A379B1ED7
:102640008A4CA41DE0540023A41FA4F82837234675
:10265000B3F82A375B1CA4F82A3767E0834BB3F83A
:102660002A37052B29DC814BB3F828374FF6FF7446
:1026700004EA03237D4CA4F828372346B3F828370F
:102680000343A4F828372346B3F82A379B1EA41D1A
:10269000E054A31FB3F82A375B1CA41FA4F82A3701
:1026A0002346B3F8283740F21B34A3423EDB002315
:1026B0006E4CA4F82A3739E043E06C4BB3F82A3764
:1026C0009B1E6A4CA41DE054A31FB3F82A375B1C61
:1026D000A41FA4F82A372346B3F82A47B3F82837AB
:1026E000DB1D9C4222DB0023604CA4F82A37614B9F
:1026F0001B78834219D1062384F82C372346B3F87C
:1027000028375B1DA4F8283723469B7919022346F6
:10271000DB7919432346B3F82E378B4205D00123CA
:1027200084F827372346A3F82E1709E0514B1B786E
:102730000344504C23704D4B9B88002B3FF746AF12
:1027400000BF10BD10B54FF4E661484802F0D6F85E
:1027500040F21A51464802F0D1F84FF6FF70434953
:10276000A1F82E0710BD10B5FFF7ECFFFFF7E5FE4F
:102770004FF46130FFF7AEFE002000F004FC10BD06
:1027800010B53948807980B1394890F8190560B1A1
:10279000374890F81905401E354981F81905084653
:1027A00090F8190508B9FFF7DEFF10BD00202F498A
:1027B00081F82707704710B52D4890F8180538B1F3
:1027C00000F0CEFB012803D10020294981F818052B
:1027D00000F0E8FB254B1B1D4FF48062191F01F22E
:1027E000263000F0DEFBFFF7CBFFFFF7CDFE1E48E3
:1027F000C07988B11D4890F82C0768B11B4890F843
:102800002C07401E194981F82C07084690F82C0720
:1028100010B9002081F8270710BD10B5024600202E
:102820005523134C2371FF24114B5C7114129C71BE
:10283000DA710C121C7259728B1D0D4C2380C82347
:1028400084F8193500236380012384F8183510BDFE
:102850000120074991F8181501B9002070470000C0
:10286000004400400000024070000020840000206E
:10287000B40700202C0000204FF0C04211527047D6
:1028800001464FF0C040405A704700B59DB001214D
:102890000846FFF78DF802200790052008900220D7
:1028A000099000200A900B900C900D90022000904F
:1028B00005200190022002900020039004900590D2
:1028C00006900E900F901090102011900020129002
:1028D00014901390159016904FF48050179000208C
:1028E00018904FF48040199000201A9007A81B9070
:1028F000CDF870D00EA8FEF716FA01210020FEF7E1
:10290000BEFA1DB000BD1CB50121FE48FFF718F846
:102910000C220021FC48FEF700FE0C220121FA489F
:10292000FEF7FBFD0C220421F748FEF7F6FD0C2212
:102930000521F548FEF7F1FD0C220721F248FEF7CC
:10294000ECFD0C220821F048FEF7E7FD0C220921DE
:10295000ED48FEF7E2FD0C220A21EB48FEF7DDFD13
:102960000C220B21E848FEF7D8FD0C221146E64860
:10297000FEF7D3FD0C220D21E348FEF7CEFD0C221D
:102980000E21E148FEF7C9FD0C220F21DE48FEF7BB
:10299000C4FD0C220021DD48FEF7BFFD0C22012101
:1029A000DA48FEF7BAFD0C220221D848FEF7B5FD41
:1029B0000C220321D548FEF7B0FD0C220421D34898
:1029C000FEF7ABFD0C220521D048FEF7A6FD0C2238
:1029D0000621CE48FEF7A1FD0C220721CB48FEF7C9
:1029E0009CFD0C220821C948FEF797FD0C22092105
:1029F000C648FEF792FD0C220A21C448FEF78DFD61
:102A00000C220B21C148FEF788FD0C221146BF485D
:102A1000FEF783FD0C220D21BC48FEF77EFD0C2243
:102A20000E21BA48FEF779FD0C220F21B748FEF7B8
:102A300074FD0C220021B648FEF76FFD0C22012127
:102A4000B348FEF76AFD0C220221B148FEF765FD8E
:102A50000C220321AE48FEF760FD0C220421AC4895
:102A6000FEF75BFD0C220521A948FEF756FD0C225E
:102A70001146A748FEF751FD0C220D21A448FEF790
:102A80004CFD0C220E21A248FEF747FD0C220F211F
:102A90009F48FEF742FD0C2200219E48FEF73DFDB7
:102AA0000C2201219B48FEF738FD0C220221994897
:102AB000FEF733FD0C2203219648FEF72EFD0C2273
:102AC00004219448FEF729FD0C2205219148FEF7C8
:102AD00024FD0C220D218F48FEF71FFD0C220E2134
:102AE0008C48FEF71AFD4FF6B370009002208DF867
:102AF000040000208DF8060003208DF80500012059
:102B00008DF8070069468048FEF77CFC4FF6FF70A1
:102B1000009002208DF8040000208DF806000320AC
:102B20008DF8050001208DF8070069467748FEF70B
:102B300069FC4FF23F00009002208DF80400002055
:102B40008DF8060003208DF8050001208DF80700A0
:102B500069466F48FEF756FC46F23F00009002209F
:102B60008DF8040000208DF8060003208DF8050084
:102B700001208DF8070069466648FEF743FCFFF721
:102B800084FE1CBD6448006840F00400624908608F
:102B900080206249088062480068C0086149B0FB33
:102BA000F1F0401E5D492831088001205B49143155
:102BB00008804FF4C36059492C3108604FF41670F7
:102BC00056494031086001205449143108804FF4BF
:102BD000D04052491C3108804FF41040091D088034
:102BE0004E48008840F001004C490880704710B5FD
:102BF0008CB001210846FEF7A3FE01210220FEF75A
:102C00009FFE01210420FEF79BFE01210802FEF732
:102C1000F1FE41481C38006840F480703E491C3980
:102C200008600846006820F480700860002412E004
:102C300003208DF82C003C4800EBC40080880A90EB
:102C400000208DF82F00384951F834000AA9FEF70A
:102C5000D9FB601CC4B2012CEADB0020089006906E
:102C60004FF4803007904FF4A060099006A8FDF75C
:102C700073FC0020009001208DF8040000208DF8E6
:102C800005004FF0106003904FF08050029000203C
:102C9000049001208DF8140069462448FDF72DFCAE
:102CA00001212248FDF76FFC00240BE0601CC2B23A
:102CB0001D4800EBC400817903231C48FDF7A3FCE9
:102CC000601CC4B2012CF1DB01211848FDF746FD60
:102CD00001211648FDF737FD0CB010BD10B50020DE
:102CE0000E4908803F2012490860FFF780FF114815
:102CF000006840F400000D49C1F8040301210C48AC
:102D0000083019E07A000100000C02400010024077
:102D10000014024000180240403802400008004001
:102D20000000002040420F00904A000800200140AF
:102D30000864024004230140FDF7E2FEFFF722FF92
:102D400010BD00B58FB001218805FEF7F9FD2848B8
:102D5000006840F48000264908600846006820F4B6
:102D60008000086000BF2348FDF717FF0028FAD154
:102D700000902148019021480068029000200390B3
:102D80004FF480500490002005904FF4806006902E
:102D9000400007908000089000010A9040120990BE
:102DA00000200B9001200C9000200D900E906946A1
:102DB0001048FDF76BFE00210E48FDF7A1FE0FB095
:102DC00000BD10B50E480D4908604FF480500D4904
:102DD000488000208880FFF7B4FFFFF77FFF10BD19
:102DE000704700200349091D096801B90120704797
:102DF00010380240106402404C200140380000208E
:102E0000CE0C00203000002000B58FB00121480515
:102E1000FEF796FD00BF6C48FDF7BFFE0028FAD113
:102E20006A496948FDF7E5FE684918396648FDF7C3
:102E3000E0FE66491C396448FDF7DBFE6349103942
:102E40006148FDF7D6FE61491F395F48FDF7D1FEA5
:102E50004FF0006000905E4801905E4802900020B4
:102E6000039080200490002005904FF4806006902D
:102E70000020079008904FF400300A90002009903D
:102E80000B9001200C9000200D900E9069464E484A
:102E9000FDF7FCFD01214C48FDF732FE0FB000BDEF
:102EA00010B590B0044601214805FEF749FD4A4897
:102EB000006840F40010484908600846006820F4A3
:102EC0000010086000BF40481830FDF766FE00287B
:102ED000F9D14FF020513C481830FDF78AFE4FF0F1
:102EE000085139481830FDF784FE4FF00451364838
:102EF0001830FDF77EFE4FF0105133481830FDF7C3
:102F000078FE4FF0015130481830FDF772FE4FF057
:102F1000006001902E4802903048039040200490B9
:102F20000594002006904FF48060079000200890E0
:102F300009904FF400300B9000200A900C90012073
:102F40000D9000200E900F9001A91F481830FDF73A
:102F50009DFD01211C481830FDF7D2FD10B010BDB9
:102F600000201F49497801B90120704770B5044617
:102F700000252046FFF794FF0125012018494870DD
:102F80000870284670BD10B5044615480021016040
:102F9000818080201249888000204880FFF734FF1C
:102FA00010BD70470E48407830B107481C300068AB
:102FB00010B900200A4948707047084A02604FF46F
:102FC0007C720A8070470000886002402000002068
:102FD00004440040CE2C0020103802404E2D00202A
:102FE0003C00002000B58FB001218805FEF7A8FC49
:102FF00091499248FDF7FDFD8F4918398F48FDF73B
:10300000F8FD8D491C398D48FDF7F3FD8A491039CB
:103010008A48FDF7EEFD88491F398848FDF7E9FD2C
:103020004FF0006000908648019086480290002092
:10303000039080200490002005904FF4806006905B
:103040000020079008904FF400300A904012099039
:1030500000200B9001200C9000200D900E906946EE
:103060007648FDF713FD01217448FDF749FD0FB0C7
:1030700000BD10B590B0044601218805FEF760FC44
:1030800000BF6E487830FDF788FD0028F9D14FF079
:1030900020516A48FDF7ADFD4FF008516748FDF734
:1030A000A8FD4FF004516548FDF7A3FD4FF0105106
:1030B0006248FDF79EFD4FF001516048FDF799FD14
:1030C0004FF0006001905E4802905F4803904020FE
:1030D00004900594002006904FF480600790002033
:1030E000089009904FF400300B9000200A900C904B
:1030F00001200D9000200E900F9001A94F487830CC
:10310000FDF7C4FC01214D487830FDF7F9FC10B003
:1031100010BD00204D49497801B9012070474C4845
:10312000007870472DE9F04106460D460027B84665
:1031300046484078B0B9002407E0305D4249085560
:10314000305D3844C7B2601C84B2AC42F5DB3E4807
:103150004755691C88B2FFF78CFF01203B49487036
:10316000087080464046BDE8F08110B504463748F7
:1031700000210160818080203449888000204880BF
:10318000FFF730FF10BD30B53CE02C4C241D246807
:1031900004B93EE02D4CA488012C03D180242B4D92
:1031A000AC8004E0294CA488641E284DAC80274CD8
:1031B0006488802C02DB0024244D6C800C889442AF
:1031C00001DB00240C801C88944210DA1F4C6488B8
:1031D0001C4D2C5D0D8844550C88641C0C800C889B
:1031E000944201DB00240C801C88641C1C80174C5A
:1031F0006488641C154D6C802C466488802C01DB2F
:1032000000246C80114CA4880C4D2D1D2D68AC42FF
:10321000BBD100BF30BD0D48407830B107487C308D
:10322000006810B90020094948707047064A0260DA
:103230004FF480620A807047200000204064024002
:10324000041001404E310020CE3100204200002009
:10325000480000201FB5044601211020FEF7CAFBDC
:1032600000940020ADF80400ADF80600ADF80800A9
:10327000ADF80C000C20ADF80A006946F848FEF7DE
:1032800006FD0122C021F648FEF736FE002240F27C
:103290002661F348FEF739FE002240F22551F0483E
:1032A000FEF733FE002240F22441ED48FEF72DFEEA
:1032B0000121EB48FEF773FD1FBD1CB50121084637
:1032C000FEF73EFB4FF40070009000208DF80600E2
:1032D00001208DF8070002208DF804008DF805000C
:1032E0006946E048FEF78EF807220921DD48FEF71F
:1032F00014F94FF4806000906946DA48FEF782F8CE
:1033000007220A21D748FEF708F91CBD10B5002195
:10331000D54B9B798BB1D54B93F826376BB1D34BFB
:1033200093F826375B1ED14C84F82637234693F852
:10333000263713B90023A4F82A37CC4B93F8273744
:10334000002B76D1AFE0C94B9B885B1EC74CA38096
:1033500023465B88C3F3090223465B885B1C6380BA
:1033600004F22633985C2346B3F82A374BB9552824
:1033700006D10023BE4C23700123BC4CA4F82A378D
:103380008CE0BA4BB3F82A37012B0DD1FF2804D1BA
:103390000223B64CA4F82A3780E055287ED00023BB
:1033A000B24CA4F82A3779E0B04BB3F82A37032B94
:1033B00011DCAE4BB3F82A379B1EAC4CA41DE05475
:1033C0000023A41FA4F828372346B3F82A375B1C30
:1033D000A4F82A3762E0A54BB3F82A37052B29DC7D
:1033E000A24BB3F828374FF6FF7404EA03239F4C2F
:1033F000A4F828372346B3F828370343A4F828371E
:103400002346B3F82A379B1EA41DE054A31FB3F82C
:103410002A375B1CA41FA4F82A372346B3F82837A1
:1034200040F21B34A34239DB0023904CA4F82A3726
:1034300034E03EE08D4BB3F82A379B1E8B4CA41D25
:10344000E054A31FB3F82A375B1CA41FA4F82A3743
:103450002346B3F82A47B3F82837DB1D9C421DDB0F
:103460000023824CA4F82A37814B1B78834214D165
:10347000062384F82C372346B3F828375B1DA4F8BD
:10348000283723469B7919022346DB791943012308
:1034900084F827372346A3F82E1709E0744B1B78CE
:1034A0000344734C2370714B9B88002B3FF74BAF49
:1034B00000BF10BD6C48807958B16E4890F819056E
:1034C00038B16C4890F81905401E6A4981F8190511
:1034D00000BF70470020654981F82707704710B585
:1034E00000246148C079E0B103215E48FEF7B9FECF
:1034F00008B1012400E000245F48007884420DD028
:103500005E480078401C5D49087008460078052830
:1035100007DB594804700020087002E0002057497A
:103520000870544890F8180538B1FFF7F2FD0128EB
:1035300003D100204F4981F81805FFF76CFE4B4B73
:103540001B1D4FF48062191F01F22630FFF71BFE8E
:10355000FFF7B0FFFFF7DAFE4348C07988B1434870
:1035600090F82C0768B1414890F82C07401E3F495D
:1035700081F82C07084690F82C0710B9002081F834
:10358000270710BD70B505460C4600265520394961
:103590000871FF213748417129128171C5712112CB
:1035A00001724472A01D33490880C82081F81905B2
:1035B00000204880012081F8180508460188001D78
:1035C000FFF7B0FD0646304670BD2DE9F0410646D6
:1035D0000F4614464FF00008552026490871FF2178
:1035E0002448417131128171C671211201724472F5
:1035F000002506E07A5DA81D1E49091D0A54681CB5
:1036000085B2A542F6DBA01D1A490880C82081F8C2
:10361000190500204880012081F818050846018816
:10362000001DFFF77FFD80464046BDE8F081012088
:10363000104991F8181501B90020704710B54FF4E2
:10364000E6610A4801F05AF940F21A51094801F0BE
:1036500055F94FF6FF700549A1F82E0710BD00007F
:10366000001001400000024070000020CE35002014
:103670004A000020FE3C00204800002049000020B5
:103680001CB501210846FEF75BF9082000900020D8
:103690008DF8060001208DF8070000208DF8040049
:1036A00002208DF8050069460748FDF7ABFEFFF7DD
:1036B000C5FFFFF702FE4FF4E130FFF7CBFD00201E
:1036C000FFF753FD1CBD0000000002401CB5584828
:1036D0000021018081700A20554908703C20487003
:1036E0001E20887001210846FEF72AF94FF48070E9
:1036F000009000208DF8060001208DF807008DF85D
:10370000040002208DF8050069464A48FDF77AFE5C
:1037100008214848FEF7EEFC08214648FEF758FD10
:1037200001210420FEF70CF94FF4007000900020F6
:103730008DF8060001208DF807008DF804000220A6
:103740008DF8050069463C48FDF75CFE09213A48C2
:10375000FEF7D0FC09213848FEF73AFD1CBD0A20CF
:103760003649097A41B132498978002904DD304966
:103770008978491E2E4A91703049C97981B1304902
:103780000978002907DD2F4908782D490978491E55
:103790002B4A117004E026498978002900DD1920A0
:1037A000704710B5FFF7DBFF27480078A0B123482A
:1037B000007A20B11E484078401C1D4948701C48C2
:1037C000407802282ADB00201F4908703C20184955
:1037D00048700A20087021E01848007AF0B11448B7
:1037E000007820B112480078401E11490870104836
:1037F000407850B10E484078401E0D494870084648
:10380000407810B90120104908700948007828B99B
:1038100000F063FB10B10A200549087010BD3C2080
:103820000349487070470A2001490870704700003A
:103830004B00002000000240000802407000002001
:103840004F000020500000204E0000202DE9F043E2
:1038500006460C4600208046C2F80080002142E067
:10386000675C01F1010814F808804FEA082301F1B0
:10387000020814F8088048EA030301EB030808F182
:103880000108DFF89094B9F80890C84501DC012BD5
:1038900000DA30E0B74222D14FF0000C032B03DBFB
:1038A000A3F1030808F0FF0C002514E0D2F8008013
:1038B0004FEA0828C2F8008001F10309A94414F86E
:1038C0000990D2F8008048EA0908C2F8008005F1A2
:1038D000010808F0FF056545E8DB01200BE001EB7E
:1038E00003081FFA88F1DFF82C84B8F8089001F17A
:1038F0000208C145B4DC00BFBDE8F083F0B5044662
:103900000A460020002115E0555C4E1C965D3302EE
:103910008E1C965D3343CE18761CFE4F3F89BE4207
:1039200001DC012B00DA0AE0A54201D1501806E0C3
:10393000CE18B1B2F74E37898E1CB742E4DC00BF17
:10394000F0BD30B5014600240C70032000230DE0CB
:1039500000240C540022120100BF441C0A5500250B
:10396000841C0D55C41CA0B25C1CE3B2182BEFDB09
:1039700004124C70887030BD014600220A7003208A
:103980000A54401C02124A708870704710B50146F4
:103990001B240C700320002210E014120C54441C51
:1039A000A0B20A54441CA0B200231C120C54441CA4
:1039B000A0B20B54441CA0B2541CA2B2012AECDDEC
:1039C00004124C70887010BD014602230B70032056
:1039D000002213120B54431CCA54801C03124B7058
:1039E00088707047014603230B70032000221312D6
:1039F0000B54431CCA54801C03124B7088707047D0
:103A0000014604220A70032002124A70887070472F
:103A100001460E220A70032002124A708870704715
:103A2000014605220A70032002124A70887070470E
:103A3000014606220A70032002124A7088707047FD
:103A4000014607220A70032002124A7088707047EC
:103A500002460B4608211170032000211154401C1E
:103A600001125170907070470246092313700320B1
:103A7000031253709070704702460B460A21117072
:103A8000032000211154401C0112517090707047A6
:103A900002460B460B211170032000211154401CDB
:103AA000011251709070704702460C23137003206E
:103AB0000B121354401C1154401C0312537090708D
:103AC0007047014619220A70032020220A54401C24
:103AD00008220A54401C01220A54401CF4220A54B1
:103AE000401C01220A54401C2C220A54401C002273
:103AF0000A54401C0A54401C0A54401C0A54401CDE
:103B00000A54401C02124A708870704701461D23F7
:103B10000B70032000220A54401C03124B70887063
:103B2000704701461A220A70032002124A708870F8
:103B3000704770B505460E4600247648C0680555A6
:103B4000641C7449C9680819FFF73EFF204484B219
:103B50007049C9680819FFF745FF204484B26D49D0
:103B6000C9680819FFF74CFF204484B26949C96845
:103B70000819FFF755FF204484B26649C96808193F
:103B8000FFF756FF204484B26249C9680819FFF75D
:103B9000D8FE204484B25F49C9680819FFF7ECFEDB
:103BA000204484B25B49C9680819FFF749FF2044E3
:103BB00084B2204670BD2DE9F84106460F46002428
:103BC0006A4639461120FFF741FE80465148C068D9
:103BD0000655641CB8F1000F21D0009885B24D49FC
:103BE000C96808192946FFF75FFF204484B2E9B28B
:103BF000484AD2681019FFF72BFF204484B2E9B27B
:103C0000444AD2681019FFF72FFF204484B2E9B26A
:103C1000404AD2681019FFF72FFF204484B2204693
:103C2000BDE8F88102460020704702460020704738
:103C30000246002070472DE9F04105460F4600245A
:103C40003448C0680555641C0D203249C9680855C0
:103C5000641CA41C304800F0EDFD80462D49C96865
:103C6000081942462C4900F004FE2B4800F0E2FD02
:103C7000204484B2274900231A46C868214600F030
:103C800057FA0446254800F0D5FD80462149C96809
:103C900008194246214900F0ECFD204800F0CAFD19
:103CA000204484B21B4900231A46C868214600F00C
:103CB0003FFA04461A4800F0BDFD80461549C96820
:103CC00008194246164900F0D4FD154800F0B2FD2F
:103CD000204484B20F4900231A46C868214600F0E8
:103CE00027FA04460F4800F0A5FD80460949C96837
:103CF000081942460B4900F0BCFD0A4800F09AFD45
:103D0000204484B2034900231A46C868214600F0C3
:103D10000FFA09E0184200206F4C0008774C0008A9
:103D2000814C0008894C00080446C44800F082FD1C
:103D30008046C349C96808194246C04900F099FD48
:103D4000BE4800F077FD204484B2BD4900231A46E6
:103D5000C868214600F0ECF90446BA4800F06AFD54
:103D60008046B749C96808194246B64900F081FD46
:103D7000B44800F05FFD204484B2B14900231A46E4
:103D8000C868214600F0D4F90446AF4800F052FD5F
:103D90008046AB49C96808194246AB4900F069FD45
:103DA000A94800F047FD204484B2A84800F042FD35
:103DB0008046A349C96808194246A44900F059FD44
:103DC000A24800F037FD204484B29D4900231A46E2
:103DD000C868214600F0ACF90446601E86B2301275
:103DE0009749C96888709649C968CE709449C9686E
:103DF0000819FFF70DFE204484B29149C9680819DB
:103E0000FFF7C4FD204484B22046BDE8F08170472E
:103E100002460020704770B506460C462146A82091
:103E2000FFF709FF0546284670BDF0B505460F4669
:103E3000002400268248C0680555641C8049C96872
:103E40000819FFF799FD204484B27D49C968081913
:103E50003146FFF71DFE204484B22046F0BD0246E5
:103E60000020704770B505460E4600247448C068AF
:103E70000555641C7249C9680819FFF722FE2044E1
:103E800084B26F49C9680819FFF74BFE204484B219
:103E90006B49C9680819FFF739FE204484B22046EF
:103EA00070BD10B50346002010BD024600207047CB
:103EB00002460020704770B50025FFF7B8FB50B9E7
:103EC0005F48007938B9624CB02020700121002091
:103ED000FFF758FB0125284670BD38B500250020A6
:103EE0000090FFF7A4FBF8B955480079E0B9584CA9
:103EF000AF202070BDF80000401C80B20090BDF8DB
:103F0000001060186946FEF7CEFA0020BDF80010D8
:103F10006054BDF80000401C80B20090BDF8001055
:103F20000020FFF72FFB0125284638BD70B5044659
:103F30000D4644F400402946FFF724FB70BD2DE9EF
:103F4000F0413F480079002843D1424890F82707C4
:103F5000002848D03F48807907023E48C07907438F
:103F600007F4004010B9FFF762FB68BB3948857A57
:103F7000334805743748007A4FEA00283548407ABC
:103F800040EA08082E48A0F80880002419E03248CA
:103F900010F83400A84212D12F4800EBC4002D497C
:103FA0000B314268284690470646002E06DDF8B2DF
:103FB0003146FFF7BBFF01202149087103E0601C77
:103FC000C4B20D2CE3DB00BF0020224981F8270793
:103FD00009E01B480079012805D1FFF728FB10B93B
:103FE000002017490871BDE8F08110B5FFF7A7FF61
:103FF0001A48C07978B11A48807820B1184880787A
:10400000401E174988700E48408820B10C484088EF
:10401000401E0B49488010BD10B500201049887023
:104020001421074800F08CFC09480549C86010BD00
:1040300001460020B42900D101207047924C0008AD
:10404000184200209D4C0008A84C0008B24C000803
:10405000083D0020CE350020D04A00087000002026
:1040600051000020F0B503460C460022002100203C
:104070001FE0002101250DE056189E5D0EB90025B8
:104080000BE056189E5D675CBE4201D0002504E03F
:104090004E1CB1B2665C002EEED100BF665C06B16C
:1040A0000025012D03D15618761CB0B204E0561C31
:1040B000B2B29E5C002EDCD100BFF0BDF0B503466D
:1040C0000C460022002100201EE0002101250DE009
:1040D00056189E5D0EB900250BE056189E5D675C74
:1040E000BE4201D0002504E04E1CB1B2665C002E39
:1040F000EED100BF665C06B10025012D02D1561835
:10410000761CB0B2561CB2B29E5C002EDDD1F0BD62
:1041100001460022002007E000EB800358008B5C82
:10412000303B1844531CDAB28B5C002BF4D170473F
:104130002DE9F04F05460C4694464FF00A086746B5
:10414000C246002B00DD9A460022002111E0B7FB99
:10415000F8F606FB08F9A7EB0900303004EB010E76
:1041600005F80E000A4637460FB903B903E0481CAC
:10417000C1B25145EBDB00BF002004EB010E0EF194
:10418000010E05F80E00501C4FEA600A00210FE0F6
:10419000081915F800B0501A2044285C01EB040EF1
:1041A00005F80E00501A204405F800B0481CC1B2B2
:1041B0005145EDDBA018401C80B2BDE8F08F30B552
:1041C00002460B460021012007E0545C5D5CAC42D6
:1041D00001D0002006E04C1CA1B2545C14B15C5C20
:1041E000002CF2D100BF20B1545C5D5CAC4200D029
:1041F000002030BD30B502460B460021012007E00B
:10420000545C5D5CAC4201D0002006E04C1CA1B2C5
:10421000545C14B15C5C002CF2D100BF20B1545C42
:104220005D5CAC4200D0002030BD70B504460B464A
:10423000002020E0255C2909092904DC01F1300572
:1042400003F8105003E001F1370503F81050255C26
:1042500005F00F01092906DC01F13005EEB2450039
:104260006D1C5E5505E001F13705EEB245006D1C91
:104270005E55451CA8B29042DCDB70BD10B502460D
:104280000B46002011E01C24A4EB800423FA04F464
:1042900004F00F01092903DC01F13004145402E099
:1042A00001F137041454441CE0B20828EBDB10BDC4
:1042B00001460020302904DB392902DCA1F130025B
:1042C000D0B2612904DB662902DCA1F15702D0B229
:1042D000412904DB462902DCA1F13702D0B2704744
:1042E00070B504460E46002317E0E05C10B1581C80
:1042F000205C00B914E0E05CFFF7DAFF0546280710
:10430000050E591C605CFFF7D3FF0543184603EB0D
:10431000D07149106554981C83B2701E9842E4DC39
:1043200000BF581070BD30B50446002003E0155C96
:104330002554451CE8B2155C0DB19842F7DB0880A6
:104340000025255430BD10B50346002005E01C5C57
:104350008C4200D11A54441CA0B2B0F57A7F02DA24
:104360001C5C002CF3D110BD002115E0435C0D2B2B
:1043700002D0435C0A2B0ED10A4607E0531CC35CF3
:104380008354531CC35C03B904E0521C40F2FF3356
:104390009A42F3D300E0491C40F2FF33994202D223
:1043A000435C002BE2D170472DE9F04704460D46EF
:1043B0001646DDF820800027BC46002200200021A0
:1043C00033E014F8019015F80CA0D14509D107F19C
:1043D00001091FFA89F700220CF101091FFA89FC73
:1043E0001FE014F80190B9F10D0F04D014F80190FA
:1043F000B9F10A0F00D11DE0B7420ED1A8F10109B1
:10440000894509DD4FF0000A02F1010903F809A00E
:1044100014F8019003F80290012002F101091FFA3B
:1044200089F201F101091FFA89F114F80190B9F13B
:10443000000FC6D100BFBDE8F08770B502460D463B
:1044400000240020002319E01C26A6EB830625FA91
:1044500006F606F00F0114B909B100200124012C61
:104460000AD1092903DC01F13006165402E001F1FA
:1044700037061654461CF0B25E1CF3B2082BE3DB81
:1044800010B930261654012070BD00001CB5012162
:104490002020FDF755FA4FF48060009000208DF841
:1044A000060001208DF807008DF8040002208DF829
:1044B000050069466148FCF7A5FF0A215F48FDF742
:1044C00019FE4FF403715E4800F03AFA5D485C490A
:1044D000C1F808021CBD2DE9F041074600245848E8
:1044E000B0F80412001D20F81170001FB0F804028B
:1044F000401C5349A1F804020846B0F80402FF2802
:104500002ADD5020D1F808120855601C84B200251D
:1045100012E04B48001D30F8156030124849D1F8C0
:1045200008120855601C84B24549D1F808120E558E
:10453000601C84B2681C85B2FF2DEADD214642482A
:104540000088FFF71FF840480088401C3E4908805B
:1045500000203B49A1F80402BDE8F08110B52CE031
:104560003A48006848B33A484088012803D100031C
:104570003749488004E036484088401E3449488026
:1045800033488088B0F5805F02DB002030498880A6
:104590002F4880882F49096831F810402046FFF7DE
:1045A0009AFF2B488088401C2949888008468088CB
:1045B000B0F5805F01DB00208880254840882349D2
:1045C00009688842CCD110BD10B5FFF7C7FF22485B
:1045D000C07940B11A484088002804DD1848408856
:1045E000401E174948801648007880B91B48807BD8
:1045F00010B31A48C07BF8B10120114908700A2194
:104600000E48FDF7E5FD64200D49488014E00C4894
:104610000078012810D11048C07918B10A21074844
:10462000FDF70EFE0648408830B90A210348FDF721
:10463000DDFD00200249087010BD0000001402409A
:1046400090420020083D00205400002014640240E5
:104650003000002038000020700000209C44002022
:1046600000200BE00021C0EBC0026E4B1A445170D9
:10467000C0EBC0021A44D170411CC8B20328F1DB60
:10468000704710B501211020FDF75AF900240AE007
:10469000654A02EBC4021179634A52F83400FDF70F
:1046A0005AFD601CC4B2032CF2DB15215D4800F0FA
:1046B00025F910BD70B504460025032C0ADA5A4AC4
:1046C00002EBC4021179584A52F83400FDF7C9FDD3
:1046D00000B90125284670BD2DE9F0415348007806
:1046E00000283BD00027002436E02046FFF7E2FFF9
:1046F0000646C4EBC4004B49085CB0420AD0C4EB88
:10470000C40008448078401CC4EBC401454A1144ED
:10471000887005E00020C4EBC401424A114488704F
:10472000C4EBC4003F49084480783F4901EBC40111
:10473000497988420EDBC4EBC4003A490E5401208B
:10474000C4EBC401374A114448700020C4EBC401D3
:1047500011448870601CC4B2032CC6DB33488079D6
:1047600000285CD0002458E00026C4EBC4002D498A
:10477000085C80B10126C4EBC40008440079BB2862
:1047800009DCC4EBC40008440079401CC4EBC4013C
:10479000244A11440871B6B1002511E0C4EBC400ED
:1047A0002049084400792249495D884206D1681CA5
:1047B000C4EBC4011B4A1144C87003E0681CC5B2B5
:1047C000032DEBDB27E0C4EBC40016490844007955
:1047D00000281ADD042600250DE0C4EBC4001149B1
:1047E000084400791249495D884202DC681CC6B25F
:1047F00003E0681CC5B2032DEFDB00BF46F080006C
:10480000C4EBC401074A1144C8700020C4EBC401C2
:10481000044A11440871601CC4B2032CA4DBBDE837
:10482000F08100009C44002058000020700000200F
:10483000C34C000810B5431C02E010F8011B71B115
:104840008107FAD14FF0013202C88C1A8C4314EA66
:10485000C211F9D0C01A0A0603D0C01E10BDC01A7A
:1048600010BD0A0401D0801E10BD0902FCD0401EFC
:1048700010BD032A40F2308010F0030C00F01580C8
:1048800011F8013BBCF1020F624498BF11F801CB53
:1048900000F8013B38BF11F8013BA2F1040298BFB8
:1048A00000F801CB38BF00F8013B11F0030300F022
:1048B0007180083AC0F0088051F8043B083A51F87A
:1048C00004CBA0E80810F5E7121D5CBF51F8043BCB
:1048D00040F8043BAFF30080D20724BF11F8013B3E
:1048E00011F801CB48BF11F8012B24BF00F8013BA0
:1048F00000F801CB48BF00F8012B70474FF00002D1
:104900000429C0F0128010F0030C00F01B80CCF1E1
:10491000040CBCF1020F18BF00F8012BA8BF20F84F
:10492000022BA1EB0C0100F00DB85FEAC17C24BFA3
:1049300000F8012B00F8012B48BF00F8012B70474D
:104940004FF0000200B5134694469646203922BF28
:10495000A0E80C50A0E80C50B1F12001BFF4F7AF73
:10496000090728BFA0E80C5048BF0CC05DF804EB55
:10497000890028BF40F8042B08BF704748BF20F8C3
:10498000022B11F0804F18BF00F8012B70477047C1
:104990007047704710B5203AC0F00B80B1E818504E
:1049A000203AA0E81850B1E81850A0E81850BFF419
:1049B000F5AF5FEA027C24BFB1E81850A0E81850B8
:1049C00044BF18C918C0BDE810405FEA827C24BF0C
:1049D00051F8043B40F8043B08BF7047D20728BF9A
:1049E00031F8023B48BF11F8012B28BF20F8023BE9
:1049F00048BF00F8012B704700487047B4440020BE
:104A00007546FFF7F9FFAE4605006946534620F0AC
:104A10000700854618B020B5FBF714FCBDE8204020
:104A20004FF000064FF000074FF000084FF0000B6A
:104A300021F00701AC46ACE8C009ACE8C009ACE81D
:104A4000C009ACE8C0098D46704710B50446AFF305
:104A500000802046BDE81040FBF7DFBB014918206D
:104A6000ABBEFEE72600020070474FF04070E1EE5B
:104A7000100A70474142434442414F4C554F303039
:104A800030303030313233343536373800000000C2
:104A9000000002400200100000080240080011005F
:104AA0000008024004000D0000080240020001005E
:104AB0000008024001000C0000040240010009004F
:104AC0000004024002000000000002400100080053
:104AD000A5000000B13E0008A6000000333B00081E
:104AE000A7000000B73B0008A8000000373C000802
:104AF000A9000000173E0008AD000000113E0008AC
:104B0000AA0000002B3C0008AB000000313C00086C
:104B1000AC000000253C0008AE0000002B3E000861
:104B2000B10000005F3E0008B2000000653E0008D2
:104B3000B3000000AB3E00087B2261223A22676589
:104B400074222C2274223A2270726F6772616D2275
:104B50002C2272223A2200222C2272756E6D6F6412
:104B600065223A00007B2261223A22676574222C7A
:104B70002274223A22616C6C222C2269223A002C87
:104B8000226F223A002C2276223A2200222C226125
:104B900064223A2200222C22746D223A2200222C16
:104BA0002272223A2200222C2272756E6D6F646589
:104BB000223A002C226479223A220022007B2261D0
:104BC000223A22676574222C2274223A22727422BD
:104BD0002C22726964223A002C22737465706E75FF
:104BE0006D223A002C22696E73223A2200222C2276
:104BF00072756E223A007B2261223A2273617665D9
:104C0000222C2274223A2264656C7274222C227245
:104C10006964223A002C22726573756C74223A0022
:104C20007B2261223A2273617665222C2274223A19
:104C3000227274222C22726964223A002C2272653C
:104C400073756C74223A007B2261223A227361767A
:104C500065222C2274223A2272756E222C227269ED
:104C600064223A002C22726573756C74223A002219
:104C700079656172223A002C226D6F6E7468223A57
:104C8000002C22646179223A002C22686F7572220E
:104C90003A002C226D696E757465223A002C2273DD
:104CA00065636F6E64223A002C226E616D65223A54
:104CB0002200222C2261646472223A0026766172FC
:104CC000733D002E4E9C0000E84C000800000020C0
:104CD00070000000C4010008584D0008700000205A
:104CE000A84A0000E0010008007A030A0000000062
:104CF000000000000102030406070809000000008C
:104D00000102030401020304060708090000000071
:104D10000000000000000000000000000000000093
:104D20000000000000000000000000000000000083
:104D300000000000000000000A0000000000000069
:104D400000100240040F000000100240030F00009A
:084D500000100240020F0000F8
:040000050800018965
:00000001FF
